:100000000C942C010C944B010C944B010C944B015F
:100010000C944B010C944B010C944B010C944B0130
:100020000C944B010C944B010C944B010C944B0120
:100030000C944B010C944B010C944B010C944B0110
:100040000C944B010C944B010C944B010C944B0100
:100050000C944B010C944B010C944B010C944B01F0
:100060000C944B010C949D2F0C944B010C944B0160
:100070000C944B010C946F020C944B010C944B01AB
:100080000C944B010C944B010C944B010C944B01C0
:100090000C94F42F0C944B010C944B010C943C6E7B
:1000A0000C944B010C944B010C944B010C944B01A0
:1000B0000C944B010C944B010C944B010C94F142A9
:1000C0000C944B010C944B010C944B010C944B0180
:1000D0000C944B010C944B010C944B010C944B0170
:1000E0000C944B010C944B010C944B010C940C3C64
:1000F0000C941B3C0C944B010C944B010C94CE3B88
:100100000C944B010C944B010C944B010C944B013F
:100110000C944B010C944B010C944B010C944B012F
:1001200098833883E2827884F883CE84DC828E825E
:100130003F8236823082F28305A84CCDB2D44EB9CC
:100140003836A9020C50B9918688083CA6AAAA2A7A
:10015000BE000000803F6E616E00696E6600004068
:100160007A10F35A00A0724E18090010A5D4E800C6
:1001700000E87648170000E40B54020000CA9A3BDE
:10018000000000E1F5050000809698000000404264
:100190000F000000A08601000000102700000000F2
:1001A000E803000000006400000000000A000000F6
:1001B00000000100000000002C76D888DC674F08A2
:1001C00023DFC1DFAE59E1B1B796E5E3E453C63AA8
:1001D000E651997696E8E6C28426EB898C9B62ED1F
:1001E000407C6FFCEFBC9C9F40F2BAA56FA5F490D9
:1001F000055A2AF75C936B6CF9676DC11BFCE0E450
:100200000D47FEF520E6B500D0ED902E03009435A5
:1002100077050080841E080000204E0A000000C8F8
:100220000C333333330F986E12831141EF8D211449
:10023000893BE65516CFFEE6DB18D1844B381BF719
:100240007C1D901DA4BBE424203284725E228100B8
:10025000C9F124ECA1E53D2711241FBECFEFD1E465
:10026000DEBFCDBF1EE0A0E0B2E0ECE0FDE501E0C6
:100270000BBF02C007900D92AC32B107D9F71DE158
:10028000ACE2BEE001C01D92A53EB107E1F70E94BD
:10029000EF070C9484AE0C94000008950895E82FA5
:1002A000F0E0E05CFE4F60830895E82FF0E0E05C52
:1002B000FE4F80810895E82FF0E0E05CFE4F8081E2
:1002C0006823862F90E002C0959587954A95E2F7BE
:1002D0000895E82FF0E0E05CFE4F862F8095908136
:1002E0008923042E01C0220F0A94EAF72623822BC9
:1002F0008083089587FD8FE780938001482F50E029
:1003000081E891E00C9471ADFF920F931F93CF930E
:10031000DF938A01F0907B01F61608F46F2DC62F4B
:10032000D0E0AE0160E871E00E9471ADC058DE4FD0
:100330008881F80180838F2DDF91CF911F910F91DC
:10034000FF900895FF920F931F93CF93DF938C013B
:10035000F62EEA01209751F047E060E886E00E941F
:100360005B0191E0813009F090E0988340E050E03B
:100370006F2DC801DF91CF911F910F91FF900C94C9
:100380008401DF92EF92FF920F931F93CF93DF933D
:100390008C01D62E7A01E901209751F047E060E800
:1003A00086E00E945B0191E0813009F090E0988343
:1003B000A7016D2DC801DF91CF911F910F91FF9083
:1003C000EF90DF900C94840180917B010895FA01F5
:1003D000282F30E0D901A60FB11DA038B10514F0C7
:1003E0006FE7681B462F50E0BF01C90180589E4F40
:1003F0000C9471AD782FCA01272F30E0F901E60F78
:10040000F11DE038F10514F06FE7671B462F50E04F
:10041000B90160587E4F0C9471AD6830710540F49D
:10042000FB01EE0FFF1FE80FF91F808191810895F6
:1004300080E090E00895CF93DF93EC016830710580
:10044000D0F4FB01EE0FFF1FE80FF91F60817181EF
:1004500080E090E00E94D3A8288939894A895B8985
:100460000E94E5A920E030E040E85AE30E94E5A9B7
:10047000DF91CF91089560E070E0CB01DF91CF91E3
:1004800008958091400E882319F08CE29EE0089533
:100490000E9479330E94C032FC0180818230D1F009
:1004A0008DEC9CECACECBFE320EC20937C00109234
:1004B0007B002FEE20937A0080933C0E90933D0EAC
:1004C000A0933E0EB0933F0E81E08093400E8CE2ED
:1004D0009EE0089580E090E0A0EABFE3E5CF1F92A0
:1004E0000F920FB60F9211240BB60F921F932F93FA
:1004F0003F934F935F936F937F938F939F93AF93AC
:10050000BF93CF93DF93EF93FF9380910B028F5FA5
:1005100080930B02833000F110920B02D09178008F
:1005200010917900C0910A020E944102C83078F10E
:1005300080910A028F5F883038F580930A0280919B
:100540007C00807E80937C0080917C0090910A02E8
:10055000892B80937C0002C0882301F3FF91EF91E7
:10056000DF91CF91BF91AF919F918F917F916F91CB
:100570005F914F913F912F911F910F900BBE0F9064
:100580000FBE0F901F90189510920A02D8CFEC2F33
:10059000F0E0EE0FFF1FE80FF91F13708D2F90E0B2
:1005A000912B9183808380910A028F5F883060F75E
:1005B000C4CFDA011496ED91FC911597309739F07C
:1005C000AB01BC0116968D919C91179709940895E3
:1005D0006115710529F021E030E0DB012D933C939A
:1005E000DA01ED91FC911197309731F0682F129656
:1005F0008D919C911397099580E090E00895DC011E
:10060000ED91FC910480F581E02D09940C94B74D97
:100610000C94124D0C947754CF93DF9300D0CDB748
:10062000DEB79E012F5F3F4F08960E942D910F90DD
:100630000F90DF91CF9108950F931F9300E010E08A
:1006400020E030E040E050E008960E94818D019665
:1006500019F01F910F9108950E9489AC2F923F923B
:100660004F925F926F927F928F929F92AF92BF92C2
:10067000CF92DF92EF92FF920F931F93CF93DF936E
:10068000CDB7DEB7CE58D6400FB6F894DEBF0FBE5A
:10069000CDBF6C015A01CE018B5C9C4F0E9471ADA5
:1006A000CB5CDB4FA882C553D440D601CD90DC9003
:1006B00081E091E0FE01EB5CFC4FDE01AC5CBD4FE4
:1006C00001900D920197E1F70E94D2919501332795
:1006D0008E010757194FAE014C5C5D4FBC01CE0136
:1006E0008D519A4F0E942292C757D94F8881998184
:1006F000C958D640892B09F10E942B324FEF50E0A8
:1007000060E00E949631C257D94F0FB6F894DEBF11
:100710000FBECDBFDF91CF911F910F91FF90EF9052
:10072000DF90CF90BF90AF909F908F907F906F9011
:100730005F904F903F902F9008958CE8FE01ED510F
:10074000FA4FDE01A95ABA4F01900D928A95E1F74E
:10075000FE0131964F0182E391E0DF01FC011D9221
:100760003197E9F721E0C855DF4F2883C85AD040B8
:10077000C95ADA4F88819981AA81BB81C755D54072
:10078000C755DF4F88839983AA83BB83C95AD0405A
:100790002B83C55ADA4F88819981CB55D54081305A
:1007A000910509F480C08230910509F441C0892B7C
:1007B00009F487C082E090E09D838C832F8F83E0D3
:1007C00090E099A388A39E012957394F5901CE0182
:1007D0008D5C9E4F3C010E94D59175018E010D5C90
:1007E0001D4F20E031E0A301BC01C4010E94D8915B
:1007F000D5018D919C91892B09F07ECFCD5CDD4F89
:100800004881C353D24050E0D601ED91FC9130971E
:1008100009F479CFB301D60112968D919C9113976B
:100820000995F50180819181892B09F46CCF64CF02
:10083000C35ADA4F3881CD55D540332309F4BCCFA4
:10084000C25ADA4F88819981AA81BB81CE55D540A1
:10085000803CE3E29E07E3E7AE07E0EDBE0709F464
:100860004AC08330F4E19F07FCEAAF07FDEDBF0704
:1008700009F438C18D399841A94FBF4B09F462C0C2
:1008800034E020E0FE01E957F94F5F01CE018D5CB5
:100890009E4F3C0182E090E09D838C8381E08F8FAE
:1008A00038A329A398CF82E090E09D838C832F8F7B
:1008B000DE01A957B94F5D01FE01ED5CFE4F3F011E
:1008C0008ACF2E8383E090E0A0E0B0E08B879C8706
:1008D000AD87BE8781E090E0A0E0B0E08F8B988F7D
:1008E000A98FBA8F82E090E0A0E0B0E08B8F9C8F60
:1008F000AD8FBE8F68CFCE59DA4F4880C256D540F3
:10090000512C0E942EA75E01B9E7AB1AB9EFBB0AC2
:100910003E01EDEC6E1AEEEF7E0A8501920147E58D
:1009200055E04C0F5D1F445F5F4FBC01C3010E9447
:100930002292D5018D919C91009709F413C1382F13
:10094000292FA8CFCE59DA4F4880C256D540512C16
:100950000E942BA75E01F9E7AF1AF9EFBF0A3E012B
:100960002DEC621A2EEF720A8501920147E555E0DF
:100970004C0F5D1F445F5F4FBC01C3010E94229278
:10098000D5018D919C910097D1F61E01BAEC2B1ADE
:10099000BBEF3B0A83E9F301D10101900D928A95E7
:1009A000E1F780911602882309F442C0F1018585A0
:1009B0008823F1F14685578560897189F601848124
:1009C0009581A681B781481759076A077B0781F18E
:1009D0004483558366837783C557D94F4883CB5863
:1009E000D640C457D94F5883CC58D640C357D94F57
:1009F0006883CD58D640C257D94F7883CE58D64059
:100A00000E94C842C557D94F4881CB58D640C457D9
:100A1000D94F5881CC58D640C357D94F6881CD584B
:100A2000D640C257D94F7881CE58D6400E942B422B
:100A3000F10181859285A385B48580389105A10552
:100A4000B10508F424C1FE01E558F94F86E0DF0145
:100A50001D928A95E9F783E090E09E0127533B4F72
:100A600029019183808326E0DE01AF57B94F0190C1
:100A70000D922A95E1F7CF57D94F99838883C158B2
:100A8000D64086E0FE01EF57F94FD20101900D925A
:100A90008A95E1F70E9434A775018E01095D1F4F09
:100AA00020E830E0AE01485D5F4FBC01C2010E940A
:100AB000D891F50180819181009709F040CF83E0C2
:100AC00090E09D838C8381E08AA3C25ADA4F8881AB
:100AD0009981AA81BB81CE55D5408BA39CA3ADA3A0
:100AE000BEA379CECE59DA4F4880C256D540512C9C
:100AF0000E9428A75E0139E7A31A39EFB30A3E0125
:100B0000ADEC6A1AAEEF7A0A8501920147E555E02D
:100B10004C0F5D1F445F5F4FBC01C3010E942292D6
:100B2000F50180819181009709F009CF8CE0E9E31C
:100B3000F4E0DE01AA5CBB4F01900D928A95E1F7CB
:100B40000E9431A775018E01095D1F4F20E830E03A
:100B5000AE01485D5F4FBC01CE018A5C9B4F0E9495
:100B6000D891A7CF2E01B7E34B1ABBEF5B0A8EE8F3
:100B7000F301D20101900D928A95E1F7809116025E
:100B8000882309F442C0F20180858823F1F1418570
:100B9000528563857485F60184819581A681B7812C
:100BA000481759076A077B0781F144835583668399
:100BB0007783C557D94F4883CB58D640C457D94FB0
:100BC0005883CC58D640C357D94F6883CD58D640A8
:100BD000C257D94F7883CE58D6400E94C842C557D5
:100BE000D94F4881CB58D640C457D94F5881CC589B
:100BF000D640C357D94F6881CD58D640C257D94F38
:100C00007881CE58D6400E942B42F2018481958192
:100C1000A681B78180389105A105B10508F468C0A7
:100C2000FE01E159F94F86E0DF011D928A95E9F74F
:100C300083E090E09E012A5C3B4F19019183808301
:100C400026E0DE01AB58B94F01900D922A95E1F7ED
:100C5000CB58D94F99838883C557D64086E0FE018B
:100C6000EB58F94FD10101900D928A95E1F70E945E
:100C700037A775018E01095D1F4F20E830E0AE01F6
:100C8000485D5F4FBC01C1010E94D89112CF2E0177
:100C900037E3431A3BEF530A8581F201808783E0F3
:100CA00090E09287818748E050E0B101C2010E9444
:100CB00091ADD20117961C920E94C842DC01ED91C1
:100CC000FC919101235F3F4FD10119966C916058BF
:100CD0000190F081E02DA2010995FE01E558F94F40
:100CE00086E0DF011D928A95E9F780E090E0B9CEB9
:100CF0001E013AEC231A3BEF330A88E0E5E4F4E006
:100D0000D10101900D928A95E1F782E090E0D10146
:100D10001A969C938E931997F201808118968C9362
:100D20000E94C842DC01ED91FC919201285F3F4F87
:100D3000D20114966C9160580190F081E02DA101D0
:100D40000995FE01E159F94F86E0DF011D928A9570
:100D5000E9F780E090E072CF4115510509F408955C
:100D60000C942E038091140280FD12C00E942B323D
:100D700040E050E060E00E94963180911402909132
:100D800015020196909315028093140281E0089554
:100D90000E942B324FEF50E060E00E949631EDCF81
:100DA0000C94B206E1E6F0E080E88083108278944B
:100DB0000E942B3240E050E86FEF0E949631089578
:100DC0001F93CF93DF9300D000D000D0CDB7DEB714
:100DD0001E821D820E9479330E94EC32FC01408108
:100DE00051816281738141305105F2E06F077105D5
:100DF00008F06AC0411551056105710509F42CC060
:100E00002D813E8180E090E0DC01ABBFFC011791B9
:100E10003127032E0294E02DEF70E327132F1025C6
:100E2000110F107EE127102D1327107F1695032E2A
:100E3000000C111F3695369536953F7131273227B4
:100E40002E2F0196A11DB11D84179507A607B70780
:100E500009F0DBCF3E832D830E9479330E94E1327B
:100E6000FC01208131818D819E812817390701F194
:100E70000E942B324FEF50E060E00E9496310E94BA
:100E8000793322E030E0AE014B5F5F4F66E274E001
:100E90000E941B3380911602811126C026960FB640
:100EA000F894DEBF0FBECDBFDF91CF911F910895A3
:100EB00080911602882381F00E942B324FEF5FEF62
:100EC0006FEF0E949631EACF0E942B324FEF50E035
:100ED00060E00E949631E2CF0E942B3240E05FEF4B
:100EE0006FEF0E949631DACF80ED96E09A83898386
:100EF0001C821B820E947B432AEF30E040E050E0DE
:100F0000BE016F5F7F4F0E941744C8CFCF92DF9220
:100F1000EF92FF920F931F93CF93DF93CDB7DEB77E
:100F2000C159D1090FB6F894DEBF0FBECDBF8C01F9
:100F30007A01DC018C918823C1F1FE0131966F01A9
:100F400086E8DF011D928A95E9F741385105E8F5F9
:100F5000CE0107960E9471ADEE82F80184858983E7
:100F600045855685678570894A835B836C837D835D
:100F70008BE03196DE01A957BF4F01900D928A9503
:100F8000E1F781E8C157DF4F8883CF58D0400E94F6
:100F9000C842DC01ED91FC910190F081E02D9601B9
:100FA000AE0149575F4F60E00995CF56DF4F0FB64E
:100FB000F894DEBF0FBECDBFDF91CF911F910F918F
:100FC000FF90EF90DF90CF9008950E942B324FEF6B
:100FD00050E060E00E949631E8CF0C948607CF93F2
:100FE000DF93CDB7DEB7CF5CD5410FB6F894DEBF47
:100FF0000FBECDBF0E94D2060E94C8420E9441028D
:101000000E940C6E0E94A56A0E944D6F0E94E0062D
:1010100020E034E843E050E061E070E0CE018E5A19
:101020009C4E0E944B30CE018E5A9C4E0E94CC307A
:101030001A8219821C821B821E821D8218861F82C0
:101040001D861C861F861E86CE0109960E94CF8CA7
:101050008E010F5F1F4FA80169ED72E0CE01099666
:101060000E94428D980148EE52E060E070E0CE01AF
:1010700009960E944D8DC45ADA4E19830883CC55C7
:10108000D5418CE193E0C65ADA4E99838883CA55DC
:10109000D54122E533E12C0F3D1F3C832B838FEF9D
:1010A00092E09A8389833093530F2093520F1093C9
:1010B000510E0093500ECE018E539A4EDC011496C1
:1010C0001D921D921D921C92179713961C930E93BE
:1010D00012972CE033E02D933C93FE01E253FA4E3D
:1010E00091838083F887EF832CEA36E03E832D835B
:1010F000C759DA4E19821882C956D541C559DA4EF8
:1011000019821882CB56D541C359DA4E19821882FA
:10111000CD56D541C159DA4E19821882CF56D541E4
:10112000CF58DA4E19821882C157D541CD58DA4EC0
:1011300019821882C357D541CB58DA4E19821882CA
:10114000C557D541C958DA4E19821882C757D541BB
:10115000C758DA4E1882C957D541C658DA4E188298
:10116000CA57D541C558DA4E1882CB57D541C45518
:10117000DA4E1882CC5AD5418E0103551A4ED80149
:101180001D9228E0E5E4F4E001900D922A95E1F744
:10119000F801118622E030E033872287148629E6A1
:1011A00035E12C0F3D1F328B218B948B838B309339
:1011B0004F0E20934E0E90934D0E80934C0E109335
:1011C0004B0E00934A0E0E94C842DC01ED91FC9147
:1011D0000480F581E02D2FE438E2C653DA4E3983DE
:1011E0002883CA5CD541C453DA4E19830883CC5C8A
:1011F000D541BE0166537A4E0995C559DA4E198319
:101200000883CB56D5418DEE97E0C759DA4E9983C6
:101210008883C956D5410E94E54D7C010E94B44D9A
:10122000C159DA4E19830883CF56D5412FE53EE0E8
:10123000C359DA4E39832883CD56D541CD58DA4E7D
:1012400099838883C357D54188E093E0CF58DA4E1D
:1012500099838883C157D541C958DA4EF982E8820B
:10126000C757D54186E093E0CB58DA4E99838883FF
:10127000C557D541C653DA4E39832883CA5CD54158
:10128000C453DA4E19830883CC5CD5410E94094DC2
:10129000AE0146535A4E60E070E00E94734CCF5846
:1012A000DA4E88819981C157D541C653DA4E998368
:1012B0008883CA5CD541CD58DA4E88819981C3575D
:1012C000D541C453DA4E99838883CC5CD5410E94C2
:1012D000094DAE0146535A4E61E070E00E94734CD6
:1012E000CB58DA4E88819981C557D541C653DA4E1D
:1012F00099838883CA5CD541C958DA4E888199811F
:10130000C757D541C453DA4E99838883CC5CD54105
:101310000E94094DAE0146535A4E62E070E00E94B1
:10132000734C80911602882309F48CC000E010E011
:1013300060C0CA5ADC4E28813981C655D341C85A8B
:10134000DC4E88819981C855D3412817390709F4A3
:1013500054C04FB7F894CA5ADC4E28813981C6551B
:10136000D341C85ADC4E88819981C855D34128178A
:10137000390709F463C0CA5ADC4EE881F981C655C1
:10138000D341F17022E533E12C0F3D1FE20FF31F33
:101390006085CA5ADC4E28813981C655D341C85A66
:1013A000DC4E88819981C855D3412817390709F443
:1013B00047C0CA5ADC4E88819981C655D3410196EF
:1013C0009370CA5ADC4E99838883C655D3414FBF68
:1013D000C65ADA4EE881F981CA55D541309739F0BD
:1013E000C45ADA4E88819981CC55D54109950F5F51
:1013F0001F4F043111050CF49CCF0E94C842DC0140
:10140000ED91FC910680F781E02D099580911602FF
:10141000882379F00E947B430E94614480911602E8
:10142000811184CF0E94094D0E94A34C00E010E07E
:10143000E0CF0E945B4B0E940E47ECCF6FEFC7CF0F
:101440000E9489AC0E94FF552AE033E0C653DA4E71
:1014500039832883CA5CD541C453DA4E9983888383
:10146000CC5CD5410E947B432AE030E040E050E074
:10147000BE0166537A4E0E94174458CF6F927F92F6
:101480008F929F92AF92BF92CF92DF92EF92FF9294
:101490000F931F93CF93DF93CDB7DEB7C554D240E0
:1014A0000FB6F894DEBF0FBECDBF3C01CA5CDD4F66
:1014B0008882C653D240C95CDD4F9882C753D24060
:1014C000C85CDD4FA882C853D240C75CDD4FB882EC
:1014D000C953D240C65CDD4FC882CA53D240C55CF6
:1014E000DD4FD882CB53D240C45CDD4FE882CC5371
:1014F000D240C35CDD4FF882CD53D240C25CDD4F99
:101500000883CE53D240C15CDD4F1883CF53D24005
:10151000C05CDD4F2883C054D240CF5BDD4F3883A1
:10152000C154D240CE5BDD4F4883C254D240CD5B24
:10153000DD4F5883C354D240CC5BDD4F6883C45425
:10154000D240CB5BDD4F7883C554D2409E012F5FE4
:101550003F4F690182E391E0D901FC011D9231976F
:10156000E9F781E090E09A83898381E0C355DF4FFA
:101570008883CD5AD040EAE6F4E011E620E030E07E
:10158000A90101C01191A5E6B0E00E943DA79B0111
:10159000AC01210F311D411D511D84E0EB37F807CF
:1015A00089F7C255DF4F288339834A835B83CE5A3C
:1015B000D040CC5CDD4F19821882C453D2400E94C7
:1015C0001FA7DE01AC5CBD4F7D018E010E541F4F85
:1015D00020E830E0AE014D545F4FBC01CE018A5C83
:1015E0009D4F0E94D891CC5CDD4F28813981C45336
:1015F000D24021153105B9F0C901CB5BDD4F0FB6E3
:10160000F894DEBF0FBECDBFDF91CF911F910F9138
:10161000FF90EF90DF90CF90BF90AF909F908F9012
:101620007F906F9008950E94D5918E010D5C1D4FA3
:1016300020E031E0AE014D5C5E4FBC01C6010E946E
:10164000D891CC5CDD4F28813981C453D24021151B
:10165000310591F6CD5CDD4F4881C353D24050E057
:10166000D301ED91FC913097A1F0BE016D5C7E4FEE
:10167000D30112968D919C9113970995CC5CDD4F07
:101680008881C453D240CB5CDD4F9881C553D24092
:10169000B4CF80E090E0B1CF2F923F924F925F9213
:1016A0006F927F928F929F92AF92BF92CF92DF9272
:1016B000EF92FF920F931F93CF93DF93CDB7DEB7D7
:1016C000A8970FB6F894DEBF0FBECDBF98A38F8F3B
:1016D0000E944D6F0E94A56E69A37AA38BA39CA361
:1016E000CB01ABA1BCA1898B9A8BAB8BBC8B0E942D
:1016F0004D6F0E94DD6E2B013C016D8B7E8B8F8BBD
:10170000988F0E944D6F0E94156F6DA37EA38FA3CB
:1017100098A7698F7A8F8B8F9C8FEF8DF8A1FD969C
:10172000C080D180E280F3800F8D18A11E0185E179
:10173000280E311CDE015D96BE8FAD8F89A19AA166
:10174000ABA1BCA1BC01CD01F80121A932A943A9DB
:1017500054A90E94D1A74B015C0120E030E0A9010F
:101760000E9436A887FD85C0C501B401A701960176
:101770000E94E1A918167CF00C5F1F4F8D8D9E8D85
:101780002816390609F457C0D1016D917D918D91CC
:101790009D911D01D9CF0E947B438091250290919C
:1017A0002602A0912702B091280289839A83AB83F5
:1017B000BC8389A19AA1ABA1BCA18D839E83AF8379
:1017C000B88749865A866B867C868DA19EA1AFA17B
:1017D000B8A58D879E87AF87B88B1F921F9289808F
:1017E0009A80AB80BC80CD80DE80EF80F884098554
:1017F0001A852B853C854D855E856F8578898F8D13
:1018000098A10E943E0A89A19AA1ABA1BCA1EF8D2B
:10181000F8A181AB92ABA3ABB4AB45AA56AA67AA19
:1018200070AE8DA19EA1AFA1B8A581AF92AFA3AFBD
:10183000B4AF0F900F90EF8DF8A1ED5BFF4F80815B
:10184000A8960FB6F894DEBF0FBECDBFDF91CF9143
:101850001F910F91FF90EF90DF90CF90BF90AF90CE
:101860009F908F907F906F905F904F903F902F90C0
:101870000895C501B401905879CFAF92BF92CF922D
:10188000DF92EF92FF920F931F93CF93DF93CDB729
:10189000DEB7CD53D2400FB6F894DEBF0FBECDBF3A
:1018A0005C01CA5CDD4F0883C653D240C95CDD4F82
:1018B0001883C753D240C85CDD4F2883C853D24039
:1018C000C75CDD4F3883C953D240C65CDD4F4883C7
:1018D000CA53D240C55CDD4F5883CB53D240C45C61
:1018E000DD4F6883CC53D240C35CDD4F7883CD534A
:1018F000D2409E012F5F3F4F690182E391E0D90101
:10190000FC011D923197E9F781E090E09A83898389
:1019100081E0C355DF4F8883CD5AD040EDE7F4E036
:1019200012E620E030E0A90101C01191A5E6B0E087
:101930000E943DA79B01AC01210F311D411D511D8E
:1019400084E0E738F80789F7C255DF4F28833983E9
:101950004A835B83CE5AD040CC5CDD4F198218821B
:10196000C453D2400E9419A7DE01AC5CBD4F7D017B
:101970008E010E541F4F20E830E0AE014D545F4FF2
:10198000BC01CE018A5C9D4F0E94D891CC5CDD4F9A
:1019900028813981C453D2402115310599F0C901FC
:1019A000C35CDD4F0FB6F894DEBF0FBECDBFDF9135
:1019B000CF911F910F91FF90EF90DF90CF90BF904C
:1019C000AF9008950E94D5918E010D5C1D4F20E0CF
:1019D00031E0AE014D5C5E4FBC01C6010E94D89162
:1019E000CC5CDD4F28813981C453D24021153105AB
:1019F000B1F6CD5CDD4F4881C353D24050E0D501F4
:101A0000ED91FC913097A1F0BE016D5C7E4FD50148
:101A100012968D919C9113970995CC5CDD4F88812E
:101A2000C453D240CB5CDD4F9881C553D240B8CF70
:101A300080E090E0B5CFCF92DF92EF92FF920F93CC
:101A40001F93CF93DF93CDB7DEB728970FB6F894E7
:101A5000DEBF0FBECDBF6C01162F0E947B434091AD
:101A60002502509126026091270270912802042FCE
:101A700049835A836B837C8392E0492F9D831E8226
:101A8000812F90E0612F98878F83E12CF12C1A81B0
:101A90002B813C8150E07885C6010E943D0C289640
:101AA0000FB6F894DEBF0FBECDBFDF91CF911F916F
:101AB0000F91FF90EF90DF90CF900895CF92DF923B
:101AC000EF92FF920F931F93CF93DF93CDB7DEB7C3
:101AD00028970FB6F894DEBF0FBECDBF6C01162F4E
:101AE0000E947B434091250250912602609127027B
:101AF00070912802042F49835A836B837C8391E081
:101B0000492F9D831E82812F90E0612F98878F83BC
:101B1000E12CF12C1A812B813C8150E07885C601A3
:101B20000E943D0C28960FB6F894DEBF0FBECDBFC5
:101B3000DF91CF911F910F91FF90EF90DF90CF90A9
:101B40000895AF92BF92CF92DF92EF92FF920F93E0
:101B50001F93CF93DF93CDB7DEB7C953D2400FB6F3
:101B6000F894DEBF0FBECDBF5C01CA5CDD4F488379
:101B700059836A837B83C653D2409E012F5F3F4FB8
:101B8000690182E391E0D901FC011D923197E9F7E7
:101B900081E090E09A83898381E0C355DF4F888399
:101BA000CD5AD040E9E8F4E013E620E030E0A901A6
:101BB00001C01191A5E6B0E00E943DA79B01AC01D8
:101BC000210F311D411D511D84E0EC39F80789F7C3
:101BD000C255DF4F288339834A835B83CE5AD04076
:101BE000CC5CDD4F19821882C453D2400E9425A7D5
:101BF000DE01AC5CBD4F7D018E010E541F4F20E80D
:101C000030E0AE014D545F4FBC01CE018A5C9D4F68
:101C10000E94D891CC5CDD4F28813981C453D240D9
:101C20002115310599F0C901C75CDD4F0FB6F89455
:101C3000DEBF0FBECDBFDF91CF911F910F91FF90FF
:101C4000EF90DF90CF90BF90AF9008950E94D59114
:101C50008E010D5C1D4F20E031E0AE014D5C5E4F0A
:101C6000BC01C6010E94D891CC5CDD4F288139812E
:101C7000C453D24021153105B1F6CD5CDD4F48810A
:101C8000C353D24050E0D501ED91FC913097A1F0C3
:101C9000BE016D5C7E4FD50112968D919C9113977C
:101CA0000995CC5CDD4F8881C453D240CB5CDD4FBD
:101CB0009881C553D240B8CF80E090E0B5CF0F9364
:101CC0001F93CF93DF9300D000D0CDB7DEB78C0148
:101CD000662309F453C00E9446880E940B710E943B
:101CE0007B4340912502509126026091270270911A
:101CF00028028091100290911102A0911202B091DD
:101D00001302481B590B6A0B7B0B443F5140610582
:101D1000710520F4F8018081811148C00E947B4345
:101D20008091250290912602A0912702B09128026D
:101D30008093100290931102A0931202B0931302A9
:101D40008CEF9EE09A8389831C830B830E947B43E4
:101D500028E037E040E050E0BE016F5F7F4F0E9417
:101D600017449093490E8093480E0F900F900F9058
:101D70000F90DF91CF911F910F9108950E94468897
:101D80000E94F4870091480E1091490E0E947B43F7
:101D9000B8010E9416430E94A56A24E630E040E0A4
:101DA00050E06CE573E40E945C6ADFCF0E947B43E5
:101DB00040912502509126026091270270912802DD
:101DC00020E030E0F801818992890E94A10DF8019C
:101DD0001082809116028111A1CF0E942B32FC014A
:101DE0008081882309F49ACF0E942B3240E05FEF74
:101DF0006FEF0E94963192CFCF93DF93EC018881F1
:101E0000811104C080E0DF91CF9108950E947B434F
:101E1000409125025091260260912702709128027C
:101E200020E030E089899A890E94A10D1882809172
:101E300016028111E7CF0E942B32FC01808188239A
:101E400009F30E942B3240E05FEF6FEF0E94963162
:101E5000D9CFCF92DF92EF92FF920F931F93CF9340
:101E6000DF93CDB7DEB728970FB6F894DEBF0FBE6D
:101E7000CDBF6C01662309F441C00E947B434091B1
:101E800025025091260260912702709128028091CC
:101E90000C0290910D02A0910E02B0910F02481B0E
:101EA000590B6A0B7B0B443F51406105710508F4E7
:101EB00055C00E947B438091250290912602A091FB
:101EC0002702B091280280930C0290930D02A093F8
:101ED0000E02B0930F020E947B43809125029091E5
:101EE0002602A0912702B091280289839A83AB83AE
:101EF000BC831E821D8281E090E012C00E947B4361
:101F00008091250290912602A0912702B09128028B
:101F100089839A83AB83BC831E821D8280E090E01C
:101F2000682F8F839887E12CF12C09811A812B81EE
:101F30003C814D815E81792FC6010E943D0C28961F
:101F40000FB6F894DEBF0FBECDBFDF91CF911F91CA
:101F50000F91FF90EF90DF90CF9008950E947B4308
:101F6000409125025091260260912702709128022B
:101F700020E030E0C6010E94A10DE0914A0EF091F0
:101F80004B0E1082809116028111D9CF0E942B3204
:101F9000FC018081882399F20E942B3240E05FEFA0
:101FA0006FEF0E949631CBCFAF92BF92CF92DF926C
:101FB000EF92FF920F931F93CF93DF93CDB7DEB7CE
:101FC000C154D2400FB6F894DEBF0FBECDBF5C0146
:101FD000CA5CDD4FC882C653D240C95CDD4FD8828F
:101FE000C753D240C85CDD4FE882C853D240C75CBB
:101FF000DD4FF882C953D240C65CDD4F0883CA5317
:10200000D240C55CDD4F1883CB53D240C45CDD4F5A
:102010002883CC53D240C35CDD4F3883CD53D240AC
:10202000C25CDD4F4883CE53D240C15CDD4F588344
:10203000CF53D240C05CDD4F6883C054D240CF5BE9
:10204000DD4F7883C154D2409E012F5F3F4F69011D
:1020500082E391E0D901FC011D923197E9F781E01B
:1020600090E09A83898381E0C355DF4F8883CD5AFE
:10207000D040EEE9F4E015E620E030E0A90101C02F
:102080001191A5E6B0E00E943DA79B01AC01210F94
:10209000311D411D511D84E0E93AF80789F7C25509
:1020A000DF4F288339834A835B83CE5AD040CC5C90
:1020B000DD4F19821882C453D2400E941CA7DE0152
:1020C000AC5CBD4F7D018E010E541F4F20E830E007
:1020D000AE014D545F4FBC01CE018A5C9D4F0E9402
:1020E000D891CC5CDD4F28813981C453D240211571
:1020F000310599F0C901CF5BDD4F0FB6F894DEBF13
:102100000FBECDBFDF91CF911F910F91FF90EF9048
:10211000DF90CF90BF90AF9008950E94D5918E012F
:102120000D5C1D4F20E031E0AE014D5C5E4FBC0107
:10213000C6010E94D891CC5CDD4F28813981C453FF
:10214000D24021153105B1F6CD5CDD4F4881C35336
:10215000D24050E0D501ED91FC913097A1F0BE0145
:102160006D5C7E4FD50112968D919C9113970995C8
:10217000CC5CDD4F8881C453D240CB5CDD4F98816D
:10218000C553D240B8CF80E090E0B5CF4F925F9278
:102190006F927F928F929F92AF92BF92CF92DF9277
:1021A000EF92FF920F931F93CF93DF93CDB7DEB7DC
:1021B0002C970FB6F894DEBF0FBECDBF4C010E9426
:1021C0005B4B62E070E00E94D144762E472E582E81
:1021D000692EF40125A536A547A550A90E94D1A7CF
:1021E0006B017C0120E030E0A9010E9436A8A70124
:1021F000960187FD57C0F40161A172A183A194A14A
:102200000E9436A887FF35C00E947B43809125023B
:1022100090912602A0912702B0912802C82E8983AE
:102220009A83AB83BC8382E0082F8D831E821F823A
:102230001886472D872D942DA52DB62D89879A8731
:10224000AB87BC87A12CB12CDA80EB80FC8010E03E
:1022500020E030E05A856B857C85C4010E94D40F54
:10226000872D942DA52DB62DF40185A796A7A7A798
:10227000B0ABF40182892C960FB6F894DEBF0FBE86
:10228000CDBFDF91CF911F910F91FF90EF90DF9025
:10229000CF90BF90AF909F908F907F906F905F9006
:1022A0004F9008955058A7CF4F925F926F927F92B0
:1022B0008F929F92AF92BF92CF92DF92EF92FF9256
:1022C0000F931F93CF93DF93CDB7DEB72C970FB645
:1022D000F894DEBF0FBECDBF4C010E945B4B61E0A6
:1022E00070E00E94D144762E472E582E692EF401BC
:1022F00021A532A543A554A50E94D1A76B017C015D
:1023000020E030E0A9010E9436A8A701960187FDD0
:1023100057C0F401658D768D878D90A10E9436A8F7
:1023200087FF35C00E947B43809125029091260251
:10233000A0912702B0912802C82E89839A83AB838B
:10234000BC8381E0082F8D831E821F821886472D53
:10235000872D942DA52DB62D89879A87AB87BC87AD
:10236000A12CB12CDA80EB80FC8010E020E030E082
:102370005A856B857C85C4010E94D40F872D942DCE
:10238000A52DB62DF40181A792A7A3A7B4A7F401A8
:1023900081892C960FB6F894DEBF0FBECDBFDF91BA
:1023A000CF911F910F91FF90EF90DF90CF90BF9052
:1023B000AF909F908F907F906F905F904F90089517
:1023C0005058A7CF4F925F926F927F928F929F92B9
:1023D000AF92BF92CF92DF92EF92FF920F931F9333
:1023E000CF93DF93CDB7DEB72C970FB6F894DEBF4F
:1023F0000FBECDBF4C010E945B4B60E070E00E94BD
:10240000D144762E472E582E692EF40125A136A1EF
:1024100047A150A50E94D1A76B017C0120E030E0CC
:10242000A9010E9436A8A701960187FD56C0F401B4
:10243000618D728D838D948D0E9436A887FF34C084
:102440000E947B438091250290912602A091270251
:10245000B0912802C82E89839A83AB83BC831D82E6
:102460001E821F821886472D872D942DA52DB62DEF
:1024700089879A87AB87BC87A12CB12CDA80EB8047
:10248000FC8000E01E812F8138855A856B857C8514
:10249000C4010E94D40F872D942DA52DB62DF401D3
:1024A00085A396A3A7A3B0A7F40180892C960FB6A5
:1024B000F894DEBF0FBECDBFDF91CF911F910F917A
:1024C000FF90EF90DF90CF90BF90AF909F908F9054
:1024D0007F906F905F904F9008955058A8CFAF9223
:1024E000BF92CF92DF92EF92FF920F931F93CF9301
:1024F000DF93CDB7DEB7CF53D2400FB6F894DEBF2F
:102500000FBECDBF5C01CA5CDD4FE882C653D2402E
:10251000C95CDD4FF882C753D240C85CDD4F0883E9
:10252000C853D240C75CDD4F1883C953D240C65C44
:10253000DD4F2883CA53D240C55CDD4F3883CB536F
:10254000D240C45CDD4F4883CC53D240C35CDD4FE6
:102550005883CD53D240C25CDD4F6883CE53D24006
:10256000C15CDD4F7883CF53D2409E012F5F3F4F38
:10257000690182E391E0D901FC011D923197E9F7ED
:1025800081E090E09A83898381E0C355DF4F88839F
:10259000CD5AD040EBEAF4E01AE620E030E0A901A1
:1025A00001C01191A5E6B0E00E943DA79B01AC01DE
:1025B000210F311D411D511D84E0E43BF80789F7CF
:1025C000C255DF4F288339834A835B83CE5AD0407C
:1025D000CC5CDD4F19821882C453D2400E9422A7DE
:1025E000DE01AC5CBD4F7D018E010E541F4F20E813
:1025F00030E0AE014D545F4FBC01CE018A5C9D4F6F
:102600000E94D891CC5CDD4F28813981C453D240DF
:102610002115310599F0C901C15CDD4F0FB6F89461
:10262000DEBF0FBECDBFDF91CF911F910F91FF9005
:10263000EF90DF90CF90BF90AF9008950E94D5911A
:102640008E010D5C1D4F20E031E0AE014D5C5E4F10
:10265000BC01C6010E94D891CC5CDD4F2881398134
:10266000C453D24021153105B1F6CD5CDD4F488110
:10267000C353D24050E0D501ED91FC913097A1F0C9
:10268000BE016D5C7E4FD50112968D919C91139782
:102690000995CC5CDD4F8881C453D240CB5CDD4FC3
:1026A0009881C553D240B8CF80E090E0B5CFAF92CB
:1026B000BF92CF92DF92EF92FF920F931F93CF932F
:1026C000DF93CDB7DEB72C970FB6F894DEBF0FBE01
:1026D000CDBF5C018B014B875C870E947B4380915F
:1026E000250290912602A0912702B0912802E82E9F
:1026F00089839A83AB83BC83222717FD2095322FD1
:10270000802F0D831E832F8338874B85642F498745
:102710005C855A87C12CD12CFA800B811C81282F13
:102720003E814F8158857A85C5010E946F122C9693
:102730000FB6F894DEBF0FBECDBFDF91CF911F91D2
:102740000F91FF90EF90DF90CF90BF90AF900895E2
:102750002F923F924F925F926F927F928F929F92B1
:10276000AF92BF92CF92DF92EF92FF920F931F939F
:10277000CF93DF93CDB7DEB7C15FD5400FB6F894E6
:10278000DEBF0FBECDBF5C014B012701160124380F
:1027900060EA360762EC460763E6560711F40C94CC
:1027A000361F08F476C0253EA5EA3A07A9EE4A0787
:1027B000ABEB5A0709F400C408F0D5C02B3FE3E4A3
:1027C0003E07E9E84E07E5E85E0711F40C94A41F04
:1027D00008F024C22B3868EC360764E146076CE643
:1027E000560711F40C940C2010F40C94B71C243AE6
:1027F0009AE1390791EB49079CE6590709F456C459
:10280000263F3548434E5C4611F00C94AC1ED8016F
:10281000CD907D01D12C0E9447A681019601A70190
:10282000BC01C5010E942292F10180819181892B16
:1028300009F07CC30E94D06860E070E00E949B6851
:10284000AA2797FDA095BA2F8A839B83AC83BD836B
:102850000E94D06861E070E00E949B68AA2797FD03
:10286000A095BA2F8E839F83A887B9870E94D068CE
:1028700062E070E00E949B68AA2797FDA095BA2F9E
:102880008A879B87AC87BD8783E089830E94BFA628
:10289000B8C1243D8DE6380788E848078AE3580721
:1028A00011F40C94732108F0E7C02938AAE03A0724
:1028B000A1E44A07ABE15A0711F40C94BD2108F0DA
:1028C00093C22631E9E23E07E2E24E07E7E05E0707
:1028D00011F40C946F2008F446C525317DED3707BF
:1028E00076ED47077BE0570709F4C6C3293D3C4016
:1028F000424B5F4011F00C94AC1ED801CD907D018D
:10290000D12C0E9456A681019601A701BC01C501E8
:102910000E942292F10180819181892B09F006C3E6
:102920000E94D06860E070E00E9433686A837B8315
:102930008C839D830E94D06861E070E00E943368C0
:102940006E837F83888799870E94D06862E070E0F9
:102950000E9433686A877B878C879D8783E08983A1
:102960000E94CEA64EC1203880E1380787E948078B
:102970008EED580711F40C94102108F408C1243B83
:1029800071E2370777EE4707570711F40C94782266
:1029900008F0A9C2243995EC39079DEF49079FED4E
:1029A000590709F4DBC325393348474C524E11F01F
:1029B0000C94AC1EF801C1907F01D12C0E946EA630
:1029C00081019601A701BC01C5010E942292D1019B
:1029D0008D919C91892B09F0A9C23201BFEF6B1A2E
:1029E0007B0A85E8F501DE01A75EBD4F01900D92DF
:1029F0008A95E1F7F501C080D180E280F380A12CB7
:102A0000B12C00E010E088248394912CC454DA4F58
:102A100079826882CC5BD540C054DA4F59824882B3
:102A2000C05CD540C401002E02C0880F991F0A94D3
:102A3000E2F7AA2797FDA095BA2F8C219D21AE2100
:102A4000BF21892B8A2B8B2B11F00C9433240F5F21
:102A50001F4F0330110531F7C454DA4F6880798075
:102A6000CC5BD540C054DA4F48805980C05CD5401B
:102A700019820E94E6A6ADC1283E60EF360768ECD9
:102A8000460761E5560711F40C94472208F018C177
:102A9000263C88E2380780EF480781E4580711F4A4
:102AA0000C94D82010F40C94D81D2F34B3EE3B07AF
:102AB000B1EE4B07B2E45B0709F4C4C3273D3F47BF
:102AC0004A43574411F00C94AC1EF801C1907F01A9
:102AD000D12C0E9474A681019601A701BC01C501F9
:102AE0000E942292D1018D919C91892B09F01EC2E6
:102AF0003201BFEF6B1A7B0A85E8F501DE01A15FA9
:102B0000BE4F01900D928A95E1F7F501C080D1800A
:102B1000E280F380A12CB12C00E010E088248394A3
:102B2000912CC454DA4F79826882CC5BD540C05472
:102B3000DA4F59824882C05CD540C401002E02C0E1
:102B4000880F991F0A94E2F7AA2797FDA095BA2F3C
:102B50008C219D21AE21BF21892B8A2B8B2B11F03B
:102B60000C94E6230F5F1F4F0330110531F7C45457
:102B7000DA4F68807980CC5BD540C054DA4F48800A
:102B80005980C05CD54019820E94ECA622C128352C
:102B9000A5ED3A07A3E84A07ADEB5A0711F40C94E8
:102BA000A22008F453C72135F4E03F07FBE84F07A4
:102BB000F6EC5F0709F418C3233034414C4A5D4DED
:102BC00011F00C94AC1ED801CD907D01D12C0E9447
:102BD00086A681019601A701BC01C5010E9422922F
:102BE000F10180819181892B09F0A0C18CE0EDE495
:102BF000F4E0DE01119601900D928A95E1F70E94B2
:102C0000FEA6A2014F5F5F4F7101820120E830E014
:102C1000BC01CE0101960E94D89188C12F3DB7EA30
:102C20003B07BAE04B07B6E95B0711F40C94091FA8
:102C300008F482C7213369E7360768E4460768EA83
:102C4000560709F441C32F36354B4849504B11F014
:102C50000C94AC1ED801CD907D01D12C0E9459A6B8
:102C600081019601A701BC01C5010E942292F101D8
:102C700080819181892B09F059C10E94D06860E060
:102C800070E00E9457686A837B838C839D830E94D7
:102C9000D06861E070E00E9457686E837F83888708
:102CA00099870E94D06862E070E00E9457686A8746
:102CB0007B878C879D8783E089830E94D1A6A1CFE3
:102CC0002F31FEE83F07FFEB4F07FAE55F0711F4EE
:102CD0000C94B21E08F4DFC7283180E9380789E96F
:102CE000480783E6580709F41DC32138304A424C8F
:102CF000534611F00C94AC1EF801C1907F01D12C09
:102D00000E9468A681019601A701BC01C5010E942D
:102D10002292D1018D919C91892B09F007C132013A
:102D2000BFEF6B1A7B0AFE01ED5DFC4FC054DA4F1A
:102D3000F983E883C05CD54085E8F501C054DA4FDB
:102D4000A881B981C05CD54001900D928A95E1F7C8
:102D5000D501CD90DD90ED90FC90A12CB12C00E040
:102D600010E088248394912CC454DA4F79826882CD
:102D7000CC5BD540CC53DA4F59824882C45CD540F5
:102D8000C401002E02C0880F991F0A94E2F7AA27F7
:102D900097FDA095BA2F8C219D21AE21BF21892BB3
:102DA0008A2B8B2B11F00C9465230F5F1F4F033080
:102DB000110531F7C454DA4F68807980CC5BD54077
:102DC000CC53DA4F48805980C45CD54019820E94A8
:102DD000E0A67101820120E830E0A301BC01CE0130
:102DE00001960E94D891A2C0211591EC390794EF69
:102DF000490791E2590711F40C94DE1F08F462C6EA
:102E0000213BECE33E07E1EF4E07E1E35E0709F407
:102E1000A7C0253D3B414744524309F09DC7D80117
:102E2000CD907D01D12C0E943EA681019601A70183
:102E3000BC01C5010E942292F10180819181892B00
:102E400009F074C06201FFEFCF1ADF0AD5018C913F
:102E500081110C946126D40114968D919C91159743
:102E60009A83898316968D919C9117979C838B8367
:102E70000E94094DFE0131965F01AF0160E070E0F4
:102E80000E94734CD40118968D919C9119979A8346
:102E900089831A968D919C911B979C838B830E94AA
:102EA000094DA50161E070E00E94734CF401848536
:102EB00095859A838983868597859C838B830E94D9
:102EC000094DA50162E070E00E94734C19820E94D6
:102ED000B6A67101820120E830E0A601BC01C5015F
:102EE0000E94D89123C0283FBFE23B07BAEE4B07B0
:102EF000B8EE5B0709F496C0283A3747464B5D4F5A
:102F000009F02AC7F801C1907F01D12C0E947AA64E
:102F100081019601A701BC01C5010E942292D10145
:102F20008D919C91892B11F40C94D522CF50DA4FBE
:102F30000FB6F894DEBF0FBECDBFDF91CF911F91CA
:102F40000F91FF90EF90DF90CF90BF90AF909F9048
:102F50008F907F906F905F904F903F902F9008954B
:102F6000D801CD907D01D12C0E9444A6810196010B
:102F7000A701BC01C5010E942292F10180819181CB
:102F8000892BA1F66201FFEFCF1ADF0AD5018C91E0
:102F900081110C9451261A8219821C821B820E9474
:102FA000FF559E012F5F3F4F5901B9010E94865284
:102FB00019820E94BCA68DCFD801CD907D01D12C65
:102FC0000E9450A681019601A701BC01C5010E9483
:102FD0002292F10180819181892B09F0A7CF0E9473
:102FE000D06860E070E00E940F686A837B838C8306
:102FF0009D830E94D06861E070E00E940F686E833C
:103000007F83888799870E94D06862E070E00E9481
:103010000F686A877B878C879D8783E089830E94FE
:10302000C8A6EFCDD801CD907D01D12C0E9495A6E8
:1030300081019601A701BC01C5010E942292F10104
:1030400080819181892B09F071CFD5011496FC9074
:1030500014971596EC9015970D911C910E94793359
:103060002F2D3E2DAE014E5F5F4FB8010E944532BD
:10307000F9820E940DA7C5CDD801CD907D01D12C3C
:103080000E9483A681019601A701BC01C5010E948F
:103090002292F10180819181892B09F047CF198219
:1030A0001A821B821C820E94FBA6ABCDD801CD9058
:1030B0007D01D12C0E9480A681019601A701BC014F
:1030C000C5010E942292F10180819181892B09F032
:1030D0002DCF6201FFEFCF1ADF0A0E947B43809160
:1030E000250290912602A0912702B091280289839F
:1030F0009A83AB83BC833E0126E0620E711C00E024
:1031000010E088248394912C44E0A42EB12C52E04A
:10311000E52EF12C0E94FF55B8010E94C952813062
:10312000910511F40C94702514F40C94032382304F
:10313000910511F40C946B25039719F4F301B182F6
:10314000A0820F5F1F4FF2E06F0E711C033011055C
:1031500009F783E08D830E94F8A6ABC0F801C19007
:103160007F01D12C0E9432A681019601A701BC01EA
:10317000C5010E942292D1018D919C91892B09F069
:10318000D5CEF501C080D180E280F380A70166270B
:1031900077278D2C9E2CAF2CBB24C651DA4F488349
:1031A000CA5ED540C551DA4F5883CB5ED540C45175
:1031B000DA4F6883CC5ED540C751DA4F7883C95E59
:1031C000D5400E942B32C651DA4F4881CA5ED540A5
:1031D000582D6C2D0E9496310E942B32DC011C92DE
:1031E00019820E94AAA60DCDF801C1907F01D12CB1
:1031F0000E9477A681019601A701BC01C5010E942A
:103200002292D1018D919C91892B09F08FCE0E9441
:10321000744E0E94410260E070E00E941B0226E6AC
:1032200036E646E850E40E94E5A920E030E040ECB4
:103230005FE30E943AA869837A838B839C830E9410
:10324000EFA6DFCCF801C1907F01D12C0E948CA6A3
:1032500081019601A701BC01C5010E942292D10102
:103260008D919C91892B09F061CE6201BFEFCB1A41
:10327000DB0A0E945B4B7C0100E010E00E94FF55DE
:10328000B8010E9480520E94FF5540E050E0B80112
:103290000E941E520F5F1F4F0330110579F7F7018F
:1032A000BD9686E0DF011D928A95E9F719820E949A
:1032B00004A77101820120E830E0A601BC01CE0123
:1032C00001960E94D89132CED801CD907D01D12CAB
:1032D0000E9429A681019601A701BC01C5010E9497
:1032E0002292F10180819181892B09F01FCE0E94E9
:1032F0004D6F0E94A56E69837A838B839C830E94A5
:103300004D6F0E94DD6E6D837E838F8398870E9450
:103310004D6F0E94156F69877A878B879C870E9403
:10332000A1A66FCCF801C1907F01D12C0E9435A6D7
:1033300081019601A701BC01C5010E942292D10121
:103340008D919C91892B09F0F1CD0E94A56AFC0119
:1033500081819281A381B48189839A83AB83BC8369
:103360000E94ADA64ECC233E3041434C564009F05E
:10337000F3C4D801CD907D01D12C0E9489A6810192
:103380009601A701BC01C5010E942292F101808132
:103390009181892B09F0CACD92012F5F3F4FC9520D
:1033A000DA4F39832883C75DD540D50111960D903A
:1033B000BC91A02DC051DA4FB983A883C05FD5401E
:1033C000D50113966D907D908D909C901697C35368
:1033D000DA4F688279828A829B82CD5CD5401796CB
:1033E000BC91C553DA4FB883CB5CD540F50100845E
:1033F000F185E02DC951DA4FF983E883C75ED540E6
:10340000D5011A96BC91CA51DA4FB883C65ED54031
:10341000F5014385548565857685F785C653DA4F72
:10342000F883CA5CD540D50150960D90BC91A02D73
:10343000C152DA4FB983A883CF5DD540F501F28937
:10344000C252DA4FF883CE5DD540D50153960D9028
:10345000BC91A02DCA53DA4FB983A883C65CD5406E
:10346000F501C588D688E788F08CF18DC552DA4F12
:10347000F883CB5DD540D5015A960D90BC91A02D17
:10348000C452DA4FB983A883CC5DD540F501F48DE1
:10349000C853DA4FF883C85CD540F501858D968D09
:1034A000A78DB0A1F1A1CD52DA4FF883C35DD5400D
:1034B000F50102A0F3A1E02DC752DA4FF983E883AA
:1034C000C95DD540F501F4A1C251DA4FF883CE5E53
:1034D000D540F50105A0F6A1E02DCC53DA4FF983D4
:1034E000E883C45CD540F50107A110A521A532A54C
:1034F000F3A5CB51DA4FF883C55ED540F50104A49E
:10350000F5A5E02DC054DA4FF983E883C05CD540BF
:10351000F501F6A5C454DA4FF883CC5BD540F5012C
:1035200067A470A881A892A8CF51DA4F68827982E7
:103530008A829B82C15ED540F3A9CF52DA4FF883CD
:10354000C15DD540F50164A875A8F081C151DA4F7D
:10355000F883CF5ED540C35DDB4FF883CD52D440B6
:10356000C252DA4F8880CE5DD540C25DDB4F888283
:10357000CE52D440C251DA4F9880CE5ED540C15D64
:10358000DB4F9882CF52D440C051DA4FA880B98027
:10359000C05FD540C75EDD4FB982A882C951D24015
:1035A000CA53DA4FE881F981C65CD540C55EDD4F6C
:1035B000F983E883CB51D240CC53DA4F888099808D
:1035C000C45CD540C35EDD4F99828882CD51D24024
:1035D000C353DA4F88809980AA80BB80CD5CD540E8
:1035E000C657DF4F88829982AA82BB82CA58D040D0
:1035F000C257DF4FC882D982EA82FB82CE58D040C0
:10360000CE56DF4F088319832A833B83C259D040AB
:103610009E0128553C4FCC53DA4F39832883C45C34
:10362000D540C553DA4F8880CB5CD540F901808204
:10363000C552DA4F9880CB5DD5409182CB51DA4F9D
:10364000A880C55ED540A282C951DA4F2881398150
:10365000C75ED540CC56DE4F39832883C459D1404C
:10366000C452DA4FE881F981CC5DD540CA56DE4FAD
:10367000F983E883C659D140C054DA4F88809980D5
:10368000C05CD540C856DE4F99828882C859D14067
:103690009E012D5D3C4FC054DA4F39832883C05CB6
:1036A000D540CA51DA4F8880C65ED540F901808284
:1036B000C853DA4F9880C85CD5409182C454DA4F21
:1036C000A880CC5BD540A28249835A836B837C83DC
:1036D0008D839E83AF83B887CF51DA4F288139819C
:1036E0004A815B81C15ED54029873A874B875C87D9
:1036F000AE0142565D4FC454DA4F59834883CC5BC8
:10370000D540C653DA4FE881CA5CD540DA01EC9364
:10371000CD52DA4FF881C35DD5401196FC931197D5
:10372000CF52DA4F8880C15DD54012968C92C1523B
:10373000DA4FA880B980CF5DD540C15FDE4FB98236
:10374000A882CF50D140C752DA4F28813981C95D54
:10375000D540CF5EDE4F39832883C151D140CD5E45
:10376000DE4F79826882C351D1404DE254E04C0F64
:103770005D1F4F5F5F4FC853DA4F59834883C85C62
:10378000D540BE01615F7E4FCA53DA4F79836883AB
:10379000C65CD540CE0101965C018E01075E1D4FCF
:1037A000DE01A657BF4F6D01FE01EC56FE4F4F01E3
:1037B000612C712CC151DA4FE881CF5ED540C553E1
:1037C000DA4F59824882CB5CD5402B01C353DA4F84
:1037D00039822882CD5CD5401801CF52DA4F9983C7
:1037E0008883C15DD540EE2309F49AC0CC53DA4FEB
:1037F000E881F981C45CD540E60DF71D80818823FE
:1038000011F40C946425D4018D919C91C054DA4F2D
:10381000E881F981C05CD540E60DF71D2081CA53CF
:10382000DA4F2883C65CD540211106C0D5011D9210
:103830001D921D921C921397C454DA4FE881F981AE
:10384000CC5BD540E60DF71DB081C653DA4FB88387
:10385000CA5CD540B11105C021E030E0F2013183EE
:1038600020838230910511F40C94E72614F40C9413
:103870009F258330910511F40C948D26049709F04F
:1038800047C0D5012D913D914D915C91CD52DA4FBC
:10389000288339834A835B83C35DD540F601208149
:1038A000318142815381C351DA4F2883CD5ED540A7
:1038B000C751DA4F3883C95ED540C651DA4F4883C5
:1038C000CA5ED540C551DA4F5883CB5ED5400E94C1
:1038D000FF55CD52DA4FE880F9800A811B81C35D24
:1038E000D540C351DA4F2881CD5ED540C751DA4F5C
:1038F0003881C95ED540C651DA4F4881CA5ED5408D
:10390000C551DA4F5881CB5ED540B3010E94A15515
:10391000CA53DA4FF881C65CD540F1110C94E62504
:10392000BFEF6B1A7B0AE2E04E0E511CF4E0AF0EC3
:10393000B11C22E0220E311C34E0C30ED11C42E047
:10394000840E911C53E06516710409F409C6C8532E
:10395000DA4FA881B981C85CD540ED91C853DA4FE0
:10396000B983A883C85CD540EE23D1F23FCF223083
:103970003041474D544609F0EFC1D801CD907D014B
:10398000D12C0E945FA681019601A701BC01C5014F
:103990000E942292F10180819181892B09F0C6CA8F
:1039A00092012F5F3F4FC454DA4F39832883CC5B99
:1039B000D54085E8F501DE01AE54BB4F01900D9274
:1039C0008A95E1F7D5018D909D90AD90BC90C12C6A
:1039D000D12C00E010E0EE24E394F12CC054DA4F37
:1039E00059824882C05CD540C701002E02C0880FB2
:1039F000991F0A94E2F7AA2797FDA095BA2F88216C
:103A00009921AA21BB21892B8A2B8B2B09F0AAC6CD
:103A10000F5F1F4F0330110539F7C054DA4F48804C
:103A20005980C05CD54019820E94D7A671018201DD
:103A300020E830E0C454DA4F48815981CC5BD5404E
:103A4000BC01CE0101960E94D89170CA283E354A29
:103A5000494E5B4B09F080C1D801CD907D01D12C3E
:103A60000E944DA681019601A701BC01C5010E94DB
:103A70002292F10180819181892B09F057CA0E941D
:103A8000D06860E070E00E94EB676A837B838C8380
:103A90009D830E94D06861E070E00E94EB676E83B6
:103AA0007F83888799870E94D06862E070E00E94D7
:103AB000EB676A877B878C879D8783E089830E9479
:103AC000C5A69FC82A3E3A4E4543504209F044C11C
:103AD000D801CD907D01D12C0E942CA681019601A8
:103AE000A701BC01C5010E942292F1018081918150
:103AF000892B09F01BCA6201FFEFCF1ADF0A7E0192
:103B000022E0E20EF11C00E010E00E944102B80148
:103B10000E940D02A0E0B0E0F70181939193A19380
:103B2000B1937F010F5F1F4F0830110571F788E0D7
:103B300089830E94A4A6BDCB2B3B3C464E4B5B48E1
:103B400009F00AC1D801CD907D01D12C0E945CA65C
:103B500081019601A701BC01C5010E942292F101D9
:103B600080819181892B09F0E1C90E94D06860E0D1
:103B700070E00E947B686A837B838C839D830E94B4
:103B8000D06861E070E00E947B686E837F838887E5
:103B900099870E94D06862E070E00E947B686A8723
:103BA0007B878C879D8783E089830E94D4A629C860
:103BB0002233394B4041514409F0CEC0F801C19045
:103BC0007F01D12C0E946BA681019601A701BC0147
:103BD000C5010E942292D1018D919C91892B09F0FF
:103BE000A5C93201BFEF6B1A7B0AFE01E256FD4FF9
:103BF000C454DA4FF983E883CC5BD54085E8F501FE
:103C0000C454DA4FA881B981CC5BD54001900D92A4
:103C10008A95E1F7D501CD90DD90ED90FC90A12C37
:103C2000B12C00E010E088248394912CC054DA4F2A
:103C300079826882C05CD540CC53DA4F5982488281
:103C4000C45CD540C401002E02C0880F991F0A949D
:103C5000E2F7AA2797FDA095BA2F8C219D21AE21CE
:103C6000BF21892B8A2B8B2B09F0E3C40F5F1F4FD9
:103C70000330110539F7C054DA4F68807980C05C91
:103C8000D540CC53DA4F48805980C45CD540198266
:103C90000E94E3A69EC82F37344D4642534509F093
:103CA0005BC0D801CD907D01D12C0E949EA68101E0
:103CB0009601A701BC01C5010E942292F1018081F9
:103CC0009181892B09F032C94201FFEF8F1A9F0AB7
:103CD00089E8F501DE01119601900D928A95E1F7D0
:103CE0009E0126573F4F690159013FEFA31AB30ABE
:103CF000ED8029856981C351DA4F2883CD5ED54097
:103D0000C451DA4F6883CC5ED5400E940C6E8501A9
:103D1000C351DA4F2881CD5ED540AE01465F5F4F7B
:103D2000C451DA4F6881CC5ED5400E94BB6D892BAF
:103D3000F9F60E940C6E0E94F86D8D81D6018C936D
:103D40000E9416A77101820120E830E0A401BC01A5
:103D5000C6010E94D891EAC884E090E0F101918305
:103D60008083E4C8F801C1907F01D12C0E9498A6FD
:103D700081019601A701BC01C5010E942292D101D7
:103D80008D919C91892B09F0D1C84201BFEF8B1A0C
:103D90009B0A6E01EAE8CE0ED11C85E8F501D6013A
:103DA00001900D928A95E1F786010B5F1F4FD601B6
:103DB00014962C9114976C91C351DA4F2883CD5EE1
:103DC000D540C451DA4F6883CC5ED5400E940C6E5A
:103DD000C351DA4F2881CD5ED540A801C451DA4FD6
:103DE0006881CC5ED5400E946F6D892B01F70E94DF
:103DF0000C6E0E94F86D19820E9410A77101820159
:103E000020E830E0A401BC01CE0101960E94D891C7
:103E10008DC8F801C1907F01D12C0E947DA681013F
:103E20009601A701BC01C5010E942292D1018D918A
:103E30009C91892B09F07AC86201BFEFCB1ADB0A8B
:103E40000E94744EFC018185928503978330910511
:103E500008F024C7FC01EE0FFF1FE753FB4F8081E2
:103E600091819A8389830E94F5A623CAF801C190A3
:103E70007F01D12C0E9465A681019601A701BC019A
:103E8000C5010E942292D1018D919C91892B09F04C
:103E90004DC83201BFEF6B1A7B0AFE01E855FC4F9B
:103EA000CC53DA4FF983E883C45CD54085E8F5014B
:103EB000CC53DA4FA881B981C45CD54001900D92F2
:103EC0008A95E1F7D501CD90DD90ED90FC90A12C85
:103ED000B12C00E010E088248394912CC454DA4F74
:103EE00079826882CC5BD540C054DA4F59824882CF
:103EF000C05CD540C401002E02C0880F991F0A94EF
:103F0000E2F7AA2797FDA095BA2F8C219D21AE211B
:103F1000BF21892B8A2B8B2B09F0F2C40F5F1F4F17
:103F20000330110539F7C454DA4F68807980CC5BCF
:103F3000D540C054DA4F48805980C05CD5401982C2
:103F40000E94DDA60C94E916D801CD907D01D12CFC
:103F50000E9492A681019601A701BC01C5010E94A1
:103F60002292F10180819181892B11F00C94961796
:103F700085E8F501DE01A95CBA4F01900D928A95A2
:103F8000E1F7C55CDA4FE880CB53D540F12CC95C32
:103F9000DA4F08811981C753D5400E94793347E32E
:103FA00055E04C0F5D1F4B5F5F4F9701B8010E94BA
:103FB0001B3319820E940AA70C940116F801C190C4
:103FC0007F01D12C0E949BA681019601A701BC0113
:103FD000C5010E942292D1018D919C91892B11F0F3
:103FE0000C9496176201BFEFCB1ADB0AF50114811E
:103FF00000810E940C6E212FAE014E5F5F4F602F3B
:104000000E94926D892BA9F70E940C6E0E94F86D98
:1040100019830E9413A74DC9F801C1907F01D12CCB
:104020000E9471A681019601A701BC01C5010E94F1
:104030002292D1018D919C91892B11F00C949617AD
:104040003201BFEF6B1A7B0A85E8F501DE01AC5641
:10405000BE4F01900D928A95E1F7F501C080D180A5
:10406000E280F380A12CB12C00E010E0882483943E
:10407000912CC454DA4F79826882CC5BD540C0540D
:10408000DA4F59824882C05CD540C401002E02C07C
:10409000880F991F0A94E2F7AA2797FDA095BA2FD7
:1040A0008C219D21AE21BF21892B8A2B8B2B09F0DE
:1040B000BFC40F5F1F4F0330110539F7C454DA4FE7
:1040C00068807980CC5BD540C054DA4F48805980F5
:1040D000C05CD54019820E94E9A60C94E916F8014B
:1040E000C1907F01D12C0E948FA681019601A7016A
:1040F000BC01C5010E942292D1018D919C91892B16
:1041000011F00C9496176201BFEFCB1ADB0AF50190
:10411000E1808081882309F4E8C4F12C00E010E0FC
:10412000C701002E02C0959587950A94E2F780FD9D
:1041300073C20F5F1F4F0330110591F719820E9460
:1041400007A7B7C8F801C1907F01D12C0E943BA6F8
:1041500081019601A701BC01C5010E942292D101F3
:104160008D919C91892B11F00C9496176201BFEFF1
:10417000CB1ADB0AF50181819281A381B481208170
:10418000F401211169C5EF5BFF4F008111810E948D
:104190007B43B8010E941643F401ED5BFF4F108290
:1041A000CE0101965C0119820E94B3A60C94691796
:1041B000D801CD907D01D12C0E9453A6810196019A
:1041C000A701BC01C5010E942292F1018081918169
:1041D000892B11F00C9496170E94D06860E070E073
:1041E0000E94C8676A837B838C839D830E94D0680A
:1041F00061E070E00E94C8676E837F83888799873B
:104200000E94D06862E070E00E94C8676A877B877E
:104210008C879D8783E089830E94CBA60C9401162E
:10422000F801C1907F01D12C0E9462A68101960104
:10423000A701BC01C5010E942292D1018D919C91E0
:10424000892B11F00C9496173201BFEF6B1A7B0A81
:1042500085E8F501DE01A35DBB4F01900D928A95C3
:10426000E1F7F501C080D180E280F380A12CB12C70
:1042700000E010E088248394912CC454DA4F7982B2
:104280006882CC5BD540C054DA4F59824882C05C0A
:10429000D540C401002E02C0880F991F0A94E2F78E
:1042A000AA2797FDA095BA2F8C219D21AE21BF2171
:1042B000892B8A2B8B2B09F06FC30F5F1F4F0330A5
:1042C000110539F7C454DA4F68807980CC5BD5404A
:1042D000C054DA4F48805980C05CD54019820E9492
:1042E000DAA60C94E916D801CD907D01D12C0E945C
:1042F00038A681019601A701BC01C5010E94229246
:10430000F10180819181892B11F00C949617D501D0
:104310004D915D916D917C91C651DA4F4883CA5E93
:10432000D540C551DA4F5883CB5ED540C451DA4FE2
:104330006883CC5ED540C751DA4F7883C95ED540DB
:104340000E94A56AC651DA4F4881CA5ED540C55160
:10435000DA4F5881CB5ED540C451DA4F6881CC5ECC
:10436000D540C751DA4F7881C95ED5400E940A6AAC
:1043700019820E94B0A60C940116D801CD907D013F
:10438000D12C0E9441A681019601A701BC01C50163
:104390000E942292F10180819181892B11F00C946D
:1043A00096176201FFEFCF1ADF0AD50111963C91F3
:1043B000119712968D919D910D90BC91A02DF501B4
:1043C0000681E7804085518562857385C054DA4F48
:1043D000488359836A837B83C05CD5401485F58408
:1043E0004685578560897189C454DA4F488359835B
:1043F0006A837B83CC5BD540208121117AC39E01E7
:104400002F5F3F4F5901002369F1D401EE2009F4D9
:1044100021C599961D921D921D921C929C97C05485
:10442000DA4F288139814A815B81C05CD5405D9635
:104430002D933D934D935C93909781E051968C938F
:1044400084E591E19A8389839C828B820E947B43DD
:1044500024E630E040E050E0B5010E941744F4014A
:10446000968B858B112371F0D401F1100DC55796F1
:104470000D911C9158970E947B43B8010E941643EE
:10448000F401128A19820E94B9A60C946917D80106
:10449000CD907D01D12C0E942FA681019601A7010C
:1044A000BC01C5010E942292F10180819181892B7A
:1044B00011F00C9496170E942B32DC0111962C916E
:1044C000119712963C91129713964C91832F90E07E
:1044D000A0E0B0E0BA2FA92F982F8827A22B842B19
:1044E00089839A83AB83BC830E94A7A60C94011690
:1044F000D801CD907D01D12C0E944AA68101960160
:10450000A701BC01C5010E942292F1018081918125
:10451000892B11F00C9496170E94D06860E070E02F
:104520000E94BB686A837B838C839D830E94D068D2
:1045300061E070E00E94BB686E837F838887998703
:104540000E94D06862E070E00E94BB686A877B8747
:104550008C879D8783E089830E94C2A60C940116F4
:10456000C553DA4F48805980CB5CD540C353DA4FEE
:1045700028803980CD5CD540CF52DA4FA880B980F1
:10458000C15DD54019820E9401A77101820120E816
:1045900030E0C952DA4F48815981C75DD540BC012E
:1045A000C5010E94D8910C9496176201BFEFCB1AF7
:1045B000DB0A0E947B438091250290912602A09104
:1045C0002702B091280289839A83AB83BC837E0142
:1045D000E6E0EE0EF11C00E010E00E945B4BB8013B
:1045E0000E94D144D7016D937D938D939D937D015E
:1045F0000F5F1F4F0330110581F783E08D830E9409
:10460000F2A60C945919892B11F00C94A118D3011E
:10461000ED92FC920C94A1180E94FF55B8010E94E3
:1046200080520E94FF5540E050E0B8010E941E52A7
:1046300080CDF501EE0FFF1FEE0FFF1FC454DA4FC0
:1046400068807980CC5BD540E60DF71D45805680AB
:10465000678070840E94D068A3019201B8010E9413
:10466000B9670E94FF559801220F331F820F931FD5
:10467000DC018D919C91892B21F1C351DA4F288364
:10468000CD5ED540C751DA4F3883C95ED5400E9410
:10469000FF55C351DA4F2881CD5ED540C751DA4F5F
:1046A0003881C95ED540820F931FFC0180819181C2
:1046B000DC01ED91FC910484F585E02DB301A201AC
:1046C0000995BFEFAB1ABB0AD1CAF501EE0FFF1F68
:1046D000EE0FFF1FC054DA4F68807980C05CD54070
:1046E000E60DF71D45805680678070840E94D06873
:1046F000A3019201B8010E94FF670E94FF55980133
:10470000220F331F820F931FDC018D919C91892B07
:1047100021F1C351DA4F2883CD5ED540C751DA4F1E
:104720003883C95ED5400E94FF55C351DA4F2881B6
:10473000CD5ED540C751DA4F3881C95ED540820F72
:10474000931FFC0180819181DC01ED91FC91008837
:10475000F189E02DB301A2010995BFEFAB1ABB0AA5
:104760000C94D516F601EE0FFF1FEE0FFF1F72EB34
:10477000672E74E0772E6C0E7D1EE60DF71D4580CA
:1047800056800E94D068A201B8010E948F680E94E2
:10479000FF553801660C771C860D971DDC018D9145
:1047A0009C91892B79F00E94FF55860D971DFC0185
:1047B00080819181DC01ED91FC91008CF18DE02DE7
:1047C000B2010995BFEFCB1ADB0A22C9F501EE0F42
:1047D000FF1FEE0FFF1FAFE06A2E772473946C0E5D
:1047E0007D1EE60DF71D45805680678070840E940F
:1047F000D068A3019201B8010E946B680E94FF5526
:104800009801220F331F820F931FDC018D919C9121
:10481000892B21F1C351DA4F2883CD5ED540C75192
:10482000DA4F3883C95ED5400E94FF55C351DA4F35
:104830002881CD5ED540C751DA4F3881C95ED54059
:10484000820F931FFC0180819181DC01ED91FC912D
:104850000688F789E02DB301A2010995BFEFAB1AD5
:10486000BB0A0C94B215F501EE0FFF1FEE0FFF1FF0
:1048700079E1672E72E0772E6C0E7D1EE60DF71D36
:1048800045805680678070840E94D068A3019201A1
:10489000B8010E9423680E94FF559801220F331F20
:1048A000820F931FDC018D919C91892B21F1C351C3
:1048B000DA4F2883CD5ED540C751DA4F3883C95EC1
:1048C000D5400E94FF55C351DA4F2881CD5ED540B7
:1048D000C751DA4F3881C95ED540820F931FFC0162
:1048E00080819181DC01ED91FC910288F389E02DBA
:1048F000B301A2010995BFEFAB1ABB0A0C942715AF
:10490000F501EE0FFF1FEE0FFF1FCC53DA4F68804B
:104910007980C45CD540E60DF71D458056806780E0
:1049200070840E94D068A3019201B8010E94DB67E5
:104930000E94FF559801220F331F820F931FDC0145
:104940008D919C91892B21F1C351DA4F2883CD5E43
:10495000D540C751DA4F3883C95ED5400E94FF5514
:10496000C351DA4F2881CD5ED540C751DA4F388127
:10497000C95ED540820F931FFC0180819181DC01CB
:10498000ED91FC910684F785E02DB301A201099514
:10499000BFEFAB1ABB0AC2CAF501EE0FFF1FEE0F45
:1049A000FF1FBDE26B2EB4E07B2E6C0E7D1EE60D6C
:1049B000F71D45805680678070840E94D068A301EF
:1049C0009201B8010E94AA680E94FF559801220F27
:1049D000331F820F931FDC018D919C91892B21F154
:1049E000C351DA4F2883CD5ED540C751DA4F3883A3
:1049F000C95ED5400E94FF55C351DA4F2881CD5E74
:104A0000D540C751DA4F3881C95ED540820F931F18
:104A1000FC0180819181DC01ED91FC91028CF38D90
:104A2000E02DB301A2010995BFEFAB1ABB0A45CC3B
:104A3000F501EE0FFF1FEE0FFF1F24E9622E772412
:104A400073946C0E7D1EE60DF71D458056806780C1
:104A500070840E94D068A3019201B8010E94476847
:104A60000E94FF559801220F331F820F931FDC0114
:104A70008D919C91892B21F1C351DA4F2883CD5E12
:104A8000D540C751DA4F3883C95ED5400E94FF55E3
:104A9000C351DA4F2881CD5ED540C751DA4F3881F6
:104AA000C95ED540820F931FFC0180819181DC019A
:104AB000ED91FC910488F589E02DB301A2010995DF
:104AC000BFEFAB1ABB0AF5CA82E090E0F401918314
:104AD00080830C94061CF301918280820C94A118AF
:104AE000D3011D921C920C94A11887E0E82EF12CA2
:104AF00015CBF401332309F4B9C115A216A217A2EC
:104B000010A6818F928FA38FB48F81E0808B82EE6D
:104B100091E19A8389839C828B820E947B4324E665
:104B200030E040E050E0BE016F5F7F4F5B010E94CC
:104B30001744D40154969C938E93539764CC019759
:104B400011F00C94881CD1018D919C9182309105BB
:104B500009F4FDC18330910509F4C6C1019711F034
:104B60000C94881CF6012081318142815381C3510C
:104B7000DA4F2883CD5ED540C751DA4F3883C95EFE
:104B8000D540C651DA4F4883CA5ED540C551DA4F89
:104B90005883CB5ED5400E94FF55C351DA4F288120
:104BA000CD5ED540C751DA4F3881C95ED540C65178
:104BB000DA4F4881CA5ED540C551DA4F5881CB5E85
:104BC000D540B3010E94F2520C94881C0E94FF55FC
:104BD000F301EE0FFF1FE80FF91F0081118101158E
:104BE000110511F40C94901CD801ED90FC9020E07C
:104BF00030E04AE754E4F50160817181828193815C
:104C00000E94E5A90E94A7A8AB01BC01D70192961A
:104C1000ED91FC919397C8010995C653DA4FB8817D
:104C2000CA5CD540BB2311F40C94901CF201808126
:104C30009181D801ED91FC9104A0F5A1E02D813086
:104C4000910509F426C2029709F41DC261E070E0E3
:104C5000C80109950C94901CFD9680839183A283D2
:104C6000B383F401ED5BFF4F81E080838CE49BE034
:104C70009A8389839C828B820E947B4324E630E066
:104C800040E050E0BE016F5F7F4F5B010E94174420
:104C9000F401EF5BFF4F9183808385CA80E090E051
:104CA000E0C887E593E19A8389839C828B820E9486
:104CB000FF55FE0131965F01BF010E9486520C94A0
:104CC000D81789E29FE09A8389839C828B820E9415
:104CD000094DFE0131965F01AF0160E070E00E9476
:104CE000734C8EE59DE09A8389839C828B820E941F
:104CF000094DA50161E070E00E94734C8BE19DE0DD
:104D00009A8389839C828B820E94094DA50162E06F
:104D100070E00E94734C0C946617D1018D919C91A8
:104D20008130910509F4DAC0029711F00C94881CC7
:104D3000D6012D913D914D915C91CD52DA4F288352
:104D400039834A835B83C35DD5400E945B4BB301CB
:104D50000E94D1449B01AC01CD52DA4F6881798128
:104D60008A819B81C35DD5400E94D2A79B01AC0183
:104D7000C351DA4F2883CD5ED540C751DA4F38830F
:104D8000C95ED540C651DA4F4883CA5ED540C55189
:104D9000DA4F5883CB5ED5400E94FF55C351DA4F9E
:104DA0002881CD5ED540C751DA4F3881C95ED540E4
:104DB000C651DA4F4881CA5ED540C551DA4F588195
:104DC000CB5ED540B3010E945C550C94881CD10188
:104DD0008D919C918230910509F421C18330910518
:104DE00009F4E9C0019711F00C94881CF6012081A8
:104DF000318142815381C351DA4F2883CD5ED54042
:104E0000C751DA4F3883C95ED540C651DA4F48835F
:104E1000CA5ED540C551DA4F5883CB5ED5400E945B
:104E2000FF55C351DA4F2881CD5ED540C751DA4FC7
:104E30003881C95ED540C651DA4F4881CA5ED54037
:104E4000C551DA4F5881CB5ED540B3010E947553EE
:104E50000C94881C55966D907C9056970E947B43CD
:104E6000B3010E941643F401118AFCCAA388B488D6
:104E70000E947B43B5010E941643D40150961C92B8
:104E8000FE0131965F01BFCA9D961D921D921D9233
:104E90001C92D097C454DA4F288139814A815B81B2
:104EA000CC5BD54091962D933D934D935C93949715
:104EB00081E052968C9386EC90E19A8389839C8260
:104EC0008B820E947B4324E630E040E050E0B50155
:104ED0000E941744F401908F878BD4CAF601208179
:104EE00031814281538144CF0E94FF55B3010E941A
:104EF0008052F60160817181828193810E94A2A813
:104F0000AB01BC01C651DA4F4883CA5ED540C551DA
:104F1000DA4F5883CB5ED540C451DA4F6883CC5EFC
:104F2000D540C751DA4F7883C95ED5400E94FF55FE
:104F3000C651DA4F4881CA5ED540C551DA4F588113
:104F4000CB5ED540B3010E941E520C94881CD60142
:104F50002D913D914D915C91C351DA4F2883CD5EE7
:104F6000D540C751DA4F3883C95ED540C651DA4FB4
:104F70004883CA5ED540C551DA4F5883CB5ED540D1
:104F80000E94FF55C351DA4F2881CD5ED540C751ED
:104F9000DA4F3881C95ED540C651DA4F4881CA5EC2
:104FA000D540C551DA4F5881CB5ED540B3010E9440
:104FB0004A530C94881CF60120813181428153812F
:104FC000C351DA4F2883CD5ED540C751DA4F3883BD
:104FD000C95ED540C651DA4F4883CA5ED540C55137
:104FE000DA4F5883CB5ED5400E94FF55C351DA4F4C
:104FF0002881CD5ED540C751DA4F3881C95ED54092
:10500000C651DA4F4881CA5ED540C551DA4F588142
:10501000CB5ED540B3010E9432540C94881CD6015B
:105020002D913D914D915C91C351DA4F2883CD5E16
:10503000D540C751DA4F3883C95ED540C651DA4FE3
:105040004883CA5ED540C551DA4F5883CB5ED54000
:105050000E94FF55C351DA4F2881CD5ED540C7511C
:10506000DA4F3881C95ED540C651DA4F4881CA5EF1
:10507000D540C551DA4F5881CB5ED540B3010E946F
:1050800007540C94881C60E070E0C80109950C94EA
:10509000901C62E070E0C80109950C94901C2F925E
:1050A0003F924F925F926F927F928F929F92AF92B8
:1050B000BF92CF92DF92EF92FF920F931F93CF9305
:1050C000DF93CDB7DEB7CE51D4400FB6F894DEBF34
:1050D0000FBECDBF3C017B01DB011A962C911A97C4
:1050E00027FD7DC1243009F49AC2FB01858987FD23
:1050F0001AC0C25EDB4F0FB6F894DEBF0FBECDBF45
:10510000DF91CF911F910F91FF90EF90DF90CF90A3
:10511000BF90AF909F908F907F906F905F904F90D7
:105120003F902F9008956E01F6EACF1AFCEFDF0A48
:1051300086E8D6011D928A95E9F7FB0160817181AD
:10514000E18D8E2F90E09595879595958795837045
:10515000823009F433C3833009F02DC348E050E0B6
:10516000E295E695E695E370E23009F421C3E33079
:1051700009F01BC328E030E06B507109641B750B0C
:10518000621B730B9701235E3F4F823009F40AC301
:10519000833009F004C388E090E0820F931F0296E9
:1051A000E23009F4F9C2E33009F0F3C228E030E05C
:1051B000820F931F02960E94CB94CA5FDB4F288315
:1051C000C650D440C95FDB4F3883C750D440C85F56
:1051D000DB4F4883C850D440C75FDB4F5883C9506A
:1051E000D440C65FDB4F6883CA50D440C55FDB4FF5
:1051F0007883CB50D440C45FDB4F8883CC50D440FD
:10520000C35FDB4F9883CD50D440A60161E673E0C5
:10521000CE018A5F9B4F0E94C79A882309F4B1C2CE
:10522000D60111960D911D912D913C9114978BE013
:10523000F7013D96DE01A550BC4F01900D928A9575
:10524000E1F78BE0FE01E550FC4FDE01A052BC4FC0
:1052500001900D928A95E1F7BB24B394C551DC4FC0
:10526000B882CB5ED340C451DC4F088319832A83B4
:105270003B83CC5ED340F7018285882309F4A4C226
:10528000823009F036CFF301808181112EC58E0165
:105290000F5F1F4F89E2D8011D928A95E9F7F60149
:1052A000658170E0C60106960E94CB94CC5CDD4F10
:1052B0002883C453D240CB5CDD4F3883C553D240E2
:1052C000CA5CDD4F4883C653D240C95CDD4F58836A
:1052D000C753D240C85CDD4F6883C853D240C75C17
:1052E000DD4F7883C953D240C65CDD4F8883CA53F3
:1052F000D240C55CDD4F9883CB53D240A80161E911
:1053000073E0CE018C5C9D4F0E94C79A882309F4FC
:1053100038C28981882309F460C58E010E5F1F4F52
:10532000E12CF12C0BC0FFEFEF1AFF0A0B5F1F4FB0
:10533000898190E0E816F9060CF0DBCE0E94C842A5
:10534000BC016354764FC8010E9481AD892B59F787
:105350008BE0FE01E052FC4FDE01A051BC4F0190FA
:105360000D928A95E1F70E94C842C051DC4FC88077
:10537000C05FD340CF50DC4FD880C15FD340CE5008
:10538000DC4FE880C25FD340CD50DC4FF880C35F74
:10539000D340CC50DC4F0881C45FD340CB50DC4FAE
:1053A0001881C55FD340CA50DC4F2881C65FD34007
:1053B000C950DC4F3881C75FD340C850DC4F4881AB
:1053C000C85FD340C750DC4F5881C95FD340C65037
:1053D000DC4F6881CA5FD3400E940A3E8ACE559650
:1053E000DC9048E050E0635F7F4FCE0180529C4FDD
:1053F000C25EDB4F2883CE51D4400E9491AD8E0116
:1054000009531D4F83E9F80111928A95E9F795E058
:10541000FE01E052FC4FD80101900D929A95E1F700
:10542000C25EDB4F2881CE51D44040E8420F50E0AD
:1054300060E070E0D80115964D935D936D937C9379
:1054400018978D2D90E0A0E0B0E0F8018187928759
:10545000A387B487D7016D917C9111975996EC91F0
:105460008E2F90E0959587959595879583708230DE
:1054700009F457C2833009F4A4C140E050E0E2953A
:10548000E695E695E370E23009F457C2E33009F09F
:1054900051C228E030E06B507109641B750B621B30
:1054A000730BBDE1EB0EF11C823009F440C2833076
:1054B00009F03AC288E090E0E80EF91EF2E0EF0E43
:1054C000F11CE23009F42AC2E33009F024C288E07A
:1054D00090E08E0D9F1D02960E94CB94C65ADC4F21
:1054E0002883CA55D340C55ADC4F3883CB55D340A7
:1054F000C45ADC4F4883CC55D340C35ADC4F588341
:10550000CD55D340C25ADC4F6883CE55D340C15AE3
:10551000DC4F7883CF55D340C05ADC4F8883C056C8
:10552000D340CF59DC4F9883C156D340A801435F85
:105530005F4F61E673E0CE01865A9C4F0E94C79A86
:10554000882309F41EC1D3015396CD90DC90549763
:105550004E01BCEC8B1ABDEF9B0A83E9F801D40124
:1055600001900D928A95E1F7FE0131965F0182E389
:1055700091E0DF01FC011D923197E9F781E090E0B5
:105580009A83898381E0C355DF4F8883CD5AD04009
:10559000E6EBF4E012E720E030E0A90101C0119150
:1055A000A5E6B0E00E943DA79B01AC01210F311D93
:1055B000411D511D84E0E83CF80789F7C255DF4FD3
:1055C000288339834A835B83CE5AD040C051DC4F55
:1055D00019821882C05FD3400E943AA7DE01A05111
:1055E000BC4F7D018E010E541F4F20E830E0AE010C
:1055F0004D545F4FBC01C4010E94D891C051DC4F93
:1056000088819981C05FD340892B09F499C10E9498
:105610002B324FEF50E06FEF0E9496316ACD0E941F
:105620004688DC01ED91FC910190F081E02DB701FD
:1056300009955FCD882309F4B9C11D964D915D91FF
:105640006D917C915097C451DC4F88819981AA81DA
:10565000BB81CC5ED340481759076A077B0709F026
:10566000EAC08BE0FE01E052FC4FD301119601909D
:105670000D928A95E1F7D40114968D919C9115971E
:10568000019709F468C3F301218832888CE8F4019A
:10569000DE01A953BD4F01900D928A95E1F79E015D
:1056A0002F5F3F4F590182E391E0D901FC011D9228
:1056B0003197E9F7F1E0C855DF4FF883C85AD04079
:1056C000C953DD4F88819981AA81BB81C75CD240D3
:1056D000C755DF4F88839983AA83BB83C95AD040BB
:1056E000FB83C553DD4F88809980CB5CD24021E09D
:1056F0008216910409F4EAC232E08316910409F497
:10570000CDC2892809F4B4C282E090E09D838C83E5
:1057100031E03F8F83E090E099A388A3AE01405130
:105720005C4F2A01CE018D5C9E4F3C010E94D591B9
:1057300072018E010D5C1D4F20E031E0A301BC0120
:10574000C5010E94D891D2018D919C91892BC9F4F9
:10575000CD5CDD4F4881C353D24050E0D101ED9183
:10576000FC91309709F4C5CCB301D10112968D910B
:105770009C9113970995F20180819181892B09F4FD
:10578000B8CC0E942B324FEF50E060E00E9496317F
:10579000B0CC20E030E00CCD22E030E009CD80E05C
:1057A00090E0FBCC82E090E0F8CC20E030E0E4CC6C
:1057B00022E030E0E1CC40E050E0D2CC42E050E0EA
:1057C000CFCC48E050E05BCED6011596EC90F12CA2
:1057D0000E94D291A6014A5F5F4F4E01BCEC8B1A2A
:1057E000BDEF9B0A8E01025F1B4F9701BC01C401F4
:1057F0000E942292C25FDB4F88819981CE50D440B3
:10580000892B09F0BECFF3018081811108C0D4013A
:1058100014968D919C911597892B09F40AC2D30196
:105820001C968C911C97C551DC4F9881CB5ED34060
:10583000891709F4FFCEF3018081882331F0F40148
:1058400084819581892B09F469C2F301A188B2880A
:10585000F40180819181A281B3819E012F5F3F4F2E
:10586000690122E331E0F601A90111924150504053
:10587000E1F741E04B8322E030E03D832C834F8F02
:1058800025E030E039A328A3C855DF4F4883C85A24
:10589000D040C755DF4F88839983AA83BB83C95AF9
:1058A000D0400E94D591DE01A953BD4F7D018E01EC
:1058B0000D5C1D4F20E031E0AE014D5C5E4FBC0140
:1058C000C6010E94D891C953DD4F88819981C75C78
:1058D000D240892B09F055CFCD5CDD4F4881C353B1
:1058E000D24050E0D501ED91FC91309709F401CC04
:1058F000BE016D5C7E4FD50112968D919C911397E0
:105900000995C953DD4F88819981C75CD240892BA5
:1059100009F4EFCB36CF80E090E0DBCD82E090E081
:10592000D8CD42E050E0ABCD80E090E0C5CD82E044
:1059300090E0C2CD20E030E0AECD22E030E0ABCD53
:105940000E94D5918E010D5C1D4F20E031E0AE012B
:105950004D5C5E4FBC01C5010E94D891C051DC4F27
:1059600088819981C05FD340892B09F050CECD5CEE
:10597000DD4F4881C353D24050E0D601ED91FC91F8
:10598000309709F4B6CBBE016D5C7E4FD6011296FE
:105990008D919C9113970995C051DC4F8881998115
:1059A000C05FD340892B09F4A4CB31CEF301F18140
:1059B000CD5EDB4FF883C351D440D3011396BC9125
:1059C000C75EDB4FB883C951D440F301F481C65E92
:1059D000DB4FF883CA51D440D30112968C91E82F43
:1059E000F0E0CC5EDB4FF983E883C451D440C65E5F
:1059F000DB4F2881CA51D44030E040E050E060E005
:105A000070E080E090E008E10E9462A72901D42EB6
:105A1000352EF62EB72FCD5EDB4FF881C351D44023
:105A20004F2AB2648265C05FDB4F8883C051D44087
:105A30009264CF5EDB4F9883C151D440C75EDB4F89
:105A40002881C951D44030E040E050E060E070E08F
:105A500080E090E000E10E9462A7C35EDB4F2883F4
:105A6000CD51D440532AD42A352AF62AB72BC05F09
:105A7000DB4FA881C051D440A82BC05FDB4FA88367
:105A8000C051D440CF5EDB4FE881C151D440E92BF7
:105A9000CF5EDB4FE883C151D440C052DC4FF88168
:105AA000C05ED340CA5EDB4FF883C651D440CE51AE
:105AB000DC4FA881C25ED340C55EDB4FA883CB51CB
:105AC000D440CD51DC4FE881C35ED340C45EDB4F90
:105AD000E883CC51D440CF51DC4F8881C15ED340A4
