:100000000C942C010C944B010C944B010C944B015F
:100010000C944B010C944B010C944B010C944B0130
:100020000C944B010C944B010C944B010C944B0120
:100030000C944B010C944B010C944B010C944B0110
:100040000C944B010C944B010C944B010C944B0100
:100050000C944B010C944B010C944B010C944B01F0
:100060000C944B010C94D8300C944B010C944B0124
:100070000C944B010C9434020C944B010C944B01E6
:100080000C944B010C944B010C944B010C944B01C0
:100090000C942A310C944B010C944B010C94AA6FD4
:1000A0000C944B010C944B010C944B010C944B01A0
:1000B0000C944B010C944B010C944B010C9429456E
:1000C0000C944B010C944B010C944B010C944B0180
:1000D0000C944B010C944B010C944B010C944B0170
:1000E0000C944B010C944B010C944B010C94A53DCA
:1000F0000C94A83F0C944B010C944B010C94623F60
:100100000C944B010C944B010C944B010C944B013F
:100110000C944B010C944B010C944B010C944B012F
:10012000F48698863E86E88568855F850385B58474
:100130000985AC8498844E8705A84CCDB2D44EB9BD
:100140003836A9020C50B9918688083CA6AAAA2A7A
:10015000BE000000803F6E616E00696E6600004068
:100160007A10F35A00A0724E18090010A5D4E800C6
:1001700000E87648170000E40B54020000CA9A3BDE
:10018000000000E1F5050000809698000000404264
:100190000F000000A08601000000102700000000F2
:1001A000E803000000006400000000000A000000F6
:1001B00000000100000000002C76D888DC674F08A2
:1001C00023DFC1DFAE59E1B1B796E5E3E453C63AA8
:1001D000E651997696E8E6C28426EB898C9B62ED1F
:1001E000407C6FFCEFBC9C9F40F2BAA56FA5F490D9
:1001F000055A2AF75C936B6CF9676DC11BFCE0E450
:100200000D47FEF520E6B500D0ED902E03009435A5
:1002100077050080841E080000204E0A000000C8F8
:100220000C333333330F986E12831141EF8D211449
:10023000893BE65516CFFEE6DB18D1844B381BF719
:100240007C1D901DA4BBE424203284725E228100B8
:10025000C9F124ECA1E53D2711241FBECFEFD1E465
:10026000DEBFCDBF1EE0A0E0B2E0EEEDF9E601E0BA
:100270000BBF02C007900D92A835B107D9F72EE148
:10028000A8E5BEE001C01D92A531B207E1F70E94CA
:10029000E9080C94EDB40C94000008950895E82F3B
:1002A000F0E0E05CFE4F60830895E82FF0E0E05C52
:1002B000FE4F80810895E82FF0E0E05CFE4F8081E2
:1002C0006823862F90E002C0959587954A95E2F7BE
:1002D0000895922FE82FF0E0E05CFE4F262F209546
:1002E00080818223292F01C0220F4A95EAF7262315
:1002F000282B2083089587FD8FE780938001482F66
:1003000050E081E891E00C94D4B3EF92FF921F93F8
:10031000CF93DF937A0110917B01161708F4612FB8
:10032000C62FD0E0AE0160E871E00E94D4B3C0589F
:10033000DE4F8881F7018083812FDF91CF911F915C
:10034000FF90EF900895FF920F931F93CF93DF9349
:100350008C01F62EEA01209751F047E060E886E034
:100360000E945B0191E0813009F090E0988340E0C9
:1003700050E06F2DC801DF91CF911F910F91FF9039
:100380000C948501CF92DF92FF920F931F93CF932E
:10039000DF938C01F62E6A01E901209751F047E0C6
:1003A00060E886E00E945B0191E0813009F090E016
:1003B0009883A6016F2DC801DF91CF911F910F91F6
:1003C000FF90DF90CF900C94850180917B01089580
:1003D000FA01282F30E0A901460F511D4038510580
:1003E0001CF09FE7692F681B462F50E0BF01C90131
:1003F00080589E4F0C94D4B3FA01282F30E0A90105
:10040000460F511D4038510514F06FE7681B462F09
:1004100050E0B90160587E4FCF010C94D4B30E94D4
:1004200090340E94D933FC0180818230C1F08DEC80
:100430009CECACECBFE320EC20937C0010927B00A2
:100440002FEE20937A008093680E9093690EA0930C
:100450006A0EB0936B0E81E080936C0E089580E07D
:1004600090E0A0EABFE3E7CF1F920F920FB60F9282
:1004700011240BB60F921F932F933F934F935F93CB
:100480006F937F938F939F93AF93BF93CF93DF939C
:10049000EF93FF9380910B028F5F80930B02833069
:1004A00008F442C010920B02D091780010917900AC
:1004B000C0910A0280916C0E8823E1F18C2FC83024
:1004C00060F4EC2FF0E0EE0FFF1FE85AF14F1370CD
:1004D0002D2F30E0312B318320838F5F883038F52A
:1004E00080930A0280917C00807E80937C009091B2
:1004F0007C0080910A02892B80937C00FF91EF9110
:10050000DF91CF91BF91AF919F918F917F916F912B
:100510005F914F913F912F911F910F900BBE0F90C4
:100520000FBE0F901F9018958111E8CFBDCF10928C
:100530000A02D8CF0E940F0280910A02C0CF683011
:10054000710540F4660F771FFC01E60FF71F8081ED
:100550009181089580E090E00895CF93DF93683013
:100560007105D8F4FB01EC01EE0FFF1FEC0FFD1F2E
:100570006081718180E090E00E9415AF28893989FF
:100580004A895B890E942EB020E030E040E85AE3BF
:100590000E942EB0DF91CF91089560E070E0CB0112
:1005A000DF91CF91089580916C0E811102C00E945D
:1005B0000F0288E59EE00895DA011496ED91FC9112
:1005C0001597309739F0AB01BC0116968D919C912F
:1005D0001797099408956115710529F021E030E01D
:1005E000DB012D933C93DA01ED91FC91119730974B
:1005F00031F0682F12968D919C911397099580E0A8
:1006000090E008950895089508950895089508952F
:1006100008950895DC01ED91FC910480F581E02DB1
:1006200009940C943F500C949A4F0C9437570C94A7
:100630009353CF93DF9300D0CDB7DEB79E012F5FEA
:100640003F4F08960E9466930F900F90DF91CF91D5
:1006500008950F931F9300E010E020E030E040E0A9
:1006600050E008960E94DC8F1F910F9108952F9201
:100670003F924F925F926F927F928F929F92AF9232
:10068000BF92CF92DF92EF92FF920F931F93CF937F
:10069000DF93CDB7DEB7C657D6400FB6F894DEBFAE
:1006A0000FBECDBF6C015A01CE018B5C9C4F0E94E6
:1006B000D4B3CB5CDB4FA882C553D440D601CD90D8
:1006C000DC9081E091E0FE01EB5CFC4FDE01AC5C74
:1006D000BD4F01900D920197E1F70E94039495019F
:1006E00033278E010F58194FAE014C5C5D4FBC0192
:1006F000CE018D519A4F0E944B94CF58D94F88818B
:100700009981C157D640892B09F10E9444334FEF9C
:1007100050E060E00E94AF32CA58D94F0FB6F8944B
:10072000DEBF0FBECDBFDF91CF911F910F91FF9024
:10073000EF90DF90CF90BF90AF909F908F907F9081
:100740006F905F904F903F902F9008958CE8FE013E
:10075000ED51FA4FDE01A95ABA4F01900D928A95D8
:10076000E1F7FE0131964F0182E391E0DF01FC01E8
:100770001D923197E9F781E0C855DF4F8883C85A49
:10078000D040C95ADA4F488159816A817B81C75567
:10079000D540C755DF4F488359836A837B83C95A45
:1007A000D0408B83C55ADA4F28813981CB55D5404B
:1007B0002130310509F48BC02230310509F441C0E4
:1007C000232B09F492C022E030E03D832C838F8FED
:1007D00083E090E099A388A3FE01E159F94F5F01FE
:1007E0009E012D5C3E4F39010E94069475018E01D9
:1007F0000D5C1D4F20E031E0A301BC01C4010E944B
:100800000994D5018D919C91892B09F07ECFCD5C07
:10081000DD4F4881C353D24050E0D601ED91FC91A9
:10082000309709F479CFB301D60112968D919C913E
:1008300013970995F50180819181892B09F46CCF7B
:1008400064CFC35ADA4F9881CD55D540992309F426
:10085000BCCFC25ADA4F88819981AA81BB81CE551B
:10086000D5408F3D30EE93073DEEA3073FE6B3073B
:1008700009F494C008F45BC0803CF3E29F07F3E7FF
:10088000AF07F0EDBF0709F42EC2833024E19207D1
:100890002CEAA2072DEDB20709F492C18D399841D7
:1008A000A94FBF4B09F4E9C094E080E0FE01E15993
:1008B000F94F5F019E012D5C3E4F390122E030E08F
:1008C0003D832C8321E02F8F98A389A38DCF22E035
:1008D00030E03D832C838F8FCE018159994F5C018D
:1008E000DE01AD5CBE4F3D017FCF8E8383E090E0A3
:1008F000A0E0B0E08B879C87AD87BE8781E090E069
:10090000A0E0B0E08F8B988FA98FBA8F82E090E043
:10091000A0E0B0E08B8F9C8FAD8FBE8F9E012159E0
:10092000394F5901AE014D5C5E4F3A015DCF8037C2
:1009300053EE950758E4A50756E2B50709F475C1CB
:100940008037904EA448B44609F0AECFCE59DA4F66
:100950004880C256D540512C0E949EA95E01B1E943
:10096000AB1AB9EFBB0A3E01EDEC6E1AEEEF7E0A50
:100970008501920147E555E04C0F5D1F445F5F4FD5
:10098000BC01C3010E944B94D5012D913C912115CE
:10099000310509F44BC2922F832F90CFCE59DA4FF5
:1009A0004880C256D540512C0E949BA95E01B1E9F6
:1009B000AB1AB9EFBB0A3E01EDEC6E1AEEEF7E0A00
:1009C0008501920147E555E04C0F5D1F445F5F4F85
:1009D000BC01C3010E944B94D5012D913C9121157E
:1009E0003105C9F60E94FC5027E133E0CA5CDB4FB9
:1009F00039832883C653D440C85CDB4F99838883EE
:100A0000C853D4400E94B74528EE33E040E050E0A0
:100A1000BE016A5C7B4F0E944F46CA5CDB4F188266
:100A2000C653D4400E94ADA975018E01095D1F4FC8
:100A300020E830E0AE01485D5F4FBC01CE018A5C2A
:100A40009B4F0E940994D5012D913C9121153105B0
:100A500009F0A1CF83E090E09D838C8381E08AA39D
:100A6000C25ADA4F88819981AA81BB81CE55D5407F
:100A70008BA39CA3ADA3BEA3B7CECE59DA4F4880BB
:100A8000C256D540512C0E94A4A95E01F1E9AF1ACB
:100A9000F9EFBF0A3E012DEC621A2EEF720A8501B2
:100AA000920147E555E04C0F5D1F445F5F4FBC016D
:100AB000C3010E944B94D5012D913C912115310524
:100AC00009F069CF1E01BAEC2B1ABBEF3B0A83E990
:100AD000F301D10101900D928A95E1F78091160200
:100AE000882309F442C0F10185858823F1F1468508
:100AF000578560897189F60184819581A681B781C6
:100B0000481759076A077B0781F144835583668339
:100B10007783CD58D94F4883C357D640CC58D94F47
:100B20005883C457D640CB58D94F6883C557D64051
:100B3000CA58D94F7883C657D6400E94FB44CD5837
:100B4000D94F4881C357D640CC58D94F5881C45744
:100B5000D640CB58D94F6881C557D640CA58D94FCF
:100B60007881C657D6400E943844F101818592852C
:100B7000A385B48580389105A105B10508F471C13C
:100B800080E090E0DC0123E030E0FE01E753FB4F22
:100B90002F01F2013183208382839383A483B58361
:100BA0000E94B6A975018E01095D1F4F20E830E053
:100BB000AE01485D5F4FBC01C2010E94099443CF62
:100BC000CE59DA4F4880C256D540512C0E9498A980
:100BD0005E0141E9A41A49EFB40A3E015DEC651AD1
:100BE0005EEF750A8501920147E555E04C0F5D1FE8
:100BF000445F5F4FBC01C3010E944B94D5012D910E
:100C00003C9111972115310509F0C5CE8CE0E3E543
:100C1000F2E0A953B24001900D928A95E1F70E944B
:100C2000AAA975010854164003CFCE59DA4F48805F
:100C3000C256D540512C0E94A1A95E01F1E9AF1A1C
:100C4000F9EFBF0A3E012DEC621A2EEF720A850100
:100C5000920147E555E04C0F5D1F445F5F4FBC01BB
:100C6000C3010E944B94D5012D913C912115310572
:100C700009F091CEF3014081518162817381CD5899
:100C8000D94F4883C357D640CC58D94F5883C457FF
:100C9000D640CB58D94F6883C557D640CA58D94F8C
:100CA0007883C657D6400E94FB44CD58D94F48811F
:100CB000C357D640CC58D94F5881C457D640CB588B
:100CC000D94F6881C557D640CA58D94F7881C65781
:100CD000D6400E943844CA5CDB4F1882C653D440C9
:100CE0000E94B3A9A1CECE59DA4F4880C256D54052
:100CF000512C0E94A7A95E01F1E9AF1AF9EFBF0AD2
:100D00003E012DEC621A2EEF720A8501920147E531
:100D100055E04C0F5D1F445F5F4FBC01C3010E9453
:100D20004B94D5012D913C912115310509F033CE1D
:100D30002E01B7E34B1ABBEF5B0A8EE8F301D20139
:100D400001900D928A95E1F780911602882309F4AB
:100D500042C0F20180858823F1F141855285638587
:100D60007485F60184819581A681B781481759075A
:100D70006A077B0781F14483558366837783CD5867
:100D8000D94F4883C357D640CC58D94F5883C457FE
:100D9000D640CB58D94F6883C557D640CA58D94F8B
:100DA0007883C657D6400E94FB44CD58D94F48811E
:100DB000C357D640CC58D94F5881C457D640CB588A
:100DC000D94F6881C557D640CA58D94F7881C65780
:100DD000D6400E943844F20184819581A681B78172
:100DE00080389105A105B10508F46AC080E090E063
:100DF000DC0123E030E0FE01EA5CFB4F1F01F10162
:100E00003183208382839383A483B5830E94B9A90D
:100E100075018E01095D1F4F20E830E0AE01485D8D
:100E20005F4FBC01C1010E9409940DCEF301808186
:100E300091818130910509F47AC08230910509F4DD
:100E40006FC0892B31F40E94FB4460E070E00E9487
:100E5000EB44CA5CDB4F1882C653D4400E94B0A951
:100E6000E3CD2E01F7E34F1AFBEF5F0AD101159690
:100E70008C91F201808783E090E09287818748E03F
:100E800050E0B101C2010E94F4B3D20117961C9246
:100E90000E94FB44DC01ED91FC919101235F3F4FE7
:100EA000D10119966C9160580190F081E02DA2015A
:100EB0000995092E000CAA0BBB0B20E030E069CE8F
:100EC0001E01FAEC2F1AFBEF3F0A88E0EFE5F2E093
:100ED000D10101900D928A95E1F782E090E0D10175
:100EE0001A969C938E931997F201808118968C9391
:100EF0000E94FB44DC01ED91FC919201285F3F4F81
:100F0000D20114966C9160580190F081E02DA101FE
:100F10000995092E000CAA0BBB0B20E030E06FCF27
:100F20000E94FB4462E070E00E94EB4492CF0E947A
:100F3000FB4461E070E00E94EB448BCF411551050A
:100F400009F408950C9437038091140280FD12C0B7
:100F50000E94443340E050E060E00E94AF32809154
:100F60001402909115020196909315028093140239
:100F700081E008950E9444334FEF50E060E00E940A
:100F8000AF32EDCF0C94A407E1E6F0E080E8808377
:100F9000108278940E94443340E050E86FEF0E9442
:100FA000AF320895CF92DF92EF92FF92CF93DF930B
:100FB00000D000D000D0CDB7DEB71E821D820E94C7
:100FC00090340E940534FC01C080D180E280F3801F
:100FD000F1E0CF16D104F2E0EF06F10408F06EC0A4
:100FE000C114D104E104F10409F42DC08D819E8166
:100FF00040E050E0BA016BBFFA0127919227092E19
:101000000294202D2F702927392F3025330F307E61
:101010002327302D3927307F3695092E000C331FBA
:101020009695969596959F7193279827822F4F5F57
:101030005F4F6F4F7F4F4C155D056E057F0509F0C3
:10104000DACF9E838D830E9490340E94FA33FC0194
:10105000208131818D819E812817390719F10E94E5
:1010600044334FEF50E060E00E94AF320E94903472
:1010700022E030E0AE014B5F5F4F66E274E00E9419
:10108000323480911602811129C026960FB6F89449
:10109000DEBF0FBECDBFDF91CF91FF90EF90DF900D
:1010A000CF90089580911602882381F00E944433E6
:1010B0004FEF5FEF6FEF0E94AF32E7CF0E944433F4
:1010C0004FEF50E060E00E94AF32DFCF0E94443328
:1010D00040E05FEF6FEF0E94AF32D7CF82EC97E036
:1010E0009A8389831C821B820E94B7452AEF30E0D5
:1010F00040E050E0BE016F5F7F4F0E944F46C5CF7A
:10110000CF92DF92EF92FF920F931F93CF93DF93D3
:10111000CDB7DEB7C159D1090FB6F894DEBF0FBE07
:10112000CDBF8C017A01DC018C918823C1F1FE01D5
:1011300031966F0186E8DF011D928A95E9F7413803
:101140005105E8F5CE0107960E94D4B3EE82F8016E
:101150008485898385859685A785B0898A839B83C5
:10116000AC83BD838BE03196DE01A957BF4F019060
:101170000D928A95E1F781E8C157DF4F8883CF58F8
:10118000D0400E94FB44DC01ED91FC910190F08184
:10119000E02D9601AE0149575F4F60E00995CF56AB
:1011A000DF4F0FB6F894DEBF0FBECDBFDF91CF91FA
:1011B0001F910F91FF90EF90DF90CF9008950E94C4
:1011C00044334FEF50E060E00E94AF32E8CF0C9420
:1011D0008008CF93DF93CDB7DEB7CF5BDD400FB68E
:1011E000F894DEBF0FBECDBF0E94C4070E94FB442F
:1011F0000E94D3020E945A700E94E76C0E944A71BA
:101200000E94D20720E034E843E050E061E070E063
:10121000CE018E5B944F0E947C31CE018E5B944F49
:101220000E94F5311A8219821C821B821E821D8245
:1012300018861F821D861C861F861E86CE01099673
:101240000E94578F8E010F5F1F4FA8016CED72E057
:10125000CE0109960E94AC8F98014BEE52E060E0FF
:1012600070E0CE0109960E94B58FC45BD24F1983FE
:101270000883CC54DD4089E293E0C65BD24F99836A
:101280008883CA54DD4022E43BE02C0F3D1F3C83A1
:101290002B838AE093E09A83898330937F0F209396
:1012A0007E0F10937D0E00937C0ECE018E54924FD4
:1012B000DC0114961D921D921D921C921797139695
:1012C0001C930E93129729E133E02D933C93FE017A
:1012D000E254F24F91838083F887EF832EE937E061
:1012E0003E832D83C75AD24F19821882C955DD40DB
:1012F000C55AD24F19821882CB55DD40C35AD24FFE
:1013000019821882CD55DD40C15AD24F19821882F8
:10131000CF55DD40CF59D24F19821882C156DD40DA
:10132000CD59D24F19821882C356DD40CB59D24FC6
:1013300019821882C556DD40C959D24F19821882C8
:10134000C756DD40C759D24F1882C956DD40C6592D
:10135000D24F1882CA56DD40C559D24F1882CB569B
:10136000DD40C456D24F1882CC59DD400456124F8E
:10137000D8011D9228E0EFE5F2E001900D922A9548
:10138000E1F7F801118622E030E0338722871486E6
:1013900029E53DE02C0F3D1F328B218B948B838BF5
:1013A00030937B0E20937A0E9093790E8093780E73
:1013B0001093770E0093760E0E94FB44DC01ED91B2
:1013C000FC910480F581E02D20E739E2C654D24F2C
:1013D00039832883CA5BDD40C454D24F1983088304
:1013E000CC5BDD40BE016654724F0995C55AD24FA1
:1013F00019830883CB55DD4087EE98E0C75AD24F5A
:1014000099838883C955DD400E946D507C010E94FC
:101410003C50C15AD24F19830883CF55DD4027EE87
:101420003FE0C35AD24F39832883CD55DD40CD5993
:10143000D24F99838883C356DD4083E193E0CF592F
:10144000D24F99838883C156DD40C959D24FF98262
:10145000E882C756DD4081E193E0CB59D24F9983B2
:101460008883C556DD40C654D24F39832883CA5B72
:10147000DD40C454D24F19830883CC5BDD400E9409
:10148000914FAE014654524F60E070E00E94F94E19
:10149000CF59D24F88819981C156DD40C654D24F71
:1014A00099838883CA5BDD40CD59D24F8881998169
:1014B000C356DD40C454D24F99838883CC5BDD4052
:1014C0000E94914FAE014654524F61E070E00E947D
:1014D000F94ECB59D24F88819981C556DD40C6540B
:1014E000D24F99838883CA5BDD40C959D24F888126
:1014F0009981C756DD40C454D24F99838883CC5B11
:10150000DD400E94914FAE014654524F62E070E0C0
:101510000E94F94E8091160281111BC00E94CC5886
:1015200025E133E0C654D24F39832883CA5BDD40BE
:10153000C454D24F99838883CC5BDD400E94B74569
:101540002AE030E040E050E0BE016654724F0E9455
:101550004F46CA5BD44F28813981C654DB40C85BF3
:10156000D44F88819981C854DB402817390709F482
:1015700042C02FB7F894CA5BD44F48815981C654F2
:10158000DB40C85BD44F88819981C854DB40481741
:10159000590779F1CA5BD44FE881F981C654DB4021
:1015A000F17082E49BE08C0F9D1FE80FF91F3496C9
:1015B0006481CA5BD44F88819981C654DB4001960F
:1015C0009370CA5BD44F99838883C654DB402FBF86
:1015D000C65BD24FE881F981CA54DD40309709F4E7
:1015E000B8CFC45BD24F88819981CC54DD40099536
:1015F000B0CF6FEFECCF0E94FB44DC01ED91FC918A
:101600000680F781E02D099580911602882369F004
:101610000E94B7450E949B4680911602811199CF86
:101620000E94914F0E94294F94CF0E94B34D0E9477
:101630003F49EECF6F927F928F929F92AF92BF926F
:10164000CF92DF92EF92FF920F931F93CF93DF938E
:10165000CDB7DEB7C554D2400FB6F894DEBF0FBE8B
:10166000CDBF3C01CA5CDD4F8882C653D240C95C05
:10167000DD4F9882C753D240C85CDD4FA882C85363
:10168000D240C75CDD4FB882C953D240C65CDD4F43
:10169000C882CA53D240C55CDD4FD882CB53D240FA
:1016A000C45CDD4FE882CC53D240C35CDD4FF8828E
:1016B000CD53D240C25CDD4F0883CE53D240C15CD3
:1016C000DD4F1883CF53D240C05CDD4F2883C05418
:1016D000D240CF5BDD4F3883C154D240CE5BDD4F6B
:1016E0004883C254D240CD5BDD4F5883C354D240AF
:1016F000CC5BDD4F6883C454D240CB5BDD4F788335
:10170000C554D2409E012F5F3F4F690182E391E0B3
:10171000D901FC011D923197E9F781E090E09A83AD
:101720008983C355DF4F8883CD5AD040E4E8F2E087
:1017300011E620E030E0A90101C01191A5E6B0E07A
:101740000E9481AD9B01AC01210F311D411D511D36
:1017500082E0E539F80789F7C255DF4F28833983DE
:101760004A835B83CE5AD040CC5CDD4F198218820D
:10177000C453D2400E948FA9DE01AC5CBD4F7D01F5
:101780008E010E541F4F20E830E0AE014D545F4FE4
:10179000BC01CE018A5C9D4F0E940994CC5CDD4F58
:1017A00088819981C453D2400097B1F0CB5BDD4F63
:1017B0000FB6F894DEBF0FBECDBFDF91CF911F9162
:1017C0000F91FF90EF90DF90CF90BF90AF909F90E0
:1017D0008F907F906F9008950E9406940F571E4F30
:1017E00020E031E0AE014D5C5E4FBC01C6010E94BD
:1017F0000994CC5CDD4F88819981C453D240009715
:10180000A9F6CD5CDD4F4881C353D24050E0D301EF
:10181000ED91FC911197309749F2BE016D5C7E4FBE
:1018200012968D919C9113970995CC5CDD4F888120
:101830009981C453D240BACF2F923F924F925F9278
:101840006F927F928F929F92AF92BF92CF92DF92D0
:10185000EF92FF920F931F93CF93DF93CDB7DEB735
:10186000A8970FB6F894DEBF0FBECDBF1C010E9433
:101870004A710E94A27069A37AA38BA39CA3CB0197
:10188000ABA1BCA1898B9A8BAB8BBC8B0E944A719C
:101890000E94DA702B013C016D8B7E8B8F8B988FB1
:1018A0000E944A710E9412716DA37EA38FA398A714
:1018B000698F7A8F8B8F9C8FC101CD969E8F8D8F74
:1018C000DC01CD90DD90ED90FC9081010F5C1F4F0D
:1018D000FE017596F8A3EF8F89A19AA1ABA1BCA1D7
:1018E000BC01CD01D8012D913D914D915D918D01AE
:1018F0000E94FBAD4B015C0120E030E0A9010E9499
:1019000068AE87FD82C0A7019601C501B4010E949F
:1019100029B018167CF0ED8DFE8D0E171F0709F407
:1019200057C0AF8DB8A16D917D918D919D91B8A358
:10193000AF8FD8CF0E94B74580912702909128029F
:10194000A0912902B0912A0289839A83AB83BC8338
:1019500089A19AA1ABA1BCA18D839E83AF83B887D7
:1019600049865A866B867C868DA19EA1AFA1B8A5BB
:101970008D879E87AF87B88B1F921F9289809A8030
:10198000AB80BC80CD80DE80EF80F88409851A852D
:101990002B853C854D855E856F857889C1010E94C8
:1019A0001A0B89A19AA1ABA1BCA1F10181AB92ABA9
:1019B000A3ABB4AB45AA56AA67AA70AE8DA19EA1EF
:1019C000AFA1B8A581AF92AFA3AFB4AF0F900F9006
:1019D000F101ED5BFF4F8081A8960FB6F894DEBF52
:1019E0000FBECDBFDF91CF911F910F91FF90EF9070
:1019F000DF90CF90BF90AF909F908F907F906F902F
:101A00005F904F903F902F900895B7FAB094B7F839
:101A1000B09479CFAF92BF92CF92DF92EF92FF92C4
:101A20000F931F93CF93DF93CDB7DEB7CD53D24043
:101A30000FB6F894DEBF0FBECDBF5C01CA5CDD4FB0
:101A40000883C653D240C95CDD4F1883C753D240C8
:101A5000C85CDD4F2883C853D240C75CDD4F388354
:101A6000C953D240C65CDD4F4883CA53D240C55CDF
:101A7000DD4F5883CB53D240C45CDD4F6883CC53D9
:101A8000D240C35CDD4F7883CD53D2409E012F5F9F
:101A90003F4F690182E391E0D901FC011D9231972A
:101AA000E9F781E090E09A838983C355DF4F88830B
:101AB000CD5AD040E7E9F2E012E620E030E0A9019B
:101AC00001C01191A5E6B0E00E9481AD9B01AC017F
:101AD000210F311D411D511D82E0E13AF80789F7C0
:101AE000C255DF4F288339834A835B83CE5AD04067
:101AF000CC5CDD4F19821882C453D2400E9489A960
:101B0000DE01AC5CBD4F7D018E010E541F4F20E8FD
:101B100030E0AE014D545F4FBC01CE018A5C9D4F59
:101B20000E940994CC5CDD4F88819981C453D240D6
:101B3000009791F0C35CDD4F0FB6F894DEBF0FBE87
:101B4000CDBFDF91CF911F910F91FF90EF90DF906C
:101B5000CF90BF90AF9008950E9406940F571E4FEC
:101B600020E031E0AE014D5C5E4FBC01C6010E9439
:101B70000994CC5CDD4F88819981C453D240009791
:101B8000C9F6CD5CDD4F4881C353D24050E0D5014A
:101B9000ED91FC911197309769F2BE016D5C7E4F1B
:101BA00012968D919C9113970995CC5CDD4F88819D
:101BB0009981C453D240BECFCF92DF92EF92FF9271
:101BC0000F931F93CF93DF93CDB7DEB729970FB64F
:101BD000F894DEBF0FBECDBF6C0169870E94B74588
:101BE0008091270290912802A0912902B0912A02A7
:101BF000082F89839A83AB83BC8392E0492F698540
:101C0000262F30E038872F83E12CF12C1A812B818D
:101C10003C8150E07885C6010E940A0D29960FB6D6
:101C2000F894DEBF0FBECDBFDF91CF911F910F9112
:101C3000FF90EF90DF90CF900895CF92DF92EF92D8
:101C4000FF920F931F93CF93DF93CDB7DEB7299702
:101C50000FB6F894DEBF0FBECDBF6C0169870E943E
:101C6000B7458091270290912802A0912902B09156
:101C70002A02082F89839A83AB83BC8391E0492F82
:101C80006985262F30E038872F83E12CF12C1A81CB
:101C90002B813C8150E07885C6010E940A0D29966F
:101CA0000FB6F894DEBF0FBECDBFDF91CF911F916D
:101CB0000F91FF90EF90DF90CF900895AF92BF9279
:101CC000CF92DF92EF92FF920F931F93CF93DF9308
:101CD000CDB7DEB7C953D2400FB6F894DEBF0FBE02
:101CE000CDBF5C01CA5CDD4F488359836A837B8327
:101CF000C653D2409E012F5F3F4F690182E391E0BE
:101D0000D901FC011D923197E9F781E090E09A83B7
:101D10008983C355DF4F8883CD5AD040E3EAF2E090
:101D200013E620E030E0A90101C01191A5E6B0E082
:101D30000E9481AD9B01AC01210F311D411D511D40
:101D400082E0E63BF80789F7C255DF4F28833983E5
:101D50004A835B83CE5AD040CC5CDD4F1982188217
:101D6000C453D2400E9495A9DE01AC5CBD4F7D01F9
:101D70008E010E541F4F20E830E0AE014D545F4FEE
:101D8000BC01CE018A5C9D4F0E940994CC5CDD4F62
:101D900088819981C453D240009791F0C75CDD4F90
:101DA0000FB6F894DEBF0FBECDBFDF91CF911F916C
:101DB0000F91FF90EF90DF90CF90BF90AF9008957C
:101DC0000E9406940F571E4F20E031E0AE014D5C9B
:101DD0005E4FBC01C6010E940994CC5CDD4F888136
:101DE0009981C453D2400097C9F6CD5CDD4F48813C
:101DF000C353D24050E0D501ED91FC91119730973B
:101E000069F2BE016D5C7E4F12968D919C91139785
:101E10000995CC5CDD4F88819981C453D240BECFF7
:101E2000CF93DF93FC012081211104C080E0DF917A
:101E3000CF910895EC010E94B7454091270250913F
:101E400028026091290270912A0220E030E08989FD
:101E50009A890E945E0E1882809116028111E6CF47
:101E60000E944433FC018081882301F30E944433A3
:101E700040E05FEF6FEF0E94AF32D8CFCF92DF929A
:101E8000EF92FF920F931F93CF93DF93CDB7DEB7FF
:101E900028970FB6F894DEBF0FBECDBF6C01662346
:101EA00009F441C00E94B745809127029091280211
:101EB000A0912902B0912A0240910C0250910D028A
:101EC00060910E0270910F02841B950BA60BB70B4D
:101ED000843F9140A105B10508F453C00E94B74565
:101EE0008091270290912802A0912902B0912A02A4
:101EF00080930C0290930D02A0930E02B0930F02F8
:101F00000E94B7458091270290912802A091290252
:101F1000B0912A0289839A83AB83BC831E821D827F
:101F200091E080E012C00E94B74580912702909115
:101F30002802A0912902B0912A0289839A83AB8357
:101F4000BC831E821D8290E080E0692FE12CF12C81
:101F500009811A812B813C814D815E81782FC601D8
:101F60000E940A0D28960FB6F894DEBF0FBECDBFB3
:101F7000DF91CF911F910F91FF90EF90DF90CF9065
:101F800008950E94B7454091270250912802609120
:101F9000290270912A0220E030E0C6010E945E0E04
:101FA000E091760EF091770E1082809116028111E9
:101FB000D9CF0E944433FC018081882399F20E948A
:101FC000443340E05FEF6FEF0E94AF32CBCF0F930F
:101FD0001F93CF93DF9300D000D0CDB7DEB78C0135
:101FE000662309F453C00E94F38A0E9487730E94FB
:101FF000B7458091270290912802A0912902B091C3
:102000002A024091100250911102609112027091C7
:102010001302841B950BA60BB70B843F9140A105BF
:10202000B10520F4F8018081811148C00E94B745B4
:102030008091270290912802A0912902B0912A0252
:102040008093100290931102A0931202B093130296
:1020500080E19FE09A8389831C830B830E94B745AC
:1020600028E037E040E050E0BE016F5F7F4F0E9404
:102070004F469093750E8093740E0F900F900F90B3
:102080000F90DF91CF911F910F9108950E94F38AD5
:102090000E94A18A0091740E1091750E0E94B7459E
:1020A000B8010E944E450E94E76C24E630E040E013
:1020B00050E06CE573E40E949F6CDFCF0E94B7454F
:1020C00040912702509128026091290270912A02C2
:1020D00020E030E0F801818992890E945E0EF801CB
:1020E0001082809116028111A1CF0E944433FC011D
:1020F0008081882309F49ACF0E94443340E05FEF47
:102100006FEF0E94AF3292CFAF92BF92CF92DF9229
:10211000EF92FF920F931F93CF93DF93CDB7DEB76C
:10212000C154D2400FB6F894DEBF0FBECDBF5C01E4
:10213000CA5CDD4FC882C653D240C95CDD4FD8822D
:10214000C753D240C85CDD4FE882C853D240C75C59
:10215000DD4FF882C953D240C65CDD4F0883CA53B5
:10216000D240C55CDD4F1883CB53D240C45CDD4FF9
:102170002883CC53D240C35CDD4F3883CD53D2404B
:10218000C25CDD4F4883CE53D240C15CDD4F5883E3
:10219000CF53D240C05CDD4F6883C054D240CF5B88
:1021A000DD4F7883C154D2409E012F5F3F4F6901BC
:1021B00082E391E0D901FC011D923197E9F781E0BA
:1021C00090E09A838983C355DF4F8883CD5AD040EE
:1021D000E8EBF2E015E620E030E0A90101C0119142
:1021E000A5E6B0E00E9481AD9B01AC01210F311D3D
:1021F000411D511D82E0E33CF80789F7C255DF4FCE
:10220000288339834A835B83CE5AD040CC5CDD4F30
:1022100019821882C453D2400E948CA9DE01AC5CA2
:10222000BD4F7D018E010E541F4F20E830E0AE01FE
:102230004D545F4FBC01CE018A5C9D4F0E940994B2
:10224000CC5CDD4F88819981C453D240009791F0D6
:10225000CF5BDD4F0FB6F894DEBF0FBECDBFDF9171
:10226000CF911F910F91FF90EF90DF90CF90BF9093
:10227000AF9008950E9406940F571E4F20E031E062
:10228000AE014D5C5E4FBC01C6010E940994CC5C5E
:10229000DD4F88819981C453D2400097C9F6CD5C47
:1022A000DD4F4881C353D24050E0D501ED91FC9100
:1022B0001197309769F2BE016D5C7E4F12968D9139
:1022C0009C9113970995CC5CDD4F88819981C4530B
:1022D000D240BECF4F925F926F927F928F929F9229
:1022E000AF92BF92CF92DF92EF92FF920F931F9324
:1022F000CF93DF93CDB7DEB72C970FB6F894DEBF40
:102300000FBECDBF4C010E94B34D62E070E00E9451
:102310000747762E472E582E692EF40125A536A59F
:1023200047A550A90E94FBAD6B017C0120E030E085
:10233000A9010E9468AE87FD63C0A7019601F40160
:1023400061A172A183A194A10E9468AE87FF3FC0E2
:1023500081E090E090932602809325020E94B74589
:102360008091270290912802A0912902B0912A021F
:10237000C82E89839A83AB83BC8382E0082F8D8328
:102380001E821F821886472D872D942DA52DB62DD0
:1023900089879A87AB87BC87A12CB12CDA80EB8028
:1023A000FC8010E020E030E05A856B857C85C4011C
:1023B0000E9484101092260210922502872D942DDF
:1023C000A52DB62DF40185A796A7A7A7B0ABF4015C
:1023D00082892C960FB6F894DEBF0FBECDBFDF9179
:1023E000CF911F910F91FF90EF90DF90CF90BF9012
:1023F000AF909F908F907F906F905F904F900895D7
:10240000F7FAF094F7F8F09498CF4F925F926F92AA
:102410007F928F929F92AF92BF92CF92DF92EF9274
:10242000FF920F931F93CF93DF93CDB7DEB72C9717
:102430000FB6F894DEBF0FBECDBF4C010E94B34D66
:1024400061E070E00E940747762E472E582E692ED5
:10245000F40121A532A543A554A50E94FBAD6B0153
:102460007C0120E030E0A9010E9468AE87FD63C0D6
:10247000A7019601F401658D768D878D90A10E944C
:1024800068AE87FF3FC081E090E090932602809382
:1024900025020E94B7458091270290912802A091C1
:1024A0002902B0912A02C82E89839A83AB83BC8308
:1024B00081E0082F8D831E821F821886472D872D6D
:1024C000942DA52DB62D89879A87AB87BC87A12C23
:1024D000B12CDA80EB80FC8010E020E030E05A85FF
:1024E0006B857C85C4010E94841010922602109294
:1024F0002502872D942DA52DB62DF40181A792A735
:10250000A3A7B4A7F40181892C960FB6F894DEBF77
:102510000FBECDBFDF91CF911F910F91FF90EF9034
:10252000DF90CF90BF90AF909F908F907F906F90F3
:102530005F904F900895F7FAF094F7F8F09498CFE1
:102540004F925F926F927F928F929F92AF92BF92C3
:10255000CF92DF92EF92FF920F931F93CF93DF936F
:10256000CDB7DEB72C970FB6F894DEBF0FBECDBF48
:102570004C010E94B34D60E070E00E940747762E48
:10258000472E582E692EF40125A136A147A150A54A
:102590000E94FBAD6B017C0120E030E0A9010E94AC
:1025A00068AE87FD62C0A7019601F401618D728D4E
:1025B000838D948D0E9468AE87FF3EC081E090E0DD
:1025C00090932602809325020E94B74580912702AE
:1025D00090912802A0912902B0912A02C82E8983E5
:1025E0009A83AB83BC831D821E821F821886472D6F
:1025F000872D942DA52DB62D89879A87AB87BC870B
:10260000A12CB12CDA80EB80FC8000E01E812F81B0
:1026100038855A856B857C85C4010E948410109290
:10262000260210922502872D942DA52DB62DF4019A
:1026300085A396A3A7A3B0A7F40180892C960FB613
:10264000F894DEBF0FBECDBFDF91CF911F910F91E8
:10265000FF90EF90DF90CF90BF90AF909F908F90C2
:102660007F906F905F904F900895F7FAF094F7F88D
:10267000F09499CFAF92BF92CF92DF92EF92FF92F8
:102680000F931F93CF93DF93CDB7DEB7CF53D240D5
:102690000FB6F894DEBF0FBECDBF5C01CA5CDD4F44
:1026A000E882C653D240C95CDD4FF882C753D2409E
:1026B000C85CDD4F0883C853D240C75CDD4F188328
:1026C000C953D240C65CDD4F2883CA53D240C55C93
:1026D000DD4F3883CB53D240C45CDD4F4883CC53AD
:1026E000D240C35CDD4F5883CD53D240C25CDD4F36
:1026F0006883CE53D240C15CDD4F7883CF53D24044
:102700009E012F5F3F4F690182E391E0D901FC01F7
:102710001D923197E9F781E090E09A838983C35550
:10272000DF4F8883CD5AD040E5ECF2E01AE620E096
:1027300030E0A90101C01191A5E6B0E00E9481AD91
:102740009B01AC01210F311D411D511D82E0EE3C6A
:10275000F80789F7C255DF4F288339834A835B83A3
:10276000CE5AD040CC5CDD4F19821882C453D2407F
:102770000E9492A9DE01AC5CBD4F7D018E010E541A
:102780001F4F20E830E0AE014D545F4FBC01CE0139
:102790008A5C9D4F0E940994CC5CDD4F88819981B1
:1027A000C453D240009791F0C15CDD4F0FB6F8944E
:1027B000DEBF0FBECDBFDF91CF911F910F91FF9074
:1027C000EF90DF90CF90BF90AF9008950E94069455
:1027D0000F571E4F20E031E0AE014D5C5E4FBC0153
:1027E000C6010E940994CC5CDD4F88819981C45355
:1027F000D2400097C9F6CD5CDD4F4881C353D2402B
:1028000050E0D501ED91FC911197309769F2BE012E
:102810006D5C7E4F12968D919C9113970995CC5CBF
:10282000DD4F88819981C453D240BECFAF92BF9211
:10283000CF92DF92EF92FF920F931F93CF93DF938C
:10284000CDB7DEB72C970FB6F894DEBF0FBECDBF65
:102850005C018B0183E090E0909326028093250237
:102860004B875C870E94B745809127029091280290
:10287000A0912902B0912A02E82E89839A83AB8322
:10288000BC83012E000C220B330B802F0D831E8383
:102890002F8338874B85642F5C855A87C12CD12CB8
:1028A000FA800B811C81282F3E814F8158857A85C3
:1028B000C5010E943A1310922602109225022C960E
:1028C0000FB6F894DEBF0FBECDBFDF91CF911F9141
:1028D0000F91FF90EF90DF90CF90BF90AF90089551
:1028E0002F923F924F925F926F927F928F929F9220
:1028F000AF92BF92CF92DF92EF92FF920F931F930E
:10290000CF93DF93CDB7DEB7CE5ED5400FB6F89448
:10291000DEBF0FBECDBF5C014B0127011601223087
:1029200060E1360767ED460764E6560711F40C943C
:10293000671F08F45FC0253EB5EA3B07B9EE4B07B9
:10294000BBEB5B0711F40C94AF2008F03EC12B3FAA
:10295000F3E43F07F9E84F07F5E85F0711F40C943B
:10296000D51D08F081C2243A7AE1370771EB470799
:102970007CE6570711F40C946D2108F457C4263FE8
:10298000A5E83A07A3EE4A07ACE65A0711F40C94FF
:10299000BF222F3D304E4D4E5F4611F00C94B822B1
:1029A000F801C1907F01D12C0E940BA981019601F1
:1029B000A701BC01C5010E944B94D1018D919C914E
:1029C000892B09F0E0C20E94FC5027E133E03A83F2
:1029D00029839C838B830E94B74528EE33E040E037
:1029E00050E0BE016F5F7F4F0E944F4619820E94E8
:1029F00086A98BC2243D8DE6380788E848078AE31C
:102A0000580711F40C94D11F08F05FC02938AAE0D0
:102A10003A07A1E44A07ABE15A0711F40C94411DAF
:102A200008F080C22631E9E23E07E2E24E07E7E025
:102A30005E0711F40C94751E08F49EC425317DEDDB
:102A4000370776ED47077BE0570711F40C944022D7
:102A5000293D3C40424B5F4011F00C94B822D80114
:102A6000CD907D01D12C0E94C0A881019601A701C3
:102A7000BC01C5010E944B94F10180819181892B99
:102A800009F081C20E94246B60E070E00E94806ABD
:102A90006A837B838C839D830E94246B61E070E05A
:102AA0000E94806A6E837F83888799870E94246B47
:102AB00062E070E00E94806A6A877B878C879D87CE
:102AC00083E089830E943BA920C2283E60EF36073D
:102AD00068EC460761E5560711F40C947E2008F473
:102AE000FEC02831F0E93F07F9E94F07F3E65F0739
:102AF00011F40C94202108F060C22F3774ED3707D1
:102B000076E2470773E5570711F40C940C1F2F3139
:102B10003E484F4B5A4511F00C94B822F801C19031
:102B20007F01D12C0E9402A981019601A701BC015D
:102B3000C5010E944B94D1018D919C91892B09F084
:102B400022C24201BFEF8B1A9B0A6E01EAE8CE0E49
:102B5000D11C85E8F501D60101900D928A95E1F727
:102B600086010B5F1F4FD60114962C9114976C9120
:102B7000C651DA4F2883CA5ED540C751DA4F688301
:102B8000C95ED5400E945A70C651DA4F2881CA5E8C
:102B9000D540A801C751DA4F6881C95ED5400E946F
:102BA000DA6F892B01F70E945A700E9446701982D1
:102BB0000E947DA97101820120E830E0A401BC01DE
:102BC000CE0101960E940994DEC1203890E13907B8
:102BD00097E949079EED590711F40C941B2008F45E
:102BE00007C1243B81E2380787EE4807580711F4F4
:102BF0000C94D61E08F059C22439A5EC3A07ADEF63
:102C00004A07AFED5A0711F40C94F82125393348DF
:102C1000474C524E11F00C94B822D801CD907D0152
:102C2000D12C0E94D8A881019601A701BC01C50141
:102C30000E944B94F10180819181892B09F0A3C1FD
:102C40003201FFEF6F1A7F0A85E8F501DE01A75E0A
:102C5000BD4F01900D928A95E1F7D5018D909D9021
:102C6000AD90BC90C12CD12C00E010E0EE24E39498
:102C7000F12CC454DA4F79826882CC5BD540C054C1
:102C8000DA4F59824882C05CD540C701002E02C08D
:102C9000880F991F0A94E2F7092E000CAA0BBB0BB0
:102CA00088219921AA21BB21892B8A2B8B2B11F0FA
:102CB0000C9432260F5F1F4F0330110531F7C454B7
:102CC000DA4F68807980CC5BD540C054DA4F4880B9
:102CD0005980C05CD54019820E9453A97EC0263C11
:102CE00088E2380780EF480781E4580711F40C9414
:102CF000302308F42BC22F34B3EE3B07B1EE4B0761
:102D0000B2E45B0711F40C94E720273D3F474A43A8
:102D1000574411F00C94B822D801CD907D01D12CEC
:102D20000E94DEA881019601A701BC01C5010E9495
:102D30004B94F10180819181892B09F024C13201EA
:102D4000FFEF6F1A7F0A85E8F501DE01A15FBE4F34
:102D500001900D928A95E1F7D5018D909D90AD90EF
:102D6000BC90C12CD12C00E010E0EE24E394F12CB7
:102D7000C454DA4F79826882CC5BD540C054DA4FB4
:102D800059824882C05CD540C701002E02C0880F1E
:102D9000991F0A94E2F7092E000CAA0BBB0B88219D
:102DA0009921AA21BB21892B8A2B8B2B11F00C9402
:102DB000E1250F5F1F4F0330110531F7C454DA4F7F
:102DC00068807980CC5BD540C054DA4F4880598008
:102DD000C05CD54019820E9459A97101820120E886
:102DE00030E0A301BC01CE0101960E940994CBC042
:102DF0002835B5ED3B07B3E84B07BDEB5B0711F496
:102E00000C94C32108F47BC2213564E036076BE8DB
:102E1000460766EC560711F40C94432123303441E5
:102E20004C4A5D4D11F00C94B822D801CD907D0133
:102E3000D12C0E94F0A881019601A701BC01C50117
:102E40000E944B94F10180819181892B09F09BC0F4
:102E50008CE0E7E6F2E0DE01119601900D928A9592
:102E6000E1F70E946BA951C02F3DE7EA3E07EAE077
:102E70004E07E6E95E0711F40C948A2208F4C5C5F2
:102E8000213379E7370778E4470778EA570709F4E9
:102E90005FC72F36354B4849504B11F00C94B82280
:102EA000D801CD907D01D12C0E94C3A8810196014B
:102EB000A701BC01C5010E944B94F1018081918161
:102EC000892B09F060C00E94246B60E070E00E94D2
:102ED000A66A6A837B838C839D830E94246B61E056
:102EE00070E00E94A66A6E837F83888799870E941C
:102EF000246B62E070E00E94A66A6A877B878C87F9
:102F00009D8783E089830E943EA9A2014F5F5F4FA6
:102F10007101820120E830E0BC01CE0101960E94DF
:102F2000099431C0211591EC390794EF490791E2DA
:102F3000590711F40C945C2208F423C5213BECE3FF
:102F40003E07E1EF4E07E1E35E0711F40C94032323
:102F5000253D3B414744524311F00C94B822D8011F
:102F6000CD907D01D12C0E94A8A881019601A701D6
:102F7000BC01C5010E944B94F10180819181892B94
:102F800011F40C949423C251DA4F0FB6F894DEBFBB
:102F90000FBECDBFDF91CF911F910F91FF90EF90AA
:102FA000DF90CF90BF90AF909F908F907F906F9069
:102FB0005F904F903F902F900895213890EA390705
:102FC00092EC490793E6590709F427C62438304A9A
:102FD000424C534611F00C94B822D801CD907D019B
:102FE000D12C0E94CFA881019601A701BC01C50187
:102FF0000E944B94F10180819181892B21F632014D
:10300000FFEF6F1A7F0A9E0128553C4FCC53DA4FD1
:1030100039832883C45CD54085E8F501D901019046
:103020000D928A95E1F7D5018D909D90AD90BC9061
:10303000C12CD12C00E010E0EE24E394F12CC45418
:10304000DA4F79826882CC5BD540C054DA4F59821E
:103050004882C05CD540C701002E02C0880F991F6E
:103060000A94E2F7092E000CAA0BBB0B88219921C8
:10307000AA21BB21892B8A2B8B2B11F00C94EE24D7
:103080000F5F1F4F0330110531F7C454DA4F6880CA
:103090007980CC5BD540C054DA4F48805980C05C01
:1030A000D54019820E944AA998CE283FEFE23E07F8
:1030B000EAEE4E07E8EE5E0711F40C946823283A16
:1030C0003747464B5D4F11F00C94B822D801CD9094
:1030D0007D01D12C0E94E4A881019601A701BC01C9
:1030E000C5010E944B94F10180819181892B09F0E7
:1030F0004ACF6201FFEFCF1ADF0A0E94B7458091E5
:10310000270290912802A0912902B0912A02898376
:103110009A83AB83BC837E0126E0E20EF11C00E0C3
:1031200010E00E94B34DB8010E940747D7016D938C
:103130007D938D939D937D010F5F1F4F033011058C
:1031400081F783E08D830E945FA954C42233394BF9
:103150004041514411F00C94B822D801CD907D012A
:10316000D12C0E94D5A881019601A701BC01C501FF
:103170000E944B94F10180819181892B09F003CF4A
:103180003201FFEF6F1A7F0A9E0122563D4FC45451
:10319000DA4F39832883CC5BD54085E8F501D90126
:1031A00001900D928A95E1F7D5018D909D90AD909B
:1031B000BC90C12CD12C00E010E0EE24E394F12C63
:1031C000C054DA4F79826882C05CD540CC53DA4F64
:1031D00059824882C45CD540C701002E02C0880FC6
:1031E000991F0A94E2F7092E000CAA0BBB0B882149
:1031F0009921AA21BB21892B8A2B8B2B11F00C94AE
:1032000090250F5F1F4F0330110531F7C054DA4F7F
:1032100068807980C05CD540CC53DA4F48805980B3
:10322000C45CD54019820E9450A9D7CD2B38384CA8
:1032300044415C4611F00C94B822D801CD907D0138
:10324000D12C0E94DBA881019601A701BC01C50118
:103250000E944B94F10180819181892B09F093CEDA
:103260003201FFEF6F1A7F0A85E8F501DE01AC56E7
:10327000BE4F01900D928A95E1F7D5018D909D90FA
:10328000AD90BC90C12CD12C00E010E0EE24E39472
:10329000F12CC454DA4F79826882CC5BD540C0549B
:1032A000DA4F59824882C05CD540C701002E02C067
:1032B000880F991F0A94E2F7092E000CAA0BBB0B8A
:1032C00088219921AA21BB21892B8A2B8B2B11F0D4
:1032D0000C943F250F5F1F4F0330110531F7C45485
:1032E000DA4F68807980CC5BD540C054DA4F488093
:1032F0005980C05CD54019820E9456A96ECD283EE7
:10330000354A494E5B4B11F00C94B822D801CD9050
:103310007D01D12C0E94B7A881019601A701BC01B3
:10332000C5010E944B94F10180819181892B09F0A4
:103330002ACE0E94246B60E070E00E94346A6A83A7
:103340007B838C839D830E94246B61E070E00E94EC
:10335000346A6E837F83888799870E94246B62E03A
:1033600070E00E94346A6A877B878C879D8783E040
:1033700089830E9432A9C9CD233E3041434C564037
:1033800011F00C94B822D801CD907D01D12C0E946F
:10339000F3A881019601A701BC01C5010E944B94CD
:1033A000F10180819181892B09F0EDCD92012F5F90
:1033B0003F4FCB52DA4F39832883C55DD540D501C5
:1033C00011960D90BC91A02DC551DA4FB983A883F9
:1033D000CB5ED540D50113966D907D908D909C90DD
:1033E0001697C054DA4F688279828A829B82C05CC9
:1033F000D5401796BC91C553DA4FB883CB5CD54006
:10340000F5010084F185E02DC454DA4FF983E88397
:10341000CC5BD540D5011A96BC91C653DA4FB88320
:10342000CA5CD540F5014385548565857685F78569
:10343000CA53DA4FF883C65CD540D50150960D903B
:10344000BC91A02DC452DA4FB983A883CC5DD5407E
:10345000F501F289C251DA4FF883CE5ED540D5012D
:1034600053960D90BC91A02DC252DA4FB983A88318
:10347000CE5DD540F501C588D688E788F08CF18D02
:10348000CB51DA4FF883C55ED540D5015A960D90E1
:10349000BC91A02DC353DA4FB983A883CD5CD5402E
:1034A000F501F48DC552DA4FF883CB5DD540F501B7
:1034B000858D968DA78DB0A1F1A1C052DA4FF8830A
:1034C000C05ED540F50102A0F3A1E02DCD51DA4F49
:1034D000F983E883C35ED540F501F4A1CE51DA4FFC
:1034E000F883C25ED540F50105A0F6A1E02DCC53CE
:1034F000DA4FF983E883C45CD540F50107A110A534
:1035000021A532A5F3A5CF52DA4FF883C15DD5408E
:10351000F50104A4F5A5E02DC153DA4FF983E88342
:10352000CF5CD540F501F6A5C853DA4FF883C85CE7
:10353000D540F50167A470A881A892A8C952DA4FB6
:10354000688279828A829B82C75DD540F3A9CF5178
:10355000DA4FF883C15ED540F50164A875A8F08103
:10356000C351DA4FF883CD5ED540C35DDB4FF8839E
:10357000CD52D440C251DA4F8880CE5ED540C25D74
:10358000DB4F8882CE52D440CE51DA4F9880C25E53
:10359000D540C15DDB4F9882CF52D440C551DA4F40
:1035A000A880B980CB5ED540C75EDD4FB982A882C6
:1035B000C951D240C252DA4FE881F981CE5DD5407F
:1035C000C55EDD4FF983E883CB51D240CC53DA4F4F
:1035D00088809980C45CD540C35EDD4F9982888223
:1035E000CD51D240C054DA4F88809980AA80BB80E8
:1035F000C05CD540C657DF4F88829982AA82BB82C1
:10360000CA58D040C257DF4FC882D982EA82FB82B3
:10361000CE58D040CE56DF4F088319832A833B8390
:10362000C259D0409E0128553C4FCC53DA4F3983C4
:103630002883C45CD540C553DA4F8880CB5CD54025
:10364000F9018082CB51DA4F9880C55ED5409182D6
:10365000CF52DA4FA880C15DD540A282C454DA4F60
:1036600028813981CC5BD540CC56DE4F3983288305
:10367000C459D140C353DA4FE881F981CD5CD540BC
:10368000CA56DE4FF983E883C659D140C153DA4F99
:1036900088809980CF5CD540C856DE4F9982888259
:1036A000C859D1409E012D5D3C4FC054DA4F39833B
:1036B0002883C05CD540C653DA4F8880CA5CD540A9
:1036C000F9018082C552DA4F9880CB5DD540918256
:1036D000C853DA4FA880C85CD540A28249835A8378
:1036E0006B837C838D839E83AF83B887C952DA4F07
:1036F000288139814A815B81C75DD54029873A8716
:103700004B875C87AE0142565D4FC454DA4F5983F4
:103710004883CC5BD540CA53DA4FE881C65CD540BC
:10372000DA01EC93C052DA4FF881C05ED5401196B1
:10373000FC931197CF51DA4F8880C15ED540129625
:103740008C921297C452DA4FA880B980CC5DD540D4
:10375000C15FDE4FB982A882CF50D140CD51DA4F40
:1037600028813981C35ED540CF5EDE4F39832883FF
:10377000C151D140CD5EDE4F79826882C351D140C4
:103780004DE254E04C0F5D1F4F5F5F4FC853DA4F5F
:1037900059834883C85CD540BE01615F7E4FCA53E0
:1037A000DA4F79836883C65CD540CE0101965C010F
:1037B0008E01075E1D4FA451B2406D01FE01EC5613
:1037C000FE4F4F01612C712CC351DA4FE881CD5E61
:1037D000D540C553DA4F59824882CB5CD540280189
:1037E000C353DA4F39822882CD5CD5401B01C153C7
:1037F000DA4F99838883CF5CD540EE2309F49AC0D1
:10380000CC53DA4FE881F981C45CD540E60DF71D51
:103810008081882311F40C948326D4018D919C918E
:10382000C054DA4FE881F981C05CD540E60DF71D40
:103830002081CA53DA4F2883C65CD540211106C0C7
:10384000D5011D921D921D921C921397C454DA4FFC
:10385000E881F981CC5BD540E60DF71DB081C653F8
:10386000DA4FB883CA5CD540B11105C021E030E021
:10387000F101318320838230910511F40C94AB2740
:1038800014F40C94C0268330910511F40C94EE27A7
:10389000049709F047C0D5012D913D914D915C9160
:1038A000CF52DA4F288339834A835B83C15DD54089
:1038B000F6012081318142815381C651DA4F28833C
:1038C000CA5ED540CA51DA4F3883C65ED540C95169
:1038D000DA4F4883C75ED540C851DA4F5883C85E77
:1038E000D5400E94CC58CF52DA4FE880F9800A8147
:1038F0001B81C15DD540C651DA4F2881CA5ED540D3
:10390000CA51DA4F3881C65ED540C951DA4F488175
:10391000C75ED540C851DA4F5881C85ED540B30163
:103920000E946E58CA53DA4FF881C65CD540F11137
:103930000C940727BFEF6B1A7B0AE2E02E0E311CB6
:10394000F4E0AF0EB11C22E0420E511C34E0C30E75
:10395000D11C42E0840E911C53E06516710409F4F9
:103960002AC7C853DA4FA881B981C85CD540ED9108
:10397000C853DA4FB983A883C85CD540EE23D1F28F
:103980003FCF2A3E3A4E4543504209F0F1C5D80197
:10399000CD907D01D12C0E9496A881019601A701AE
:1039A000BC01C5010E944B94F10180819181892B5A
:1039B00009F0E9CA6201FFEFCF1ADF0A7E0122E0B7
:1039C000E20EF11C00E010E00E94D302B8010E9458
:1039D0009F02A0E0B0E0F70181939193A193B1938E
:1039E0007F010F5F1F4F0830110571F788E0898351
:1039F0000E9411A97101820120E830E0A601BC01FA
:103A0000CE0101960E940994BECA2B3B3C464E4B08
:103A10005B4809F0ADC5D801CD907D01D12C0E9445
:103A2000C6A881019601A701BC01C5010E944B9463
:103A3000F10180819181892B09F0A5CA0E94246B34
:103A400060E070E00E94CC6A6A837B838C839D83F4
:103A50000E94246B61E070E00E94CC6A6E837F83D9
:103A6000888799870E94246B62E070E00E94CC6A8C
:103A70006A877B878C879D8783E089830E9441A921
:103A800044CAD801CD907D01D12C0E94ABA8810100
:103A90009601A701BC01C5010E944B94F1018081F0
:103AA0009181892B09F06FCA6201FFEFCF1ADF0AFB
:103AB000D50111963C91119712968D919D910D9083
:103AC000BC91A02DF5010681E78040855185628576
:103AD0007385C054DA4F488359836A837B83C05C03
:103AE000D5401485F5844685578560897189C4540D
:103AF000DA4F488359836A837B83CC5BD54020812E
:103B000021110C9499269E012F5F3F4F59010023EC
:103B100071F1D401EE2011F40C94572899961D925E
:103B20001D921D921C929C97C054DA4F28813981B6
:103B30004A815B81C05CD5405D962D933D934D934A
:103B40005C93909781E051968C9385E092E19A8303
:103B500089839C828B820E94B74528EC30E040E04C
:103B600050E0B5010E944F46F401968B858B1123DE
:103B700079F0D401F1100C94642857960D911C91A2
:103B800058970E94B745B8010E944E45F401128A29
:103B900019820E9426A97101820120E830E0A60165
:103BA000BC01C5010E940994EEC9D801CD907D01E8
:103BB000D12C0E94FCA881019601A701BC01C5017E
:103BC0000E944B94F10180819181892B09F0DBC91E
:103BD00085E8F501DE01A95CBA4F01900D928A9546
:103BE000E1F7C55CDA4F0881CB53D54010E0C95CE2
:103BF000DA4FE880F980C753D5400E94903447E3FC
:103C000055E04C0F5D1F4B5F5F4F9801B7010E945D
:103C1000323419820E9477A978C9D801CD907D01EC
:103C2000D12C0E94D2A881019601A701BC01C50137
:103C30000E944B94F10180819181892B09F0A3C9E5
:103C40003201FFEF6F1A7F0A9E012D5D3C4FC05479
:103C5000DA4F39832883C05CD54085E8F501D90166
:103C600001900D928A95E1F7D5018D909D90AD90D0
:103C7000BC90C12CD12C00E010E0EE24E394F12C98
:103C8000C454DA4F79826882CC5BD540CC53DA4F8A
:103C900059824882C45CD540C701002E02C0880FFB
:103CA000991F0A94E2F7092E000CAA0BBB0B88217E
:103CB0009921AA21BB21892B8A2B8B2B09F03EC687
:103CC0000F5F1F4F0330110539F7C454DA4F688076
:103CD0007980CC5BD540CC53DA4F48805980C45CA6
:103CE000D54019820E944DA978C8F801C1907F0182
:103CF000D12C0E94F9A881019601A701BC01C50140
:103D00000E944B94D1018D919C91892B09F03BC964
:103D10006201BFEFCB1ADB0AF501E18080818823C5
:103D200011F40C949426F12C00E010E0C701002E51
:103D300002C0959587950A94E2F780FD6AC50F5FEA
:103D40001F4F0330110591F719820E9474A952CEBA
:103D5000D801CD907D01D12C0E9493A881019601BC
:103D6000A701BC01C5010E944B94F10180819181A2
:103D7000892B09F008C90E944A710E94A2706983C8
:103D80007A838B839C830E944A710E94DA706D83D0
:103D90007E838F8398870E944A710E94127169877F
:103DA0007A878B879C870E940EA9AFC8D801CD90D7
:103DB0007D01D12C0E94B4A881019601A701BC010C
:103DC000C5010E944B94F10180819181892B09F0FA
:103DD000DAC80E94246B60E070E00E940F6B6A8377
:103DE0007B838C839D830E94246B61E070E00E9442
:103DF0000F6B6E837F83888799870E94246B62E0B4
:103E000070E00E940F6B6A877B878C879D8783E0B9
:103E100089830E942FA979C8D801CD907D01D12C2A
:103E20000E9408A981019601A701BC01C5010E9459
:103E30004B94F10180819181892B09F0A4C8420142
:103E4000FFEF8F1A9F0A89E8F501DE0111960190B4
:103E50000D928A95E1F79E0126573F4F690159015E
:103E60003FEFA31AB30AED8029856981C651DA4F65
:103E70002883CA5ED540C751DA4F6883C95ED540F2
:103E80000E945A708501C651DA4F2881CA5ED5401A
:103E9000AE01465F5F4FC751DA4F6881C95ED540BA
:103EA0000E941770892BF9F60E945A700E94467082
:103EB0008D81D6018C930E9483A97101820120E833
:103EC00030E0A401BC01C6010E9409945CC8D8017D
:103ED000CD907D01D12C0E94C9A881019601A70136
:103EE000BC01C5010E944B94F10180819181892B15
:103EF00009F049C892012F5F3F4FC454DA4F39830C
:103F00002883CC5BD54085E8F501DE01AE54BB4F7C
:103F100001900D928A95E1F7D5018D909D90AD901D
:103F2000BC90C12CD12C00E010E0EE24E394F12CE5
:103F3000C054DA4F59824882C05CD540C701002E78
:103F400002C0880F991F0A94E2F7092E000CAA0BF1
:103F5000BB0B88219921AA21BB21892B8A2B8B2B72
:103F600009F0B4C40F5F1F4F0330110539F7C05477
:103F7000DA4F48805980C05CD54019820E9444A91C
:103F80007101820120E830E0C454DA4F4881598140
:103F9000CC5BD540BC01CE0101960E9409940C94E3
:103FA000C317D801CD907D01D12C0E94A2A8810118
:103FB0009601A701BC01C5010E944B94F1018081CB
:103FC0009181892B11F00C94C317D5014D915D910E
:103FD0006D917C91C951DA4F4883C75ED540C85175
:103FE000DA4F5883C85ED540C751DA4F6883C95E3F
:103FF000D540CA51DA4F7883C65ED5400E94E76C3F
:10400000C951DA4F4881C75ED540C851DA4F58814F
:10401000C85ED540C751DA4F6881C95ED540CA51E4
:10402000DA4F7881C65ED5400E94EF6B19820E94FC
:104030001DA90C948517D801CD907D01D12C0E942B
:10404000CCA881019601A701BC01C5010E944B9437
:10405000F10180819181892B11F00C94C3173201F9
:10406000FFEF6F1A7F0A85E8F501DE01A35DBB4F04
:1040700001900D928A95E1F7D5018D909D90AD90BC
:10408000BC90C12CD12C00E010E0EE24E394F12C84
:10409000C454DA4F79826882CC5BD540C054DA4F81
:1040A00059824882C05CD540C701002E02C0880FEB
:1040B000991F0A94E2F7092E000CAA0BBB0B88216A
:1040C0009921AA21BB21892B8A2B8B2B09F0AEC306
:1040D0000F5F1F4F0330110539F7C454DA4F688062
:1040E0007980CC5BD540C054DA4F48805980C05CA1
:1040F000D54019820E9447A90C94ED16D801CD90A5
:104100007D01D12C0E9499A881019601A701BC01D3
:10411000C5010E944B94F10180819181892B11F09E
:104120000C94C3170E944433DC0111964C911197F3
:1041300012962C91129713963C91822F90E0A0E05A
:10414000B0E0BA2FA92F982F8827A42B832B89831F
:104150009A83AB83BC830E9414A90C948517D80161
:10416000CD907D01D12C0E94BAA881019601A701B2
:10417000BC01C5010E944B94F10180819181892B82
:1041800011F00C94C3170E94246B60E070E00E9451
:104190005A6A6A837B838C839D830E94246B61E0CF
:1041A00070E00E945A6A6E837F83888799870E9495
:1041B000246B62E070E00E945A6A6A877B878C8772
:1041C0009D8783E089830E9435A90C948517F801A7
:1041D000C1907F01D12C0E94F6A881019601A70110
:1041E000BC01C5010E944B94D1018D919C91892BFA
:1041F00011F00C94C3176201BFEFCB1ADB0A0E94C7
:10420000B34D7C0100E010E00E94CC58B8010E9440
:104210000F550E94CC5840E050E0B8010E94AE54C7
:104220000F5F1F4F0330110579F7F701BD9686E048
:10423000DF011D928A95E9F719820E9471A9DACBF4
:10424000F801C1907F01D12C0E949FA881019601A5
:10425000A701BC01C5010E944B94D1018D919C9195
:10426000892B11F00C94C3170E94E76CFC0181812B
:104270009281A381B48189839A83AB83BC830E949A
:104280001AA90C948517D801CD907D01D12C0E94DC
:10429000E1A881019601A701BC01C5010E944B94D0
:1042A000F10180819181892B11F00C94C3170E9438
:1042B000FC500E94D30260E070E00E94AD0223ED4A
:1042C00038E44EE85EE30E946DAE69837A838B83A7
:1042D0009C830E945CA90C948517D801CD907D0128
:1042E000D12C0E94EAA881019601A701BC01C50159
:1042F0000E944B94F10180819181892B11F00C94E3
:10430000C3176201FFEFCF1ADF0A0E94B745809101
:10431000270290912802A0912902B0912A02898354
:104320009A83AB83BC839E012F5F3F4F59013901B4
:1043300000E010E088248394912C62E0E62EF12CBA
:104340000E94CC58B8010E9458558130910509F45B
:10435000E1C40CF455C28230910509F4E1C403971D
:1043600029F424E030E0F301368325830F5F1F4FEB
:1043700032E0630E711C0330110511F783E08D8369
:104380000E9465A908CCF801C1907F01D12C0E9440
:10439000A5A881019601A701BC01C5010E944B940B
:1043A000D1018D919C91892B11F00C94C31762015E
:1043B000BFEFCB1ADB0AF501418152816381748121
:1043C0008081F401811195C5EF5BFF4F0081118160
:1043D0000E94B745B8010E944E45F401ED5BFF4FC6
:1043E0001082CE0101965C0119820E9420A9D3CBD4
:1043F000F801C1907F01D12C0E949CA881019601F7
:10440000A701BC01C5010E944B94D1018D919C91E3
:10441000892B11F00C94C317F501C080D180E28084
:10442000F380A701662777278D2C9E2CAF2CBB2409
:10443000C951DA4F4883C75ED540C851DA4F588317
:10444000C85ED540C751DA4F6883C95ED540CA51AE
:10445000DA4F7883C65ED5400E944433C951DA4FA3
:104460004881C75ED540582D6C2D0E94AF320E9406
:104470004433DC011C9219820E9417A90C94851701
:10448000D801CD907D01D12C0E94EDA8810196012B
:10449000A701BC01C5010E944B94F101808191816B
:1044A000892B11F00C94C31719821A821B821C826B
:1044B0000E9468A90C948517F801C1907F01D12C46
:1044C0000E9405A981019601A701BC01C5010E94B6
:1044D0004B94D1018D919C91892B11F00C94C317B1
:1044E0006201BFEFCB1ADB0AF501148100810E9443
:1044F0005A70212FAE014E5F5F4F602F0E94F76F01
:10450000892BA9F70E945A700E94467019830E9455
:1045100080A970CAF801C1907F01D12C0E94E7A840
:1045200081019601A701BC01C5010E944B94D101F4
:104530008D919C91892B11F00C94C3176201BFEFF0
:10454000CB1ADB0A0E94FC50FC01818592850397FF
:104550008330910508F0EDC4880F991FFC01ED51DF
:10456000FD4F808191819A8389830E9462A942CA0A
:1045700084E090E0F101918380830C94C317D8010B
:10458000CD907D01D12C0E94B1A881019601A70197
:10459000BC01C5010E944B94F10180819181892B5E
:1045A00011F00C94C3170E94246B60E070E00E942D
:1045B000EE6A092E000CAA0BBB0B8A839B83AC838B
:1045C000BD830E94246B61E070E00E94EE6A092EB8
:1045D000000CAA0BBB0B8E839F83A887B9870E9410
:1045E000246B62E070E00E94EE6A092E000CAA0BB8
:1045F000BB0B8A879B87AC87BD8783E089830E943A
:104600002CA90C948517D801CD907D01D12C0E9446
:10461000AEA881019601A701BC01C5010E944B947F
:10462000F10180819181892B11F00C94C3176201F3
:10463000FFEFCF1ADF0AD5018C9181117DC41A8258
:1046400019821C821B820E94CC589E012F5F3F4F13
:104650005901B9010E94155519820E9429A99BCAC6
:10466000D801CD907D01D12C0E94BDA88101960179
:10467000A701BC01C5010E944B94F1018081918189
:10468000892B11F00C94C3170E94246B60E070E03A
:104690000E94106A6A837B838C839D830E94246BB3
:1046A00061E070E00E94106A6E837F83888799873B
:1046B0000E94246B62E070E00E94106A6A877B8728
:1046C0008C879D8783E089830E9438A90C94851785
:1046D000D801CD907D01D12C0E94FFA881019601C7
:1046E000A701BC01C5010E944B94F1018081918119
:1046F000892B11F00C94C317D5011496DC901497F4
:1047000015960C911597ED90FC900E949034302FE7
:104710002D2DAE014E5F5F4FB7010E945E33D982EF
:104720000E947AA90C9485176201FFEFCF1ADF0A65
:10473000D5018C918111B2C3D40114968D919C91B5
:1047400015979A83898316968D919C9117979C83D0
:104750008B830E94914FFE0131965F01AF0160E0B3
:1047600070E00E94F94ED40118968D919C91199792
:104770009A8389831A968D919C911B979C838B8336
:104780000E94914FA50161E070E00E94F94EF40192
:10479000848595859A838983868597859C838B8379
:1047A0000E94914FA50162E070E00E94F94E1982CB
:1047B0000E9423A9F0C9C553DA4F48805980CB5CC9
:1047C000D540C353DA4F28803980CD5CD540C153E2
:1047D000DA4FA880B980CF5CD54019820E946EA9BB
:1047E0007101820120E830E0CB52DA4F48815981D3
:1047F000C55DD540BC01C5010E9409940C94C31746
:10480000892B09F0B3CDD3011696FC92EE92159741
:10481000ADCD0E94CC58B8010E940F550E94CC58D3
:1048200040E050E0B8010E94AE5489CAF601EE0F94
:10483000FF1FEE0FFF1F7DE2672E74E0772E6C0ED8
:104840007D1EE60DF71D45805680678070840E94AE
:10485000246BA3019201B8010E94FE6A0E94CC5809
:104860009801220F331F820F931FDC018D919C91C1
:10487000892B41F1C651DA4F2883CA5ED540CA510F
:10488000DA4F3883C65ED5400E94CC58C651DA4F05
:104890002881CA5ED540CA51DA4F3881C65ED540FC
:1048A000820F931FFC0180819181DC01ED91FC91CD
:1048B000028CF38DE02DB3E0E930FB0719F0B30172
:1048C000A2010995EFEFCE1ADE0A02CCF601EE0F37
:1048D000FF1FEE0FFF1FB2EB6B2EB4E07B2E6C0EB2
:1048E0007D1EE60DF71D458056800E94246BA201B7
:1048F000B8010E94E16A0E94CC583801660C771C0E
:10490000860D971DDC018D919C91892B99F00E9459
:10491000CC58860D971DFC0180819181DC01ED91C1
:10492000FC91008CF18DE02DB3E0E830FB0711F035
:10493000B2010995EFEFCE1ADE0A14CBF601EE0FA5
:10494000FF1FEE0FFF1FC054DA4F68807980C05CF4
:10495000D540E60DF71D45805680678070840E9423
:10496000246BA3019201B8010E94496A0E94CC58AD
:104970009801220F331F820F931FDC018D919C91B0
:10498000892B41F1C651DA4F2883CA5ED540CA51FE
:10499000DA4F3883C65ED5400E94CC58C651DA4FF4
:1049A0002881CA5ED540CA51DA4F3881C65ED540EB
:1049B000820F931FFC0180819181DC01ED91FC91BC
:1049C0000088F189E02DB3E0E430FB0719F0B30172
:1049D000A2010995EFEFCE1ADE0A72C9F601EE0FB9
:1049E000FF1FEE0FFF1FCC53DA4F68807980C45C45
:1049F000D540E60DF71D45805680678070840E9483
:104A0000246BA3019201B8010E94236A0E94CC5832
:104A10009801220F331F820F931FDC018D919C910F
:104A2000892B41F1C651DA4F2883CA5ED540CA515D
:104A3000DA4F3883C65ED5400E94CC58C651DA4F53
:104A40002881CA5ED540CA51DA4F3881C65ED5404A
:104A5000820F931FFC0180819181DC01ED91FC911B
:104A60000684F785E02DB3E0E330FB0719F0B301CE
:104A7000A2010995EFEFCE1ADE0A0C944018F60158
:104A8000EE0FFF1FEE0FFF1F74E9672E772473945C
:104A90006C0E7D1EE60DF71D458056806780708484
:104AA0000E94246BA3019201B8010E94956A0E94A2
:104AB000CC589801220F331F820F931FDC018D9178
:104AC0009C91892B41F1C651DA4F2883CA5ED540AB
:104AD000CA51DA4F3883C65ED5400E94CC58C651C1
:104AE000DA4F2881CA5ED540CA51DA4F3881C65E96
:104AF000D540820F931FFC0180819181DC01ED91F3
:104B0000FC910488F589E02DB3E0E630FB0719F04D
:104B1000B301A2010995EFEFCE1ADE0A0C946A19CF
:104B2000F601EE0FFF1FEE0FFF1FC454DA4F68802F
:104B30007980CC5BD540E60DF71D458056806780B7
:104B400070840E94246BA3019201B8010E94016A43
:104B50000E94CC589801220F331F820F931FDC0153
:104B60008D919C91892B41F1C651DA4F2883CA5E01
:104B7000D540CA51DA4F3883C65ED5400E94CC5822
:104B8000C651DA4F2881CA5ED540CA51DA4F388102
:104B9000C65ED540820F931FFC0180819181DC01AC
:104BA000ED91FC910484F585E02DB3E0E230FB0744
:104BB00019F0B301A2010995EFEFCE1ADE0A0C94A9
:104BC0000119F601EE0FFF1FEE0FFF1FBFE06B2E66
:104BD000772473946C0E7D1EE60DF71D458056807C
:104BE000678070840E94246BA3019201B8010E9427
:104BF000BB6A0E94CC589801220F331F820F931F6B
:104C0000DC018D919C91892B41F1C651DA4F2883AB
:104C1000CA5ED540CA51DA4F3883C65ED5400E947D
:104C2000CC58C651DA4F2881CA5ED540CA51DA4FF6
:104C30003881C65ED540820F931FFC01808191812F
:104C4000DC01ED91FC910688F789E02DB3E0E730B7
:104C5000FB0719F0B301A2010995EFEFCE1ADE0AA6
:104C60000C94D916F601EE0FFF1FEE0FFF1FB9E1EE
:104C70006B2EB2E07B2E6C0E7D1EE60DF71D45807F
:104C80005680678070840E94246BA3019201B80152
:104C90000E946F6A0E94CC589801220F331F820F26
:104CA000931FDC018D919C91892B41F1C651DA4F04
:104CB0002883CA5ED540CA51DA4F3883C65ED540D4
:104CC0000E94CC58C651DA4F2881CA5ED540CA51DD
:104CD000DA4F3881C65ED540820F931FFC01808178
:104CE0009181DC01ED91FC910288F389E02DB3E024
:104CF000E530FB0719F0B301A2010995EFEFCE1AD9
:104D0000DE0A0C945A1682E090E0F40191838083CD
:104D10000C94101CD30116961C921E92159726CB4C
:104D2000F3019682858222CB87E0E82EF12C0C9449
:104D3000941EF401332309F4ABC115A216A217A2E5
:104D400010A6818F928FA38FB48F81E0808B80EA31
:104D500092E19A8389839C828B820E94B74528ECDA
:104D600030E040E050E0BE016F5F7F4F5B010E948A
:104D70004F46D40154969C938E9353970C94871D61
:104D8000019711F00C94921CD2018D919C9182306C
:104D9000910509F4FDC18330910509F4C6C101975D
:104DA00011F00C94921CF6012081318142815381D3
:104DB000C651DA4F2883CA5ED540CA51DA4F3883CC
:104DC000C65ED540C951DA4F4883C75ED540C85149
:104DD000DA4F5883C85ED5400E94CC58C651DA4F8E
:104DE0002881CA5ED540CA51DA4F3881C65ED540A7
:104DF000C951DA4F4881C75ED540C851DA4F588152
:104E0000C85ED540B3010E9481550C94921C0E944B
:104E1000CC589301220F331F820F931FDC010D9199
:104E20001C910115110511F40C949A1CF801E080F5
:104E3000F18020E030E04AE754E4D5016D917D91A6
:104E40008D919C910E942EB00E94E6AEAB01BC01F8
:104E5000D7019296ED91FC919397C8010995C6539D
:104E6000DA4FB881CA5CD540BB2311F40C949A1C6C
:104E7000F10180819181D801ED91FC9104A0F5A10F
:104E8000E02D8130910509F425C2029709F41CC276
:104E900061E070E0C80109950C949A1C8EE39FE0D4
:104EA0009A8389839C828B820E94914FFE01319666
:104EB0005F01AF0160E070E00E94F94E8DE19EE07D
:104EC0009A8389839C828B820E94914FA50161E025
:104ED00070E00E94F94E8CED9DE09A8389839C825C
:104EE0008B820E94914FA50162E070E00E94F94E12
:104EF0005ECCFD964083518362837383369681E056
:104F000080838CE19CE09A8389839C828B820E94BF
:104F1000B74528EC30E040E050E0BE016F5F7F4FC6
:104F20005B010E944F46F401EF5BFF4F918380834A
:104F30005BCA80E090E017CB86E194E19A83898395
:104F40009C828B820E94CC58FE0131965F01BF018A
:104F50000E94155581CBD2018D919C918230910593
:104F600009F47EC18330910509F446C1019711F01F
:104F70000C94921CF6012081318142815381C651EB
:104F8000DA4F2883CA5ED540CA51DA4F3883C65EED
:104F9000D540C951DA4F4883C75ED540C851DA4F72
:104FA0005883C85ED5400E94CC58C651DA4F28813C
:104FB000CA5ED540CA51DA4F3881C65ED540C95164
:104FC000DA4F4881C75ED540C851DA4F5881C85E74
:104FD000D540B3010E9424560C94921CD2018D91AD
:104FE0009C918130910509F49AC0029711F00C94BC
:104FF000921CD6012D913D914D915C91CF52DA4F8B
:10500000288339834A835B83C15DD5400E94B34DB9
:10501000B3010E9407479B01AC01CF52DA4F688170
:1050200079818A819B81C15DD5400E94FCAD9B0145
:10503000AC01C651DA4F2883CA5ED540CA51DA4F57
:105040003883C65ED540C951DA4F4883C75ED54024
:10505000C851DA4F5883C85ED5400E94CC58C6511B
:10506000DA4F2881CA5ED540CA51DA4F3881C65E10
:10507000D540C951DA4F4881C75ED540C851DA4F93
:105080005881C85ED540B3010E9429580C94921CE7
:10509000A388B4880E94B745B5010E944E45D4014B
:1050A00050961C92FE0131965F010C94871D559617
:1050B0006D907C9056970E94B745B3010E944E4573
:1050C000F401118A0C94B71D9D961D921D921D929C
:1050D0001C92D097C454DA4F288139814A815B8170
:1050E000CC5BD54091962D933D934D935C939497D3
:1050F00081E052968C938AE691E19A8389839C821F
:105100008B820E94B74528EC30E040E050E0B501CA
:105110000E944F46F401908F878B0C94C81DF601B6
:10512000208131814281538184CF0E94CC58B301C8
:105130000E940F55F60160817181828193810E94E6
:10514000DFAEAB01BC01C951DA4F4883C75ED54021
:10515000C851DA4F5883C85ED540C751DA4F6883CB
:10516000C95ED540CA51DA4F7883C65ED5400E94E9
:10517000CC58C951DA4F4881C75ED540C851DA4F83
:105180005881C85ED540B3010E94AE540C94921C65
:10519000D6012D913D914D915C91C651DA4F2883F6
:1051A000CA5ED540CA51DA4F3883C65ED540C95170
:1051B000DA4F4883C75ED540C851DA4F5883C85E7E
:1051C000D5400E94CC58C651DA4F2881CA5ED540DE
:1051D000CA51DA4F3881C65ED540C951DA4F48818D
:1051E000C75ED540C851DA4F5881C85ED540B3017B
:1051F0000E94F9550C94921CF60120813181428164
:105200005381C651DA4F2883CA5ED540CA51DA4F5E
:105210003883C65ED540C951DA4F4883C75ED54052
:10522000C851DA4F5883C85ED5400E94CC58C65149
:10523000DA4F2881CA5ED540CA51DA4F3881C65E3E
:10524000D540C951DA4F4881C75ED540C851DA4FC1
:105250005881C85ED540B3010E94F2560C94921C4E
:10526000D6012D913D914D915C91C651DA4F288325
:10527000CA5ED540CA51DA4F3883C65ED540C9519F
:10528000DA4F4883C75ED540C851DA4F5883C85EAD
:10529000D5400E94CC58C651DA4F2881CA5ED5400D
:1052A000CA51DA4F3881C65ED540C951DA4F4881BC
:1052B000C75ED540C851DA4F5881C85ED540B301AA
:1052C0000E94C7560C94921C60E070E0C8010995DA
:1052D0000C949A1C62E070E0C80109950C949A1C29
:1052E0002F923F924F925F926F927F928F929F92F6
:1052F000AF92BF92CF92DF92EF92FF920F931F93E4
:10530000CF93DF93CDB7DEB7C25AD4400FB6F8942F
:10531000DEBF0FBECDBF4C018B01DB011A962C9175
:105320001A9727FD89C1243009F4A0C2FB018589A1
:1053300087FD1AC0CE55DB4F0FB6F894DEBF0FBE07
:10534000CDBFDF91CF911F910F91FF90EF90DF9034
:10535000CF90BF90AF909F908F907F906F905F9015
:105360004F903F902F9008957E01FAE1EF1AFCEFE5
:10537000FF0A86E8D7011D928A95E9F7FB01608153
:105380007181218D822F90E09595879595958795D0
:105390008370922F9295969596959370823009F42A
:1053A00037C1833009F418C423E030E0923009F4A7
:1053B00034C1933009F417C440E050E068507109DB
:1053C000621B730B641B750BA801435E5F4F823039
:1053D00009F40EC4833009F012C42AE030E09230A0
:1053E00009F409C4933009F001C4C9010896840F77
:1053F000951F02960E946897C657DB4F2883CA58AC
:10540000D440C557DB4F3883CB58D440C457DB4F0B
:105410004883CC58D440C357DB4F5883CD58D44031
:10542000C257DB4F6883CE58D440C157DB4F7883D7
:10543000CF58D440C057DB4F8883C059D440CF5693
:10544000DB4F9883C159D440A70168EE7CE0CE01C0
:1054500086579B4F0E94A59E882309F4B5C3D701A8
:1054600011964D915D916D917C9114978BE0F801AF
:105470003D96DE01A958BB4F01900D928A95E1F748
:105480003E01BCEC6B1ABDEF7B0A8BE0FE01E958D4
:10549000FB4FD30101900D928A95E1F7DD24D3945F
:1054A000F301D3864487558766877787F80182851D
:1054B000882309F4C6C3823009F03CCFF40180810F
:1054C00081116DC58E010F5F1F4F89E2D8011D92BA
:1054D0008A95E9F7F701658170E0C70106960E9499
:1054E0006897CE57DB4F2883C258D440CD57DB4F47
:1054F0003883C358D440CC57DB4F4883C458D4407A
:10550000CB57DB4F5883C558D440CA57DB4F68830D
:10551000C658D440C957DB4F7883C758D440C857C2
:10552000DB4F8883C858D440C757DB4F9883C9588E
:10553000D440A80168E17DE0CE018E579B4F0E94C8
:10554000A59E882309F440C38981882309F480C576
:105550008E010E5F1F4FE12CF12C0BC0FFEFEF1AF5
:10556000FF0A0B5F1F4F298130E0E216F3060CF0B3
:10557000E1CE0E94FB44BC016154764FC8010E94F9
:10558000E4B3892B59F78BE0F301DE01A459BB4F3B
:1055900001900D928A95E1F70E94FB44C459DB4FBC
:1055A000C880CC56D440C359DB4FD880CD56D440A8
:1055B000C259DB4FE880CE56D440C159DB4FF8804A
:1055C000CF56D440C059DB4F0881C057D440CF5884
:1055D000DB4F1881C157D440CE58DB4F2881C257CA
:1055E000D440CD58DB4F3881C357D440CC58DB4F23
:1055F0004881C457D440CB58DB4F5881C557D4405D
:10560000CA58DB4F6881C657D4400E948E4192CE63
:10561000923009F0F7C225E030E06A507109621B50
:10562000730BA801435E5F4F823009F401C38330DE
:1056300009F0E4C292E0D1CE5596DC9048E050E00B
:10564000635F7F4FCE018A519C4FCF55DB4F28833C
:10565000C15AD4400E94F4B37E01B9E3EB1ABDEF06
:10566000FB0A83E9F70111928A95E9F785E0FE01CB
:10567000EA51FC4FD70101900D928A95E1F7CF5581
:10568000DB4F2881C15AD44080E8820F90E0A0E02F
:10569000B0E0F70185839683A783B0878D2D90E0D6
:1056A000A0E0B0E081879287A387B487D8016D918D
:1056B0007C91119759962C91822F90E09595879522
:1056C000959587958370922F929596959695937060
:1056D000823009F44FC3833009F49FC223E030E0E5
:1056E000923009F455C3933009F49FC240E050E072
:1056F00068507109621B730B641B750B035E1F4FAF
:10570000823009F45CC3833009F056C34AE050E0AC
:10571000923009F44CC3933009F047C39A01285FD3
:105720003F4FC801820F931F02960E946897C65A86
:10573000DC4F2883CA55D340C55ADC4F3883CB553C
:10574000D340C45ADC4F4883CC55D340C35ADC4FB6
:105750005883CD55D340C25ADC4F6883CE55D340D1
:10576000C15ADC4F7883CF55D340C05ADC4F888371
:10577000C056D340CF59DC4F9883C156D340A701C0
:10578000435F5F4F68EE7CE0CE01865A9C4F0E94DB
:10579000A59E882309F418C2F401C388D4883E0169
:1057A000FCEC6F1AFDEF7F0A83E9F701D30101904A
:1057B0000D928A95E1F79E012F5F3F4F590182E3D9
:1057C00091E0D901FC011D923197E9F781E090E069
:1057D0009A838983C355DF4F8883CD5AD040E0ED4B
:1057E000F2E012E720E030E0A90101C01191A5E646
:1057F000B0E00E9481AD9B01AC01210F311D411D24
:10580000511D82E0E23EF80789F7C255DF4F288339
:1058100039834A835B83CE5AD040C459DB4F198207
:105820001882CC56D4400E94BCA9DE01A459BB4FBB
:105830007D018E010E541F4F20E830E0AE014D5423
:105840005F4FBC01C3010E940994C459DB4F88819A
:105850009981CC56D440892B09F4B4C20E944433B8
:105860004FEF50E06FEF0E94AF3264CD0E94F38A99
:10587000DC01ED91FC910190F081E02DB8010995DA
:1058800059CDD4011196BC91CB56DB4FB883C55985
:10589000D440F401F381CA56DB4FF883C659D44093
:1058A000D4011496BC91C956DB4FB883C759D44074
:1058B000F401A281B0E0F3013080F281C856DB4FE1
:1058C000F883C859D440F301F381C756DB4FF883FE
:1058D000C959D440F3018181E82FF0E0C956DB4F6C
:1058E0002881C759D44030E040E050E060E070E0EB
:1058F00080E090E008E10E948CADB32E6A01E62EB4
:10590000CB56DB4F3881C559D440322BCC56DB4FB8
:105910003883C459D4407264F72E8265482E192FFB
:105920001264CA56DB4F2881C659D44030E040E0AB
:1059300050E060E070E080E090E000E10E948CAD1B
:105940002B2C232AC42AC656DB4FC882CA59D440FE
:10595000D52AC556DB4FD882CB59D440E62AC45647
:10596000DB4FE882CC59D440F72AC356DB4FF8828C
:10597000CD59D440482A512E592A9A2F88275C01A4
:10598000CC56DB4F4881C459D440422BCC56DB4F18
:105990004883C459D4402B28C756DB4F2881C959A6
:1059A000D44030E040E050E060E070E080E090E023
:1059B00008E10E948CADB32E6A01162F2329C2562E
:1059C000DB4F2883CE59D4407264F72E8265C156CE
:1059D000DB4F8883CF59D4409264C056DB4F988305
:1059E000C05AD440C856DB4F2881C859D44030E053
:1059F00040E050E060E070E080E090E000E10E9474
:105A00008CADA22EB32ACE55DB4FB882C25AD440F9
:105A1000C42AD52AE12EE62AF72AC156DB4F08818F
:105A2000CF59D440082BC056DB4F1881C05AD44000
:105A3000192B5E2F44279A01C256DB4FB880CE59EE
:105A4000D440AB28CE55DB4FB880C25AD440B32ADD
:105A5000CC56DB4F2881C459D440322DC656DB4F7B
:105A60004881CA59D440C556DB4F5881CB59D440E0
:105A7000C456DB4F6881CC59D440C356DB4F788184
:105A8000CD59D440C2010E94C3ADA1F0CB56DB4F2B
:105A90002881C559D440B22BF329AE17BF0709F4AA
:105AA00024C3B4016F5F7F4FC3010E94E4B3892B0D
:105AB00009F02AC2C25ADC4F88819981CE55D34061
:105AC000019709F483C2D40151962D903C905297CE
:105AD0008CE8FE01E65AFC4FDE01A953BD4F019050
