:100000000C9475010C9494010C9494010C9494013B
:100010000C9494010C9494010C9494010C9494010C
:100020000C9494010C9494010C9494010C949401FC
:100030000C9494010C9494010C9494010C949401EC
:100040000C9494010C9494010C9494010C949401DC
:100050000C9494010C9494010C9494010C949401CC
:100060000C9494010C943E340C9494010C949401DF
:100070000C9494010C947D020C9494010C949401C2
:100080000C9494010C9494010C9494010C9494019C
:100090000C9490340C9494010C9494010C9451742D
:1000A0000C9494010C9494010C9494010C9494017C
:1000B0000C9494010C9494010C9494010C946A4A4D
:1000C0000C9494010C9494010C9494010C9494015C
:1000D0000C9494010C9494010C9494010C9494014C
:1000E0000C9494010C9494010C9494010C9415417B
:1000F0000C944B480C9494010C9494010C94F04291
:100100000C9494010C9494010C9494010C9494011B
:100110000C9494010C9494010C9494010C9494010B
:100120009776EF758076EF7520762076EF7561769D
:100130004A76FE75EF75EF75EF75EF75EF75EF7534
:10014000EF75EF75EF75EF75EF75EF75EF75EF758F
:10015000EF75EF75EF75EF75EF75EF75EF75EF757F
:10016000EF75EF75EF75EF75EF75EF75EF75EF756F
:10017000EF75EF75EF75EF75EF75EF75EF75EF755F
:10018000EF75EF75EF75EF75EF75EF75EF75EF754F
:10019000EF75EF75EF75EF75EF75EF75EF75EF753F
:1001A000EF75EF75EF75EF75EF75EF75EF75B3766A
:1001B000668E0A8EB08D5A8DDA8CD18CCB8C7D8C6C
:1001C000278C1E8C078C018CC08E05A84CCDB2D418
:1001D0004EB93836A9020C50B9918688083CA6AAB7
:1001E000AA2ABE000000803F6E616E00696E660044
:1001F00000407A10F35A00A0724E18090010A5D4DE
:10020000E80000E87648170000E40B54020000CA3A
:100210009A3B000000E1F505000080969800000080
:1002200040420F000000A0860100000010270000DF
:100230000000E803000000006400000000000A0065
:10024000000000000100000000002C76D888DC6768
:100250004F0823DFC1DFAE59E1B1B796E5E3E453C0
:10026000C63AE651997696E8E6C28426EB898C9BDD
:1002700062ED407C6FFCEFBC9C9F40F2BAA56FA57D
:10028000F490055A2AF75C936B6CF9676DC11BFCFF
:10029000E0E40D47FEF520E6B500D0ED902E03001A
:1002A000943577050080841E080000204E0A000067
:1002B00000C80C333333330F986E12831141EF8D26
:1002C0002114893BE65516CFFEE6DB18D1844B3866
:1002D0001BF77C1D901DA4BBE424203284725E2297
:1002E0008100C9F124ECA1E53D2711241FBECFEF09
:1002F000D1E4DEBFCDBF1FE0A0E0B2E0E6E0FBE767
:1003000001E00BBF02C007900D92AC3FB107D9F7D7
:100310002EE1ACEFBFE001C01D92AD3BB207E1F7AB
:100320000E94DA090C9481BD0C9400000895089590
:10033000E82FF0E0E05CFE4F60830895E82FF0E0E6
:10034000E05CFE4F80810895E82FF0E0E05CFE4F16
:1003500080816823862F90E002C0959587954A9505
:10036000E2F70895922FE82FF0E0E05CFE4F262F91
:10037000209580818223292F01C0220F4A95EAF718
:100380002623282B2083089587FD8FE78093800103
:10039000482F50E081E891E00C9468BCEF92FF9206
:1003A0001F93CF93DF937A0110917B01161708F406
:1003B000612FC62FD0E0AE0160E871E00E9468BCFA
:1003C000C058DE4F8881F7018083812FDF91CF9164
:1003D0001F91FF90EF900895FF920F931F93CF937B
:1003E000DF938C01F62EEA01209751F047E060E898
:1003F00086E00E94A40191E0813009F090E09883AA
:1004000040E050E06F2DC801DF91CF911F910F9117
:10041000FF900C94CE01CF92DF92FF920F931F9327
:10042000CF93DF938C01F62E6A01E901209751F0FA
:1004300047E060E886E00E94A40191E0813009F085
:1004400090E09883A6016F2DC801DF91CF911F9195
:100450000F91FF90DF90CF900C94CE0180917B01A3
:100460000895FA01282F30E0A901460F511D4038A8
:1004700051051CF09FE7692F681B462F50E0BF0114
:10048000C90180589E4F0C9468BCFA01282F30E0B7
:10049000A901460F511D4038510514F06FE7681B44
:1004A000462F50E0B90160587E4FCF010C9468BCD4
:1004B0000E94F6370E943F37FC0180818230C1F0F4
:1004C0008DEC9CECACECBFE320EC20937C00109214
:1004D0007B002FEE20937A0080930C1090930D10E8
:1004E000A0930E10B0930F1081E080931010089528
:1004F00080E090E0A0EABFE3E7CF1F920F920FB633
:100500000F9211240BB60F921F932F933F934F938B
:100510005F936F937F938F939F93AF93BF93CF938B
:10052000DF93EF93FF9380910B028F5F80930B0219
:10053000833008F442C010920B02D09178001091E1
:100540007900C0910A02809110108823E1F18C2F6C
:10055000C83060F4EC2FF0E0EE0FFF1FE450F04FD6
:1005600013702D2F30E0312B318320838F5F883043
:1005700038F580930A0280917C00807E80937C0015
:1005800090917C0080910A02892B80937C00FF91DE
:10059000EF91DF91CF91BF91AF919F918F917F911B
:1005A0006F915F914F913F912F911F910F900BBED3
:1005B0000F900FBE0F901F9018958111E8CFBDCFFF
:1005C00010920A02D8CF0E94580280910A02C0CF2E
:1005D0006830710540F4660F771FFC01E60FF71FC6
:1005E00080819181089580E090E00895CF93DF931A
:1005F00068307105D8F4FB01EC01EE0FFF1FEC0F22
:10060000FD1F6081718180E090E00E94A9B7288978
:1006100039894A895B890E94C2B820E030E040E80D
:100620005AE30E94C2B8DF91CF91089560E070E074
:10063000CB01DF91CF91089580911010811102C0FC
:100640000E9458028CEF9FE00895DA011496ED9114
:10065000FC911597309739F0AB01BC0116968D913E
:100660009C911797099408956115710529F021E06F
:1006700030E0DB012D933C93DA01ED91FC91119771
:10068000309731F0682F12968D919C9113970995B0
:1006900080E090E0089508950895089508950895DC
:1006A000089508950895DC01ED91FC910480F58191
:1006B000E02D09940C9496550C94F1540C94B75C6D
:1006C0000C94EA58CF93DF9300D0CDB7DEB79E01EC
:1006D0002F5F3F4F08960E947E9B0F900F90DF91F7
:1006E000CF9108950F931F9300E010E020E030E0D9
:1006F00040E050E008960E94F4971F910F910895F2
:100700002F923F924F925F926F927F928F929F9221
:10071000AF92BF92CF92DF92EF92FF920F931F930F
:10072000CF93DF93CDB7DEB7C657D6400FB6F89458
:10073000DEBF0FBECDBF6C015A01CE018B5C9C4F5A
:100740000E9468BCCB5CDB4FA882C553D440D60165
:10075000CD90DC9081E091E0FE01EB5CFC4FDE018E
:10076000AC5CBD4F01900D920197E1F70E94239C74
:10077000950133278E010F58194FAE014C5C5D4F28
:10078000BC01CE018D519A4F0E946B9CCF58D94F1E
:1007900088819981C157D640892B09F10E94AA36D8
:1007A0004FEF50E060E00E941536CA58D94F0FB69F
:1007B000F894DEBF0FBECDBFDF91CF911F910F9197
:1007C000FF90EF90DF90CF90BF90AF909F908F9071
:1007D0007F906F905F904F903F902F9008958CE89E
:1007E000FE01ED51FA4FDE01A95ABA4F01900D9268
:1007F0008A95E1F7FE0131964F0182E391E0DF0136
:10080000FC011D923197E9F781E0C855DF4F8883DD
:10081000C85AD040C95ADA4F488159816A817B81D0
:10082000C755D540C755DF4F488359836A837B83BB
:10083000C95AD0408B83C55ADA4F28813981CB55AC
:10084000D5402130310509F48BC02230310509F43F
:1008500041C0232B09F492C022E030E03D832C8379
:100860008F8F83E090E099A388A3FE01E159F94FAF
:100870005F019E012D5C3E4F39010E94269C75014F
:100880008E010D5C1D4F20E031E0A301BC01C401CD
:100890000E94299CD5018D919C91892B09F07ECFD6
:1008A000CD5CDD4F4881C353D24050E0D601ED917D
:1008B000FC91309709F479CFB301D60112968D914E
:1008C0009C9113970995F50180819181892B09F4F9
:1008D0006CCF64CFC35ADA4F9881CD55D540992358
:1008E00009F4BCCFC25ADA4F88819981AA81BB81B1
:1008F000CE55D5408D3938E1930739EFA3073FEB4B
:10090000B30709F49DC008F05BC0803750EE95072F
:1009100054E8A50754E6B50709F4A4C18F3DE0EEFD
:100920009E07EDEEAE07EFE6BE0709F444C180373F
:10093000934EA844B64209F4D5C194E080E0FE018C
:10094000E159F94F5F019E012D5C3E4F390122E0D4
:1009500030E03D832C8321E02F8F98A389A38DCF96
:1009600022E030E03D832C838F8FCE018159994F57
:100970005C01DE01AD5CBE4F3D017FCF8E8383E025
:1009800090E0A0E0B0E08B879C87AD87BE8781E0D8
:1009900090E0A0E0B0E08F8B988FA98FBA8F82E0B3
:1009A00090E0A0E0B0E08B8F9C8FAD8FBE8F9E015A
:1009B0002159394F5901AE014D5C5E4F3A015DCF6F
:1009C000833024E192072CEAA2072DEDB20709F447
:1009D00019C286393EE4930732EEA3073FEFB3070F
:1009E00009F4DEC1803C9342A347B04D09F0A5CF86
:1009F000CE59DA4F4880C256D540512C0E9438B2A9
:100A00005E01F1E9AF1AF9EFBF0A3E012DEC621A5F
:100A10002EEF720A8501920147E555E04C0F5D1FEC
:100A2000445F5F4FBC01C3010E946B9CD5012D91B7
:100A30003C912115310509F41AC2922F832F87CFDB
:100A4000CE59DA4F4880C256D540512C0E9435B25B
:100A50005E01F1E9AF1AF9EFBF0A3E012DEC621A0F
:100A60002EEF720A8501920147E555E04C0F5D1F9C
:100A7000445F5F4FBC01C3010E946B9CD5012D9167
:100A80003C9121153105C9F61E01BAEC2B1ABBEFBA
:100A90003B0A83E9F301D10101900D928A95E1F7B8
:100AA00080911C02882309F442C0F10185858823C6
:100AB000F1F14685578560897189F60184819581B8
:100AC000A681B781481759076A077B0781F14483DC
:100AD000558366837783CD58D94F4883C357D64013
:100AE000CC58D94F5883C457D640CB58D94F688378
:100AF000C557D640CA58D94F7883C657D6400E94AA
:100B00003C4ACD58D94F4881C357D640CC58D94FCD
:100B10005881C457D640CB58D94F6881C557D64065
:100B2000CA58D94F7881C657D6400E943747F1013D
:100B300081859285A385B48580389105A105B1058D
:100B400008F413C280E090E0DC0123E030E0FE0115
:100B5000E753FB4F2F01F20131832083828393837C
:100B6000A483B5830E944AB275018E01095D1F4FAF
:100B700020E830E0AE01485D5F4FBC01C2010E9439
:100B8000299CD5012D913C912115310509F055CFB6
:100B900083E090E09D838C8381E08AA3C25ADA4F80
:100BA00088819981AA81BB81CE55D5408BA39CA316
:100BB000ADA3BEA362CECE59DA4F4880C256D5400F
:100BC000512C0E942CB25E01B1E9AB1AB9EFBB0AFD
:100BD0003E01EDEC6E1AEEEF7E0A8501920147E5CB
:100BE00055E04C0F5D1F445F5F4FBC01C3010E9485
:100BF0006B9CD5012D913C912115310509F01DCF3C
:100C00000E94535620E633E0CA5CDB4F39832883C9
:100C1000C653D440C85CDB4F99838883C853D44003
:100C20000E94F84A28EE33E040E050E0BE016A5CE2
:100C30007B4F0E94904BCA5CDB4F1882C653D44056
:100C40000E9441B275018E01095D1F4F20E830E01E
:100C5000AE01485D5F4FBC01CE018A5C9B4F0E9494
:100C6000299C8FCFCE59DA4F4880C256D540512C9F
:100C70000E942FB25E01B1E9AB1AB9EFBB0A3E0187
:100C8000EDEC6E1AEEEF7E0A8501920147E555E024
:100C90004C0F5D1F445F5F4FBC01C3010E946B9C02
:100CA000D5012D913C912115310509F0C6CEF301F6
:100CB000808191818130910509F4BDC18230910517
:100CC00009F4B2C1892B31F40E943C4A60E070E023
:100CD0000E94EC47CA5CDB4F1882C653D4400E9486
:100CE00044B2B0CFCE59DA4F4880C256D540512CCD
:100CF0000E9432B25E01F1E9AF1AF9EFBF0A3E017C
:100D00002DEC621A2EEF720A8501920147E555E03B
:100D10004C0F5D1F445F5F4FBC01C3010E946B9C81
:100D2000D5012D913C912115310509F086CEF301B5
:100D30004081518162817381CD58D94F4883C35717
:100D4000D640CC58D94F5883C457D640CB58D94FEA
:100D50006883C557D640CA58D94F7883C657D640FE
:100D60000E943C4ACD58D94F4881C357D640CC58F1
:100D7000D94F5881C457D640CB58D94F6881C557F1
:100D8000D640CA58D94F7881C657D6400E943747B7
:100D9000CA5CDB4F1882C653D4400E9447B252CF80
:100DA000CE59DA4F4880C256D540512C0E9429B204
:100DB0005E01F1E9AF1AF9EFBF0A3E012DEC621AAC
:100DC0002EEF720A8501920147E555E04C0F5D1F39
:100DD000445F5F4FBC01C3010E946B9CD5012D9104
:100DE0003C912115310509F028CE80E8EAEBF3E0CB
:100DF000DE01AA5CBB4F01900D928A95E1F70E943B
:100E00003EB220CFCE59DA4F4880C256D540512C41
:100E10000E9426B25E0151E9A51A59EFB50A3E01BA
:100E2000ADEC6A1AAEEF7A0A8501920147E555E00A
:100E30004C0F5D1F445F5F4FBC01C3010E946B9C60
:100E4000F501208131812115310509F0F6CD8CE0C5
:100E5000EAE3F4E0DE01AA5CBB4F01900D928A95B3
:100E6000E1F70E943BB2750108541640EFCE2E0107
:100E7000B7E34B1ABBEF5B0A8EE8F301D201019096
:100E80000D928A95E1F780911C02882309F442C0F3
:100E9000F20180858823F1F141855285638574854F
:100EA000F60184819581A681B781481759076A07A1
:100EB0007B0781F14483558366837783CD58D94F6F
:100EC0004883C357D640CC58D94F5883C457D640CF
:100ED000CB58D94F6883C557D640CA58D94F788365
:100EE000C657D6400E943C4ACD58D94F4881C35777
:100EF000D640CC58D94F5881C457D640CB58D94F3B
:100F00006881C557D640CA58D94F7881C657D64050
:100F10000E943747F20184819581A681B78180388C
:100F20009105A105B10508F44FC080E090E0DC0117
:100F300023E030E0FE01EA5CFB4F1F01F101318349
:100F4000208382839383A483B5830E944DB275016D
:100F50008E01095D1F4F20E830E0AE01485D5F4F14
:100F6000BC01C1010E94299C0CCE2E01F7E34F1A4F
:100F7000FBEF5F0AD10115968C91F201808783E027
:100F800090E09287818748E050E0B101C2010E9461
:100F900088BCD20117961C920E943C4ADC01ED915C
:100FA000FC919101235F3F4FD10119966C916058DC
:100FB0000190F081E02DA2010995092E000CAA0BE9
:100FC000BB0B20E030E0C7CD1E01FAEC2F1AFBEF7F
:100FD0003F0A88E0E6E4F4E0D10101900D928A95A1
:100FE000E1F782E090E0D1011A969C938E931997D5
:100FF000F201808118968C930E943C4ADC01ED91AD
:10100000FC919201285F3F4FD20114966C91605879
:101010000190F081E02DA1010995092E000CAA0B89
:10102000BB0B20E030E08ACF0E943C4A62E070E0D7
:101030000E94EC474FCE0E943C4A61E070E00E9463
:10104000EC4748CE4115510509F408950C948003EE
:101050008091160280FD12C00E94AA3640E050E046
:1010600060E00E9415368091160290911702019659
:10107000909317028093160281E008950E94AA3689
:101080004FEF50E060E00E941536EDCF0C94280839
:10109000E1E6F0E080E88083108278940E94AA362E
:1010A00040E050E86FEF0E9415360895CF92DF922E
:1010B000EF92FF92CF93DF9300D000D000D0CDB756
:1010C000DEB71E821D820E94F6370E946B37FC013C
:1010D000C080D180E280F380F1E0CF16D104F2E04D
:1010E000EF06F10408F06EC0C114D104E104F1046C
:1010F00009F42DC08D819E8140E050E0BA016BBFA4
:10110000FA0127919227092E0294202D2F7029276A
:10111000392F3025330F307E2327302D3927307F6C
:101120003695092E000C331F9695969596959F71CE
:1011300093279827822F4F5F5F4F6F4F7F4F4C153C
:101140005D056E057F0509F0DACF9E838D830E94D1
:10115000F6370E946037FC01208131818D819E81AC
:101160002817390719F10E94AA364FEF50E060E0C6
:101170000E9415360E94F63722E030E0AE014B5F48
:101180005F4F66E274E00E94983780911C028111E3
:1011900029C026960FB6F894DEBF0FBECDBFDF91F3
:1011A000CF91FF90EF90DF90CF90089580911C0237
:1011B000882381F00E94AA364FEF5FEF6FEF0E9405
:1011C0001536E7CF0E94AA364FEF50E060E00E944C
:1011D0001536DFCF0E94AA3640E05FEF6FEF0E9426
:1011E0001536D7CF86E498E09A8389831C821B82C8
:1011F0000E94F84A2AEF30E040E050E0BE016F5F05
:101200007F4F0E94904BC5CFCF93DF93FC0110829C
:1012100080911C02882309F455C08091180280FD3A
:1012200040C081FD2DC082FD1AC083FD0EC084FD2B
:1012300003C0DF91CF9108950E947A7240E050E0A0
:10124000BA01DF91CF910C9482710E94AA3640E0DE
:101250005FEF6FEF0E94153680911802E8CF0E9471
:10126000335EEC0162E070E00E948F5A40E050E093
:1012700062E070E0CE010E942E5A80911802D5CF14
:101280000E94335EEC0161E070E00E948F5A40E002
:1012900050E061E070E0CE010E942E5A8091180269
:1012A000C2CF0E94335EEC0160E070E00E948F5A72
:1012B00040E050E060E070E0CE010E942E5A809144
:1012C0001802AFCF0E94AA36FC018081882309F45E
:1012D000A4CF0E94AA3640E05FEF6FEF0E94153660
:1012E0009CCFCF92DF92EF92FF920F931F93CF93F9
:1012F000DF93CDB7DEB7C159D1090FB6F894DEBF81
:101300000FBECDBF8C017A01DC018C918823C1F125
:10131000FE0131966F0186E8DF011D928A95E9F79B
:1013200041385105E8F5CE0107960E9468BCEE826F
:10133000F8018485898385859685A785B0898A8308
:101340009B83AC83BD838BE03196DE01A957BF4FF1
:1013500001900D928A95E1F781E8C157DF4F8883AC
:10136000CF58D0400E943C4ADC01ED91FC910190A5
:10137000F081E02D9601AE0149575F4F60E009957D
:10138000CF56DF4F0FB6F894DEBF0FBECDBFDF9153
:10139000CF911F910F91FF90EF90DF90CF90089524
:1013A0000E94AA364FEF50E060E00E941536E8CF69
:1013B0000C947109CF93DF93CDB7DEB7CF5BDD40DF
:1013C0000FB6F894DEBF0FBECDBF0E9448080E9442
:1013D0003C4A0E941C030E94EE760E947A720E9490
:1013E000C7770E94560820E034E843E050E061E00F
:1013F00070E0CE018E5B944F0E94E234CE018E5B92
:10140000944F0E945B351A8219821C821B821E82B5
:101410001D8218861F821D861C861F861E86CE0191
:1014200009960E94AF978E010F5F1F4FA80165E2DA
:1014300073E0CE0109960E946D97980144E353E052
:1014400060E070E0CE0109960E947697C45BD24FAF
:1014500019830883CC54DD4082E793E0C65BD24F0A
:1014600099838883CA54DD4022E43BE02C0F3D1F62
:101470003C832B8383E593E09A8389833093231104
:10148000209322111093211000932010CE018E542E
:10149000924FDC0114961D921D921D921C9217977B
:1014A00013961C930E93129722E633E02D933C93F0
:1014B000FE01E254F24F91838083F887EF8322E2AA
:1014C00038E03E832D83C75AD24F19821882C955FE
:1014D000DD40C55AD24F19821882CB55DD40C35A20
:1014E000D24F19821882CD55DD40C15AD24F198290
:1014F0001882CF55DD40CF59D24F19821882C1567C
:10150000DD40CD59D24F19821882C356DD40CB59E8
:10151000D24F19821882C556DD40C959D24F19825F
:101520001882C756DD40C759D24F1882C956DD40D0
:10153000C659D24F1882CA56DD40C559D24F1882BB
:10154000CB56DD40C456D24F1882CC59DD400456EC
:10155000124FD8011D9228E0E6E4F4E001900D92CC
:101560002A95E1F7F801118622E030E033872287DF
:10157000148629E53DE02C0F3D1F328B218B948B87
:10158000838B30931F1020931E1090931D10809317
:101590001C1010931B1000931A100E943C4ADC018F
:1015A000ED91FC910480F581E02D2CE13CE2C654E4
:1015B000D24F39832883CA5BDD40C454D24F19838C
:1015C0000883CC5BDD40BE016654724F0995C55A55
:1015D000D24F19830883CB55DD4088ED99E0C75A77
:1015E000D24F99838883C955DD400E94C4557C0140
:1015F0000E949355C15AD24F19830883CF55DD40BD
:1016000020E931E1C35AD24F39832883CD55DD40DB
:10161000CD59D24F99838883C356DD408CE593E042
:10162000CF59D24F99838883C156DD40C959D24FD3
:10163000F982E882C756DD408AE593E0CB59D24F64
:1016400099838883C556DD40C654D24F3983288399
:10165000CA5BDD40C454D24F19830883CC5BDD40A4
:101660000E94E854AE014654524F60E070E00E9480
:101670003C54CF59D24F88819981C156DD40C65420
:10168000D24F99838883CA5BDD40CD59D24F888180
:101690009981C356DD40C454D24F99838883CC5B73
:1016A000DD400E94E854AE014654524F61E070E0C4
:1016B0000E943C54CB59D24F88819981C556DD4058
:1016C000C654D24F99838883CA5BDD40C959D24F33
:1016D00088819981C756DD40C454D24F998388834D
:1016E000CC5BDD400E94E854AE014654524F62E0AC
:1016F00070E00E943C5480911C0281111BC00E942A
:10170000335E2EE533E0C654D24F39832883CA5B5B
:10171000DD40C454D24F99838883CC5BDD400E9466
:10172000F84A2AE030E040E050E0BE016654724FD3
:101730000E94904BCA5BD44F28813981C654DB404C
:10174000C85BD44F88819981C854DB40281739077A
:1017500009F442C02FB7F894CA5BD44F488159812D
:10176000C654DB40C85BD44F88819981C854DB40A4
:101770004817590779F1CA5BD44FE881F981C654FB
:10178000DB40F17082E49BE08C0F9D1FE80FF91F96
:1017900034966481CA5BD44F88819981C654DB40FA
:1017A00001969370CA5BD44F99838883C654DB40FB
:1017B0002FBFC65BD24FE881F981CA54DD40309714
:1017C00009F4B8CFC45BD24F88819981CC54DD40F5
:1017D0000995B0CF6FEFECCF0E943C4ADC01ED9150
:1017E000FC910680F781E02D099580911C028823E9
:1017F00089F00E94F84A0E94DC4B80911C02811102
:1018000099CF0E94E8540E946C540E94EE760E9488
:10181000D57590CF0E94F4520E94804EEACF6F920D
:101820007F928F929F92AF92BF92CF92DF92EF9270
:10183000FF920F931F93CF93DF93CDB7DEB7C554BD
:10184000D2400FB6F894DEBF0FBECDBF3C01CA5CDC
:10185000DD4F8882C653D240C95CDD4F9882C753A2
:10186000D240C85CDD4FA882C853D240C75CDD4F70
:10187000B882C953D240C65CDD4FC882CA53D24039
:10188000C55CDD4FD882CB53D240C45CDD4FE882CB
:10189000CC53D240C35CDD4FF882CD53D240C25C02
:1018A000DD4F0883CE53D240C15CDD4F1883CF5348
:1018B000D240C05CDD4F2883C054D240CF5BDD4FA7
:1018C0003883C154D240CE5BDD4F4883C254D240EE
:1018D000CD5BDD4F5883C354D240CC5BDD4F688372
:1018E000C454D240CB5BDD4F7883C554D2409E01B7
:1018F0002F5F3F4F690182E391E0D901FC011D9206
:101900003197E9F781E090E09A838983C355DF4FEF
:101910008883CD5AD040EBEEF4E011E620E030E0D1
:10192000A90101C01191A5E6B0E00E9415B69B0186
:10193000AC01210F311D411D511D84E0EC3FF80722
:1019400089F7C255DF4F288339834A835B83CE5A98
:10195000D040CC5CDD4F19821882C453D2400E9423
:101960001DB2DE01AC5CBD4F7D018E010E541F4FD8
:1019700020E830E0AE014D545F4FBC01CE018A5CDF
:101980009D4F0E94299CCC5CDD4F88819981C45376
:10199000D2400097B1F0CB5BDD4F0FB6F894DEBFBD
:1019A0000FBECDBFDF91CF911F910F91FF90EF90B0
:1019B000DF90CF90BF90AF909F908F907F906F906F
:1019C00008950E94269C0F571E4F20E031E0AE0183
:1019D0004D5C5E4FBC01C6010E94299CCC5CDD4F72
:1019E00088819981C453D2400097A9F6CD5CDD4F20
:1019F0004881C353D24050E0D301ED91FC9111973F
:101A0000309749F2BE016D5C7E4F12968D919C918C
:101A100013970995CC5CDD4F88819981C453D240DE
:101A2000BACF2F923F924F925F926F927F928F9296
:101A30009F92AF92BF92CF92DF92EF92FF920F935D
:101A40001F93CF93DF93CDB7DEB7A8970FB6F89467
:101A5000DEBF0FBECDBF1C010E94C7770E94347746
:101A600069A37AA38BA39CA3CB01ABA1BCA1898B57
:101A70009A8BAB8BBC8B0E94C7770E9465772B013A
:101A80003C016D8B7E8B8F8B988F0E94C7770E9455
:101A900096776DA37EA38FA398A7698F7A8F8B8F7C
:101AA0009C8FC101CD969E8F8D8FDC01CD90DD90F6
:101AB000ED90FC9081010F5C1F4FFE017596F8A31D
:101AC000EF8F89A19AA1ABA1BCA1BC01CD01D80126
:101AD0002D913D914D915D918D010E948FB64B01ED
:101AE0005C0120E030E0A9010E94FCB687FD82C0C5
:101AF000A7019601C501B4010E94BDB818167CF07B
:101B0000ED8DFE8D0E171F0709F457C0AF8DB8A1DC
:101B10006D917D918D919D91B8A3AF8FD8CF0E948B
:101B2000F84A8091320290913302A0913402B09130
:101B3000350289839A83AB83BC8389A19AA1ABA127
:101B4000BCA18D839E83AF83B88749865A866B86F6
:101B50007C868DA19EA1AFA1B8A58D879E87AF87FA
:101B6000B88B1F921F9289809A80AB80BC80CD80F9
:101B7000DE80EF80F88409851A852B853C854D85AC
:101B80005E856F857889C1010E940F0C89A19AA199
:101B9000ABA1BCA1F10181AB92ABA3ABB4AB45AAA5
:101BA00056AA67AA70AE8DA19EA1AFA1B8A581AFBC
:101BB00092AFA3AFB4AF0F900F90F101ED5BFF4F69
:101BC0008081A8960FB6F894DEBF0FBECDBFDF911F
:101BD000CF911F910F91FF90EF90DF90CF90BF902A
:101BE000AF909F908F907F906F905F904F903F90BD
:101BF0002F900895B7FAB094B7F8B09479CFAF9218
:101C0000BF92CF92DF92EF92FF920F931F93CF93E9
:101C1000DF93CDB7DEB7CD53D2400FB6F894DEBF19
:101C20000FBECDBF5C01CA5CDD4F0883C653D240F6
:101C3000C95CDD4F1883C753D240C85CDD4F288391
:101C4000C853D240C75CDD4F3883C953D240C65C0D
:101C5000DD4F4883CA53D240C55CDD4F5883CB5318
:101C6000D240C45CDD4F6883CC53D240C35CDD4FAF
:101C70007883CD53D2409E012F5F3F4F690182E3AD
:101C800091E0D901FC011D923197E9F781E090E0E4
:101C90009A838983C355DF4F8883CD5AD040EEEFB6
:101CA000F4E012E620E030E0A90101C01191A5E6C0
:101CB000B0E00E9415B69B01AC01210F311D411D02
:101CC000511D85E0E830F80789F7C255DF4F2883BA
:101CD00039834A835B83CE5AD040CC5CDD4F198276
:101CE0001882C453D2400E9417B2DE01AC5CBD4FD3
:101CF0007D018E010E541F4F20E830E0AE014D549F
:101D00005F4FBC01CE018A5C9D4F0E94299CCC5C38
:101D1000DD4F88819981C453D240009791F0C35C14
:101D2000DD4F0FB6F894DEBF0FBECDBFDF91CF9170
:101D30001F910F91FF90EF90DF90CF90BF90AF90E9
:101D400008950E94269C0F571E4F20E031E0AE01FF
:101D50004D5C5E4FBC01C6010E94299CCC5CDD4FEE
:101D600088819981C453D2400097C9F6CD5CDD4F7C
:101D70004881C353D24050E0D501ED91FC911197B9
:101D8000309769F2BE016D5C7E4F12968D919C91E9
:101D900013970995CC5CDD4F88819981C453D2405B
:101DA000BECFCF92DF92EF92FF920F931F93CF930C
:101DB000DF93CDB7DEB729970FB6F894DEBF0FBE1D
:101DC000CDBF6C0169870E94F84A809132029091E0
:101DD0003302A0913402B0913502082F89839A838F
:101DE000AB83BC8392E0492F6985262F30E038878A
:101DF0002F83E12CF12C1A812B813C8150E07885D6
:101E0000C6010E94FF0D29960FB6F894DEBF0FBEE3
:101E1000CDBFDF91CF911F910F91FF90EF90DF9099
:101E2000CF900895CF92DF92EF92FF920F931F937E
:101E3000CF93DF93CDB7DEB729970FB6F894DEBF07
:101E40000FBECDBF6C0169870E94F84A80913202B3
:101E500090913302A0913402B0913502082F89830A
:101E60009A83AB83BC8391E0492F6985262F30E0AC
:101E700038872F83E12CF12C1A812B813C8150E093
:101E80007885C6010E94FF0D29960FB6F894DEBF33
:101E90000FBECDBFDF91CF911F910F91FF90EF90BB
:101EA000DF90CF900895AF92BF92CF92DF92EF92E2
:101EB000FF920F931F93CF93DF93CDB7DEB7C95334
:101EC000D2400FB6F894DEBF0FBECDBF5C01CA5C36
:101ED000DD4F488359836A837B83C653D2409E017A
:101EE0002F5F3F4F690182E391E0D901FC011D9210
:101EF0003197E9F781E090E09A838983C355DF4FFA
:101F00008883CD5AD040EAE0F5E013E620E030E0E7
:101F1000A90101C01191A5E6B0E00E9415B69B0190
:101F2000AC01210F311D411D511D85E0ED31F80738
:101F300089F7C255DF4F288339834A835B83CE5AA2
:101F4000D040CC5CDD4F19821882C453D2400E942D
:101F500023B2DE01AC5CBD4F7D018E010E541F4FDC
:101F600020E830E0AE014D545F4FBC01CE018A5CE9
:101F70009D4F0E94299CCC5CDD4F88819981C45380
:101F8000D240009791F0C75CDD4F0FB6F894DEBFEA
:101F90000FBECDBFDF91CF911F910F91FF90EF90BA
:101FA000DF90CF90BF90AF9008950E94269C0F576E
:101FB0001E4F20E031E0AE014D5C5E4FBC01C6011A
:101FC0000E94299CCC5CDD4F88819981C453D2400A
:101FD0000097C9F6CD5CDD4F4881C353D24050E035
:101FE000D501ED91FC911197309769F2BE016D5CBE
:101FF0007E4F12968D919C9113970995CC5CDD4F85
:1020000088819981C453D240BECFCF93DF93FC0126
:102010002081211104C080E0DF91CF910895EC016F
:102020000E94F84A4091320250913302609134028A
:102030007091350220E030E089899A890E94530F1F
:10204000188280911C02882309F454C080911802E0
:1020500080FD3FC081FD2CC082FD19C083FD0DC0F5
:1020600084FFD9CF0E947A7240E050E0BA010E940A
:10207000827180E0DF91CF9108950E94AA3640E0FE
:102080005FEF6FEF0E94153680911802E9CF0E9432
:10209000335EEC0162E070E00E948F5A40E050E055
:1020A00062E070E0CE010E942E5A80911802D6CFD5
:1020B0000E94335EEC0161E070E00E948F5A40E0C4
:1020C00050E061E070E0CE010E942E5A809118022B
:1020D000C3CF0E94335EEC0160E070E00E948F5A33
:1020E00040E050E060E070E0CE010E942E5A809106
:1020F0001802B0CF0E94AA36FC018081882309F41F
:10210000A5CF0E94AA3640E05FEF6FEF0E94153620
:102110009DCFCF92DF92EF92FF920F931F93CF93B9
:10212000DF93CDB7DEB728970FB6F894DEBF0FBEAA
:10213000CDBF6C01662309F441C00E94F84A80912A
:10214000320290913302A0913402B0913502409155
:102150000C0250910D0260910E0270910F02841BCF
:10216000950BA60BB70B843F9140A105B10508F470
:1021700053C00E94F84A8091320290913302A0919C
:102180003402B091350280930C0290930D02A0931B
:102190000E02B0930F020E94F84A80913202909191
:1021A0003302A0913402B091350289839A83AB83C4
:1021B000BC831E821D8291E080E012C00E94F84A1A
:1021C0008091320290913302A0913402B091350295
:1021D00089839A83AB83BC831E821D8290E080E05A
:1021E000692FE12CF12C09811A812B813C814D81D1
:1021F0005E81782FC6010E94FF0D28960FB6F894D5
:10220000DEBF0FBECDBFDF91CF911F910F91FF9029
:10221000EF90DF90CF9008950E94F84A40913202EB
:1022200050913302609134027091350220E030E029
:10223000C6010E94530FE0911A10F0911B101082FA
:1022400080911C02882309F18091180280FD57C0FB
:1022500081FD44C082FD31C083FD25C084FFCDCF08
:102260000E947A7240E050E0BA0128960FB6F894C6
:10227000DEBF0FBECDBFDF91CF911F910F91FF90B9
:10228000EF90DF90CF900C9482710E94AA36FC01EF
:1022900080818823C9F20E94AA3640E05FEF6FEF89
:1022A0000E941536D1CF0E94AA3640E05FEF6FEF53
:1022B0000E94153680911802D1CF0E94335E6C01C6
:1022C00062E070E00E948F5A40E050E062E070E00F
:1022D000C6010E942E5A80911802BECF0E94335E22
:1022E0006C0161E070E00E948F5A40E050E061E0D4
:1022F00070E0C6010E942E5A80911802ABCF0E9456
:10230000335E6C0160E070E00E948F5A40E050E064
:1023100060E070E0C6010E942E5A8091180298CFAA
:10232000CF92DF92EF92FF920F931F93CF93DF93A1
:1023300000D000D0CDB7DEB77C01662309F454C0CD
:102340000E94F0920E94627A0E94F84A4091320202
:1023500050913302609134027091350280911202E3
:1023600090911302A0911402B0911502481B590BD1
:102370006A0B7B0B443F51406105710508F44CC06A
:102380000E94F84A8091320290913302A091340267
:10239000B09135028093120290931302A09314021D
:1023A000B093150285E090E19A838983FC82EB82E9
:1023B0000E94F84A28E037E040E050E0BE016F5F3D
:1023C0007F4F0E94904B90931910809318100F909C
:1023D0000F900F900F90DF91CF911F910F91FF9071
:1023E000EF90DF90CF9008950E94F0920E949E920D
:1023F00000911810109119100E94F84AB8010E941B
:102400008F4A0E947A7224E630E040E050E06CE5AA
:1024100073E40E943272DBCF0E94AA3621E0FC01F5
:102420002083F7018081811115C00E94335E6C0109
:1024300000E010E0B801C6010E948F5A40E050E071
:10244000B801C6010E942E5A0F5F1F4F03301105BD
:1024500089F796CF0E94F84A409132025091330298
:10246000609134027091350220E030E0F7018189FB
:1024700092890E94530FF701108280911C028823D9
:1024800009F451C08091180280FD3CC081FD29C033
:1024900082FD16C083FD0AC084FFC7CF0E947A72F6
:1024A00040E050E0BA010E948271BFCF0E94AA367C
:1024B00040E05FEF6FEF0E94153680911802ECCF7D
:1024C0000E94335E8C0162E070E00E948F5A40E00F
:1024D00050E062E070E0C8010E942E5A809118021C
:1024E000D9CF0E94335E8C0161E070E00E948F5A68
:1024F00040E050E061E070E0C8010E942E5A8091F7
:102500001802C6CF0E94335E8C0160E070E00E942A
:102510008F5A40E050E060E070E0C8010E942E5AFF
:1025200080911802B3CF0E94AA36FC0180818823D3
:1025300009F4A8CF0E94AA3640E05FEF6FEF0E9437
:102540001536A0CFAF92BF92CF92DF92EF92FF925B
:102550000F931F93CF93DF93CDB7DEB7C154D24013
:102560000FB6F894DEBF0FBECDBF5C01CA5CDD4F75
:10257000C882C653D240C95CDD4FD882C753D2400F
:10258000C85CDD4FE882C853D240C75CDD4FF8829B
:10259000C953D240C65CDD4F0883CA53D240C55CE4
:1025A000DD4F1883CB53D240C45CDD4F2883CC531E
:1025B000D240C35CDD4F3883CD53D240C25CDD4F87
:1025C0004883CE53D240C15CDD4F5883CF53D240B5
:1025D000C05CDD4F6883C054D240CF5BDD4F788351
:1025E000C154D2409E012F5F3F4F690182E391E0C9
:1025F000D901FC011D923197E9F781E090E09A83BF
:102600008983C355DF4F8883CD5AD040EFE1F5E091
:1026100015E620E030E0A90101C01191A5E6B0E087
:102620000E9415B69B01AC01210F311D411D511DAA
:1026300085E0EA32F80789F7C255DF4F28833983EE
:102640004A835B83CE5AD040CC5CDD4F198218821E
:10265000C453D2400E941AB2DE01AC5CBD4F7D0172
:102660008E010E541F4F20E830E0AE014D545F4FF5
:10267000BC01CE018A5C9D4F0E94299CCC5CDD4F41
:1026800088819981C453D240009791F0CF5BDD4F90
:102690000FB6F894DEBF0FBECDBFDF91CF911F9173
:1026A0000F91FF90EF90DF90CF90BF90AF90089583
:1026B0000E94269C0F571E4F20E031E0AE014D5C7A
:1026C0005E4FBC01C6010E94299CCC5CDD4F888115
:1026D0009981C453D2400097C9F6CD5CDD4F488143
:1026E000C353D24050E0D501ED91FC911197309742
:1026F00069F2BE016D5C7E4F12968D919C9113978D
:102700000995CC5CDD4F88819981C453D240BECFFE
:102710004F925F926F927F928F929F92AF92BF92F1
:10272000CF92DF92EF92FF920F931F93CF93DF939D
:10273000CDB7DEB72C970FB6F894DEBF0FBECDBF76
:102740004C010E94F45262E070E00E94484C762EE8
:10275000472E582E692EF40125A536A547A550A968
:102760000E948FB66B017C0120E030E0A9010E943D
:10277000FCB687FD63C0A7019601F40161A172A1B7
:1027800083A194A10E94FCB687FF3FC081E090E046
:1027900090933102809330020E94F84A8091320275
:1027A00090913302A0913402B0913502C82E8983F2
:1027B0009A83AB83BC8382E0082F8D831E821F82A5
:1027C0001886472D872D942DA52DB62D89879A879C
:1027D000AB87BC87A12CB12CDA80EB80FC8010E0A9
:1027E00020E030E05A856B857C85C4010E94A212EE
:1027F0001092310210923002872D942DA52DB62D06
:10280000F40185A796A7A7A7B0ABF40182892C96FF
:102810000FB6F894DEBF0FBECDBFDF91CF911F91F1
:102820000F91FF90EF90DF90CF90BF90AF909F906F
:102830008F907F906F905F904F900895F7FAF0948B
:10284000F7F8F09498CF4F925F926F927F928F92A9
:102850009F92AF92BF92CF92DF92EF92FF920F932F
:102860001F93CF93DF93CDB7DEB72C970FB6F894B5
:10287000DEBF0FBECDBF4C010E94F45261E070E09C
:102880000E94484C762E472E582E692EF40121A521
:1028900032A543A554A50E948FB66B017C0120E0B0
:1028A00030E0A9010E94FCB687FD63C0A701960134
:1028B000F401658D768D878D90A10E94FCB687FF0F
:1028C0003FC081E090E090933102809330020E94FB
:1028D000F84A8091320290913302A0913402B09173
:1028E0003502C82E89839A83AB83BC8381E0082F8D
:1028F0008D831E821F821886472D872D942DA52D2E
:10290000B62D89879A87AB87BC87A12CB12CDA803A
:10291000EB80FC8010E020E030E05A856B857C8500
:10292000C4010E94A2121092310210923002872D2F
:10293000942DA52DB62DF40181A792A7A3A7B4A726
:10294000F40181892C960FB6F894DEBF0FBECDBF7F
:10295000DF91CF911F910F91FF90EF90DF90CF907B
:10296000BF90AF909F908F907F906F905F904F90AF
:102970000895F7FAF094F7F8F09498CF4F925F9299
:102980006F927F928F929F92AF92BF92CF92DF927F
:10299000EF92FF920F931F93CF93DF93CDB7DEB7E4
:1029A0002C970FB6F894DEBF0FBECDBF4C010E942E
:1029B000F45260E070E00E94484C762E472E582E6C
:1029C000692EF40125A136A147A150A50E948FB61A
:1029D0006B017C0120E030E0A9010E94FCB687FD7C
:1029E00062C0A7019601F401618D728D838D948D73
:1029F0000E94FCB687FF3EC081E090E090933102D8
:102A0000809330020E94F84A809132029091330202
:102A1000A0913402B0913502C82E89839A83AB838A
:102A2000BC831D821E821F821886472D872D942D00
:102A3000A52DB62D89879A87AB87BC87A12CB12C91
:102A4000DA80EB80FC8000E01E812F8138855A857A
:102A50006B857C85C4010E94A212109231021092F3
:102A60003002872D942DA52DB62DF40185A396A3B4
:102A7000A7A3B0A7F40180892C960FB6F894DEBF07
:102A80000FBECDBFDF91CF911F910F91FF90EF90BF
:102A9000DF90CF90BF90AF909F908F907F906F907E
:102AA0005F904F900895F7FAF094F7F8F09499CF6B
:102AB0006F927F928F929F92AF92BF92CF92DF924E
:102AC000EF92FF920F931F93CF93DF93CDB7DEB7B3
:102AD000C454D2400FB6F894DEBF0FBECDBF3C0148
:102AE000CA5CDD4F8882C653D240C95CDD4F9882F4
:102AF000C753D240C85CDD4FA882C853D240C75CE0
:102B0000DD4FB882C953D240C65CDD4FC882CA537C
:102B1000D240C55CDD4FD882CB53D240C45CDD4F80
:102B2000E882CC53D240C35CDD4FF882CD53D24013
:102B3000C25CDD4F0883CE53D240C15CDD4F1883A9
:102B4000CF53D240C05CDD4F2883C054D240CF5B0E
:102B5000DD4F3883C154D240CE5BDD4F4883C25431
:102B6000D240CD5BDD4F5883C354D240CC5BDD4FA8
:102B70006883C454D2409E012F5F3F4F690182E3B6
:102B800091E0D901FC011D923197E9F781E090E0D5
:102B90009A838983C355DF4F8883CD5AD040ECE2B6
:102BA000F5E01AE620E030E0A90101C01191A5E6A8
:102BB000B0E00E9415B69B01AC01210F311D411DF3
:102BC000511D85E0E533F80789F7C255DF4F2883AB
:102BD00039834A835B83CE5AD040CC5CDD4F198267
:102BE0001882C453D2400E9420B2DE01AC5CBD4FBB
:102BF0007D018E010E541F4F20E830E0AE014D5490
:102C00005F4FBC01CE018A5C9D4F0E94299CCC5C29
:102C1000DD4F88819981C453D2400097B1F0CC5BDD
:102C2000DD4F0FB6F894DEBF0FBECDBFDF91CF9161
:102C30001F910F91FF90EF90DF90CF90BF90AF90DA
:102C40009F908F907F906F9008950E94269C0F57C1
:102C50001E4F20E031E0AE014D5C5E4FBC01C6016D
:102C60000E94299CCC5CDD4F88819981C453D2405D
:102C70000097A9F6CD5CDD4F4881C353D24050E0A8
:102C8000D301ED91FC911197309749F2BE016D5C33
:102C90007E4F12968D919C9113970995CC5CDD4FD8
:102CA00088819981C453D240BACF6F927F928F921C
:102CB0009F92AF92BF92CF92DF92EF92FF920F93CB
:102CC0001F93CF93DF93CDB7DEB72F970FB6F8944E
:102CD000DEBF0FBECDBF3C018B017A0183E090E0E7
:102CE0009093310280933002FE0131968FE0DF0134
:102CF0001D928A95E9F70E94F84A809132029091DC
:102D00003302A0913402B091350289839A83AB8358
:102D1000BC83C801012E000CAA0BBB0B8D839E83C4
:102D2000AF83B887FA86E9860E94F452B8010E9400
:102D3000484C11E020E030E0A9010E94FCB681116E
:102D400001C010E01B871F921F9289809A80AB8080
:102D5000BC80CD80DE80EF80F88409851A852B85C4
:102D60003C854D855E856F85C3010E945815109284
:102D70003102109230020F900F902F960FB6F894F8
:102D8000DEBF0FBECDBFDF91CF911F910F91FF909E
:102D9000EF90DF90CF90BF90AF909F908F907F90FB
:102DA0006F9008952F923F924F925F926F927F9211
:102DB0008F929F92AF92BF92CF92DF92EF92FF924B
:102DC0000F931F93CF93DF93CDB7DEB7CA5ED54085
:102DD0000FB6F894DEBF0FBECDBF5C014B012701DB
:102DE00016012B3868EC360764E146076CE6560797
:102DF00011F40C94D62508F064C0223389EB38070F
:102E000080E1480781E4580711F40C94E32408F0AA
:102E1000C4C02938AAE03A07A1E44A07ABE15A073F
:102E200011F40C944D2508F48BC1213B9CE3390728
:102E300091EF490791E3590711F40C94F12208F03E
:102E40007EC32A3EBAEE3B07B5E34B07B0E25B0711
:102E500011F40C9439202115314C444F514211F09A
:102E60000C94A720D801CD907D01D12C0E948DB16A
:102E700081019601A701BC01C5010E946B9CF10173
:102E800080819181892B09F086C26201FFEFCF1A00
:102E9000DF0AD50114961C9114970C910E94EE76CE
:102EA000212FAE014E5F5F4F602F0E948D75892BE1
:102EB000A9F70E94EE760E94C57519830E940EB292
:102EC00061C0283EE5EA3E07E9EE4E07EBEB5E0700
:102ED00011F40C94CE2308F0ECC02B3F63E43607CA
:102EE00069E8460765E8560711F40C94062408F4CF
:102EF00078C12133F9E73F07F8E44F07F8EA5F07A5
:102F000009F457C708F061C22B3B7CE637077EEB1C
:102F100047077BE8570711F40C944F222F3D374A9F
:102F20004A40564911F00C94A720F801C1907F0146
:102F3000D12C0E946CB181019601A701BC01C50191
:102F40000E946B9CD1018D919C91892B09F023C229
:102F50006201BFEFCB1ADB0A0E945356FC01818548
:102F6000928503978330910510F00C94562A880FB0
:102F7000991FFC01E65BFA4F808191819A838983D6
:102F80000E94EDB17101820120E830E0A601BC0190
:102F9000CE0101960E94299CFEC12F3774ED3707A0
:102FA00076E2470773E5570711F40C94882408F478
:102FB0006FC1213860EA360762EC460763E65607C0
:102FC00009F44FC708F48BC22438A0EA3A07A2ECF0
:102FD0004A07A3E65A0711F40C94872222303041A5
:102FE000474D544611F00C94A720D801CD907D0197
:102FF000D12C0E944BB181019601A701BC01C501F2
:103000000E946B9CF10180819181892B09F0C3C1E1
:103010003201FFEF6F1A7F0A85E8F501DE01AE5439
:10302000BB4F01900D928A95E1F7D5018D909D904F
:10303000AD90BC90C12CD12C00E010E0EE24E394C4
:10304000F12CC454DA4F88829982AA82BB82CC5B6D
:10305000D540C701002E02C0880F991F0A94E2F7DD
:10306000092E000CAA0BBB0BC454DA4F8880998040
:10307000AA80BB80CC5BD54088219921AA21BB21A5
:10308000892B8A2B8B2B11F00C94A6280F5F1F4FD6
:1030900003301105F1F619820E94CCB17101820151
:1030A00020E830E0A301BC01CE0101960E94299CDA
:1030B00072C12439B5EC3B07BDEF4B07BFED5B0791
:1030C00011F40C94402408F438C1283FAFE23A07C9
:1030D000AAEE4A07A8EE5A0709F446C708F4BAC18F
:1030E000283A67E7360766EB46076DEF560711F497
:1030F0000C94F42026393E44424E5F4F11F00C945C
:10310000A720D801CD907D01D12C0E9478B18101FA
:103110009601A701BC01C5010E946B9CF101808151
:103120009181892B09F037C180E8EEE4F4E0DE01FB
:10313000119601900D928A95E1F70E94F9B1F0C0C5
:103140002631E9E23E07E2E24E07E7E05E0711F4CE
:103150000C94622308F486C225317DED370776EDA5
:1031600047077BE0570709F4E5C6293D3C40424B41
:103170005F4009F0ECC7D801CD907D01D12C0E94B1
:1031800042B181019601A701BC01C5010E946B9C5F
:10319000F10180819181892B09F0FDC00E94B770F7
:1031A00060E070E00E9413706A837B838C839D8350
:1031B0000E94B77061E070E00E9413706E837F839D
:1031C000888799870E94B77062E070E00E94137050
:1031D0006A877B878C879D8783E089830E94C3B140
:1031E0009FC0263F85E8380783EE48078CE65807DE
:1031F00011F40C941E2308F43AC52F3DB0EE3B07A2
:10320000BDEE4B07BFE65B0709F401C622383B431E
:10321000464E5E4709F09BC7D801CD907D01D12C69
:103220000E9463B181019601A701BC01C5010E9402
:103230006B9CF10180819181892B09F0ACC0F50173
:1032400080819181A281B38180959095A095B09560
:10325000409118025091190260911A0270911B025C
:1032600084239523A623B7234481558166817781E2
:10327000842B952BA62BB72B8093180290931902C1
:10328000A0931A02B0931B0219820E94E4B148C0B5
:103290002F3493EE390791EE490792E4590709F468
:1032A0001DC708F4A3C1273DEFE73E07EAE34E0739
:1032B000E7E45E0709F4D9C7283E304F484C514532
:1032C00009F045C7D801CD907D01D12C0E941BB1DA
:1032D00081019601A701BC01C5010E946B9CF1010F
:1032E00080819181892B09F056C00E94AA36DC01A9
:1032F00011964C91119712962C91129713963C911E
:10330000822F90E0A0E0B0E0BA2FA92F982F882755
:10331000A42B832B89839A83AB83BC830E949CB1AB
:10332000A2014F5F5F4F7101820120E830E0BC01D4
:10333000CE0101960E94299C2EC02135F4E03F0762
:10334000FBE84F07F6EC5F0709F426C708F4EDC465
:10335000233084E138078CEA48078DED580709F4DB
:10336000FCC62038304147495E4D09F0F0C6D8010F
:10337000CD907D01D12C0E944EB181019601A70113
:10338000BC01C5010E946B9CF10180819181892B58
:1033900011F40C945E26C651DA4F0FB6F894DEBFD6
:1033A0000FBECDBFDF91CF911F910F91FF90EF9096
:1033B000DF90CF90BF90AF909F908F907F906F9055
:1033C0005F904F903F902F9008952F3695EB3907DF
:1033D00098E9490790EB590711F40C949623253E80
:1033E000354A494E5B4B09F0B2C6D801CD907D01FC
:1033F000D12C0E943CB181019601A701BC01C501FD
:103400000E946B9CF10180819181892B21F60E94A1
:10341000B77060E070E00E94ED6F6A837B838C83FD
:103420009D830E94B77061E070E00E94ED6F6E8333
:103430007F83888799870E94B77062E070E00E945E
:10344000ED6F6A877B878C879D8783E089830E94E5
:10345000BDB166CF2539E3E83E07E7EC4E07E2EE63
:103460005E0709F4B9C7243B3142474E574E09F075
:103470006EC6D801CD907D01D12C0E9436B181015C
:103480009601A701BC01C5010E946B9CF1018081DE
:103490009181892B09F07FCF0E94B77060E070E0C6
:1034A0000E94A2706A837B838C839D830E94B77085
:1034B00061E070E00E94A2706E837F8388879987A5
:1034C0000E94B77062E070E00E94A2706A877B87FA
:1034D0008C879D8783E089830E94B7B121CF2F31EC
:1034E0008EE838078FEB48078AE5580709F41FC7AD
:1034F000283130494949534609F029C6F801C1909D
:103500007F01D12C0E9421B181019601A701BC014C
:10351000C5010E946B9CD1018D919C91892B09F072
:103520003ACF0E947A72FC0181819281A381B48199
:1035300089839A83AB83BC830E94A2B1F1CE253DDF
:10354000FBE13F07F7E44F07F2E35F0709F436C5F5
:10355000243D3D4648485A4309F0F9C5D801CD906D
:103560007D01D12C0E9424B181019601A701BC01EB
:10357000C5010E946B9CF10180819181892B09F02A
:103580000ACFD5014D915D916D917C91CC51DA4F6F
:103590004883C45ED540CB51DA4F5883C55ED540D1
:1035A000CA51DA4F6883C65ED540CD51DA4F788371
:1035B000C35ED5400E947A72CC51DA4F4881C45E16
:1035C000D540CB51DA4F5881C55ED540CA51DA4F4C
:1035D0006881C65ED540CD51DA4F7881C35ED54053
:1035E0000E94827119820E94A5B19ACE263C38426F
:1035F000404F514409F0ABC5D801CD907D01D12C8D
:103600000E943FB181019601A701BC01C5010E9442
:103610006B9CF10180819181892B09F0BCCE0E94C5
:10362000B77060E070E00E94A36F6A837B838C8335
:103630009D830E94B77061E070E00E94A36F6E836B
:103640007F83888799870E94B77062E070E00E944C
:10365000A36F6A877B878C879D8783E089830E941D
:10366000C0B15ECE233E3041434C564009F06FC599
:10367000D801CD907D01D12C0E947BB181019601B2
:10368000A701BC01C5010E946B9CF1018081918161
:10369000892B09F080CE92012F5F3F4FCB52DA4F3A
:1036A00039832883C55DD540D50111960D90BC9115
:1036B000A02DC951DA4FB983A883C75ED540D50183
:1036C00013966D907D908D909C901697C054DA4F14
:1036D000688279828A829B82C05CD5401796BC91B1
:1036E000C653DA4FB883CA5CD540F5010084F18532
:1036F000E02DC454DA4FF983E883CC5BD540D50183
:103700001A96BC91CA53DA4FB883C65CD540F5010E
:103710004385548565857685F785C853DA4FF883E8
:10372000C85CD540D50150960D90BC91A02DC752D4
:10373000DA4FB983A883C95DD540F501F289C65136
:10374000DA4FF883CA5ED540D50153960D90BC91EF
:10375000A02DC552DA4FB983A883CB5DD540F501C2
:10376000C588D688E788F08CF18DCE51DA4FF88382
:10377000C25ED540D5015A960D90BC91A02DC5537F
:10378000DA4FB983A883CB5CD540F501F48DC852DC
:10379000DA4FF883C85DD540F501858D968DA78DEC
:1037A000B0A1F1A1C352DA4FF883CD5DD540F50148
:1037B00002A0F3A1E02DC052DA4FF983E883C05E86
:1037C000D540F501F4A1C152DA4FF883CF5DD54061
:1037D000F50105A0F6A1E02DCC53DA4FF983E8837B
:1037E000C45CD540F50107A110A521A532A5F3A51C
:1037F000C153DA4FF883CF5CD540F50104A4F5A599
:10380000E02DC353DA4FF983E883CD5CD540F50151
:10381000F6A5C952DA4FF883C75DD540F50167A414
:1038200070A881A892A8CF52DA4F688279828A82E2
:103830009B82C15DD540F3A9C252DA4FF883CE5DB9
:10384000D540F50164A875A8F081C751DA4FF88317
:10385000C95ED540C35DDB4FF883CD52D440C6511D
:10386000DA4F8880CA5ED540C25DDB4F8882CE5277
:10387000D440C152DA4F9880CF5DD540C15DDB4F57
:103880009882CF52D440C951DA4FA880B980C75E20
:10389000D540C75EDD4FB982A882C951D240C5521A
:1038A000DA4FE881F981CB5DD540C55EDD4FF98304
:1038B000E883CB51D240CC53DA4F88809980C45CE6
:1038C000D540C35EDD4F99828882CD51D240C0542D
:1038D000DA4F88809980AA80BB80C05CD540C657EB
:1038E000DF4F88829982AA82BB82CA58D040C257D1
:1038F000DF4FC882D982EA82FB82CE58D040CE56B2
:10390000DF4F088319832A833B83C259D0409E012D
:1039100028553C4FCC53DA4F39832883C45CD540BB
:10392000C653DA4F8880CA5CD540F9018082CE51F7
:10393000DA4F9880C25ED5409182C153DA4FA88099
:10394000CF5CD540A282C454DA4F28813981CC5B48
:10395000D540CC56DE4F39832883C459D140C55356
:10396000DA4FE881F981CB5CD540CA56DE4FF98346
:10397000E883C659D140C353DA4F88809980CD5C23
:10398000D540C856DE4F99828882C859D1409E01E1
:103990002D5D3C4FC054DA4F39832883C05CD5403D
:1039A000CA53DA4F8880C65CD540F9018082C8527C
:1039B000DA4F9880C85DD5409182C952DA4FA8800D
:1039C000C75DD540A28249835A836B837C838D83F4
:1039D0009E83AF83B887CF52DA4F288139814A81DD
:1039E0005B81C15DD54029873A874B875C87AE01F3
:1039F00042565D4FC454DA4F59834883CC5BD5405F
:103A0000C853DA4FE881C85CD540DA01EC93C35261
:103A1000DA4FF881CD5DD5401196FC931197C252D3
:103A2000DA4F8880CE5DD54012968C921297C7529D
:103A3000DA4FA880B980C95DD540C15FDE4FB98239
:103A4000A882CF50D140C052DA4F28813981C05E60
:103A5000D540CF5EDE4F39832883C151D140CD5E42
:103A6000DE4F79826882C351D1404DE254E04C0F61
:103A70005D1F4F5F5F4FC853DA4F59834883C85C5F
:103A8000D540BE01615F7E4FCA53DA4F79836883A8
:103A9000C65CD540CE0101965C018E01075E1D4FCC
:103AA000A451B2406D01FE01EC56FE4F4F01612C56
:103AB000712CC751DA4FE881C95ED540C553DA4F42
:103AC00059824882CB5CD5402801C353DA4F3982F2
:103AD0002882CD5CD5401B01C153DA4F998388837E
:103AE000CF5CD540EE2309F49AC0CC53DA4FE8817D
:103AF000F981C45CD540E60DF71D8081882311F45F
:103B00000C942F29D4018D919C91C054DA4FE881F7
:103B1000F981C05CD540E60DF71D2081CA53DA4F0C
:103B20002883C65CD540211106C0D5011D921D9287
:103B30001D921C921397C454DA4FE881F981CC5B33
:103B4000D540E60DF71DB081C653DA4FB883CA5C85
:103B5000D540B11105C021E030E0F101318320836F
:103B60008230910511F40C945A2A14F40C946C29A7
:103B70008330910511F40C949D2A049709F047C0F5
:103B8000D5012D913D914D915C91CF52DA4F288313
:103B900039834A835B83C15DD540F6012081318141
:103BA00042815381CD51DA4F2883C35ED540CA513B
:103BB000DA4F3883C65ED540CC51DA4F4883C45EB5
:103BC000D540CB51DA4F5883C55ED5400E94335E55
:103BD000CF52DA4FE880F9800A811B81C15DD54060
:103BE000CD51DA4F2881C35ED540CA51DA4F3881B2
:103BF000C65ED540CC51DA4F4881C45ED540CB512A
:103C0000DA4F5881C55ED540B3010E94D55DCA53D5
:103C1000DA4FF881C65CD540F1110C94B329BFEF9F
:103C20006B1A7B0AE2E02E0E311CF4E0AF0EB11CE1
:103C300022E0420E511C34E0C30ED11C42E0840E3F
:103C4000911C53E06516710411F40C943926C85385
:103C5000DA4FA881B981C85CD540ED91C853DA4FDD
:103C6000B983A883C85CD540EE23C9F23ECF243A7D
:103C70003A41414B5C4609F06AC2D801CD907D01C2
:103C8000D12C0E946FB181019601A701BC01C50131
:103C90000E946B9CF10180819181892B09F07BCB83
:103CA0006201FFEFCF1ADF0A0E94F84A80913202C8
:103CB00090913302A0913402B091350289839A83A6
:103CC000AB83BC839E012F5F3F4F5901390100E058
:103CD00010E088248394912C62E0E62EF12C0E945F
:103CE000335EB8010E94D85A8130910511F40C94CA
:103CF0003B2914F40C94AD268230910511F40C94F8
:103D00003629039729F424E030E0F3013683258334
:103D10000F5F1F4F32E0630E711C03301105F9F67F
:103D200083E08D830E94F0B13AC02835354D434879
:103D30005D4B09F00CC2F801C1907F01D12C0E94AB
:103D400027B181019601A701BC01C5010E946B9CAE
:103D5000D1018D919C91892B09F01DCB6201BFEFA0
:103D6000CB1ADB0AF5014181528163817481808124
:103D7000F40181110C94262AEF5BFF4F0081118121
:103D80000E94F84AB8010E948F4AF401ED5BFF4F90
:103D90001082CE0101965C0119820E94A8B17101C6
:103DA000820120E830E0A601BC01C5010E94299CE7
:103DB000F2CAD801CD907D01D12C0E9415B18101AC
:103DC0009601A701BC01C5010E946B9CF101808195
:103DD0009181892B09F0DFCA0E94C7770E9434774E
:103DE00069837A838B839C830E94C7770E9465775F
:103DF0006D837E838F8398870E94C7770E94967712
:103E000069877A878B879C870E9496B189CAF80157
:103E1000C1907F01D12C0E9493B181019601A7012D
:103E2000BC01C5010E946B9CD1018D919C91892B95
:103E300009F0B1CA0E94535620E633E03A83298341
:103E40009C838B830E94F84A28EE33E040E050E0E8
:103E5000BE016F5F7F4F0E94904B19820E9414B287
:103E60005FCAD801CD907D01D12C0E9454B181014F
:103E70009601A701BC01C5010E946B9CF1018081E4
:103E80009181892B09F087CA3201FFEF6F1A7F0AEF
:103E90009E012D5D3C4FC054DA4F39832883C05CAE
:103EA000D54085E8F501D90101900D928A95E1F799
:103EB000D5018D909D90AD90BC90C12CD12C00E08F
:103EC00010E0EE24E394F12CC454DA4F7982688236
:103ED000CC5BD540CC53DA4F59824882C45CD54084
:103EE000C701002E02C0880F991F0A94E2F7092E1D
:103EF000000CAA0BBB0B88219921AA21BB21892B7D
:103F00008A2B8B2B11F00C94B5270F5F1F4F0330BA
:103F1000110531F7C454DA4F68807980CC5BD54005
:103F2000CC53DA4F48805980C45CD54019820E9436
:103F3000D5B1B4C8D801CD907D01D12C0E9472B109
:103F400081019601A701BC01C5010E946B9CF10192
:103F500080819181892B09F01ECA19821A821B82E5
:103F60001C820E94F3B1DCC9D801CD907D01D12C17
:103F70000E9487B181019601A701BC01C5010E9481
:103F80006B9CF10180819181892B09F004CAD501D4
:103F90001496DC90149715960C911597ED90FC9063
:103FA0000E94F637302F2D2DAE014E5F5F4FB701C7
:103FB0000E94C436D9820E9408B2B2C9D801CD90FD
:103FC0007D01D12C0E942AB181019601A701BC017B
:103FD000C5010E946B9CF10180819181892B09F0C0
:103FE000DAC96201FFEFCF1ADF0AD5018C91811186
:103FF0000C94FA29D40114968D919C9115979A836B
:10400000898316968D919C9117979C838B830E9430
:10401000E854FE0131965F01AF0160E070E00E945C
:104020003C54D40118968D919C9119979A83898359
:104030001A968D919C911B979C838B830E94E854C8
:10404000A50161E070E00E943C54F40184859585EF
:104050009A838983868597859C838B830E94E85405
:10406000A50162E070E00E943C5419820E94ABB14D
:1040700096CED801CD907D01D12C0E9418B181013E
:104080009601A701BC01C5010E946B9CF1018081D2
:104090009181892B09F07FC96201FFEFCF1ADF0AF6
:1040A0007E0122E0E20EF11C00E010E00E941C0301
:1040B000B8010E94E802A0E0B0E0F701819391937B
:1040C000A193B1937F010F5F1F4F0830110571F766
:1040D00088E089830E9499B10C94C217F801C190BD
:1040E0007F01D12C0E947EB181019601A701BC0104
:1040F000C5010E946B9CD1018D919C91892B09F087
:104100004AC96201BFEFCB1ADB0A0E94F4527C015C
:1041100000E010E00E94335EB8010E948F5A0E94B6
:10412000335E40E050E0B8010E942E5A0F5F1F4FEF
:104130000330110579F7F701BD9686E0DF011D9286
:104140008A95E9F719820E94FFB10C94C21784E0A6
:1041500090E0F101918380831EC9D801CD907D014B
:10416000D12C0E9475B181019601A701BC01C50146
:104170000E946B9CF10180819181892B09F00BC910
:104180008CE0EEECF4E0DE01119601900D928A9540
:10419000E1F70E94F6B1C4C8D801CD907D01D12CC1
:1041A0000E9466B181019601A701BC01C5010E9470
:1041B0006B9CF10180819181892B09F0ECC80E94F0
:1041C00053560E941C0360E070E00E94F60223ED4B
:1041D00038E44EE85EE30E9401B769837A838B83FB
:1041E0009C830E94E7B19CC8D801CD907D01D12C61
:1041F0000E9469B181019601A701BC01C5010E941D
:104200006B9CF10180819181892B09F0C4C8620106
:10421000FFEFCF1ADF0A0E94F84A80913202909194
:104220003302A0913402B091350289839A83AB8323
:10423000BC837E0126E0E20EF11C00E010E00E944B
:10424000F452B8010E94484CD7016D937D938D9331
:104250009D937D010F5F1F4F0330110581F783E0B0
:104260008D830E94EAB10C94C217D801CD907D01D4
:10427000D12C0E9460B181019601A701BC01C5014A
:104280000E946B9CF10180819181892B09F083C888
:104290003201FFEF6F1A7F0A85E8F501DE01A15FA9
:1042A000BE4F01900D928A95E1F7D5018D909D90BA
:1042B000AD90BC90C12CD12C00E010E0EE24E39432
:1042C000F12CC454DA4F79826882CC5BD540C0545B
:1042D000DA4F59824882C05CD540C701002E02C027
:1042E000880F991F0A94E2F7092E000CAA0BBB0B4A
:1042F00088219921AA21BB21892B8A2B8B2B09F09C
:10430000E4C50F5F1F4F0330110539F7C454DA4F6E
:1043100068807980CC5BD540C054DA4F48805980A2
:10432000C05CD54019820E94E1B10C944E18F8018E
:10433000C1907F01D12C0E948AB181019601A70111
:10434000BC01C5010E946B9CD1018D919C91892B70
:1043500009F021C84201BFEF8B1A9B0A6E01EAE8FF
:10436000CE0ED11C85E8F501D60101900D928A95FB
:10437000E1F7D60114961C910E94EE76412F50E091
:10438000B6016B5F7F4F08960E9468BCF6016081A2
:10439000CA51DA4F6883C65ED5400E94EE76412F3F
:1043A000CA51DA4F6881C65ED5400E947875892B64
:1043B00069F70E94EE760E94C57519820E940BB2C1
:1043C0007101820120E830E0A401BC01CE01019618
:1043D0000E94299C0C94CB19D801CD907D01D12C41
:1043E0000E945AB181019601A701BC01C5010E943A
:1043F0006B9CF10180819181892B11F00C94CB1978
:104400003201FFEF6F1A7F0A85E8F501DE01A75E32
:10441000BD4F01900D928A95E1F7D5018D909D9049
:10442000AD90BC90C12CD12C00E010E0EE24E394C0
:10443000F12CC454DA4F79826882CC5BD540C054E9
:10444000DA4F59824882C05CD540C701002E02C0B5
:10445000880F991F0A94E2F7092E000CAA0BBB0BD8
:1044600088219921AA21BB21892B8A2B8B2B09F02A
:10447000A6C60F5F1F4F0330110539F7C454DA4F3A
:1044800068807980CC5BD540C054DA4F4880598031
:10449000C05CD54019820E94DBB10C944E18D80143
:1044A000CD907D01D12C0E9448B181019601A701D8
:1044B000BC01C5010E946B9CF10180819181892B17
:1044C00011F00C94CB190E94B77060E070E00E946C
:1044D0005F706A837B838C839D830E94B77061E0E9
:1044E00070E00E945F706E837F83888799870E9447
:1044F000B77062E070E00E945F706A877B878C878C
:104500009D8783E089830E94C9B10C949019D801DA
:10451000CD907D01D12C0E9451B181019601A7015E
:10452000BC01C5010E946B9CF10180819181892BA6
:1045300011F00C94CB193201FFEF6F1A7F0A9E0124
:1045400028553C4FCC53DA4F39832883C45CD5407F
:1045500085E8F501D90101900D928A95E1F7D50121
:104560008D909D90AD90BC90C12CD12C00E010E0BE
:10457000EE24E394F12CC454DA4F79826882CC5B48
:10458000D540C054DA4F59824882C05CD540C7013B
:10459000002E02C0880F991F0A94E2F7092E000C22
:1045A000AA0BBB0B88219921AA21BB21892B8A2B1D
:1045B0008B2B09F07BC50F5F1F4F0330110539F7B7
:1045C000C454DA4F68807980CC5BD540C054DA4F50
:1045D00048805980C05CD54019820E94D2B10C94A9
:1045E0004E18D801CD907D01D12C0E9430B18101AF
:1045F0009601A701BC01C5010E946B9CF10180815D
:104600009181892B11F00C94CB196201FFEFCF1A25
:10461000DF0AD5018C9181113AC71A8219821C8256
:104620001B820E94335E9E012F5F3F4F5901B901EB
:104630000E94955A19820E94B1B1B1CBD801CD9098
:104640007D01D12C0E9433B181019601A701BC01EB
:10465000C5010E946B9CF10180819181892B11F031
:104660000C94CB190E94B77060E070E00E948170DA
:10467000092E000CAA0BBB0B8A839B83AC83BD83E2
:104680000E94B77061E070E00E948170092E000CFA
:10469000AA0BBB0B8E839F83A887B9870E94B77034
:1046A00062E070E00E948170092E000CAA0BBB0B27
:1046B0008A879B87AC87BD8783E089830E94B4B1DA
:1046C0000C949019F801C1907F01D12C0E9481B106
:1046D00081019601A701BC01C5010E946B9CD1011B
:1046E0008D919C91892B11F00C94CB196201BFEF35
:1046F000CB1ADB0AF501E1808081882309F4C2C569
:10470000F12C00E010E0C701002E02C095958795BE
:104710000A94E2F780FD7CC30F5F1F4F0330110541
:1047200091F719820E9402B20C94C217D801CD9061
:104730007D01D12C0E9445B181019601A701BC01E8
:10474000C5010E946B9CF10180819181892B11F040
:104750000C94CB190E94B77060E070E00E94397031
:104760006A837B838C839D830E94B77061E070E0D5
:104770000E9439706E837F83888799870E94B77003
:1047800062E070E00E9439706A877B878C879D8722
:1047900083E089830E94C6B10C949019D801CD9012
:1047A0007D01D12C0E9439B181019601A701BC0184
:1047B000C5010E946B9CF10180819181892B11F0D0
:1047C0000C94CB190E94B77060E070E00E94C76F34
:1047D0006A837B838C839D830E94B77061E070E065
:1047E0000E94C76F6E837F83888799870E94B77006
:1047F00062E070E00E94C76F6A877B878C879D8725
:1048000083E089830E94BAB10C949019D801CD90AD
:104810007D01D12C0E9484B181019601A701BC01C8
:10482000C5010E946B9CF10180819181892B11F05F
:104830000C94CB1985E8F501DE01A95CBA4F019013
:104840000D928A95E1F7C55CDA4F0881CB53D540CC
:1048500010E0C95CDA4FE880F980C753D5400E9468
:10486000F63747E355E04C0F5D1F4B5F5F4F9801F4
:10487000B7010E94983719820E9405B20C949019D2
:10488000F801C1907F01D12C0E941EB181019601D7
:10489000A701BC01C5010E946B9CD1018D919C9127
:1048A000892B11F00C94CB19F501C080D180E280E6
:1048B000F380A701662777278D2C9E2CAF2CBB2475
:1048C000CC51DA4F4883C45ED540CB51DA4F588380
:1048D000C55ED540CA51DA4F6883C65ED540CD511A
:1048E000DA4F7883C35ED5400E94AA36CC51DA4FA6
:1048F0004881C45ED540582D6C2D0E9415360E940B
:10490000AA36DC011C9219820E949FB10C94901966
:10491000F801C1907F01D12C0E9490B181019601D4
:10492000A701BC01C5010E946B9CD1018D919C9196
:10493000892B11F00C94CB194201BFEF8B1A9B0A03
:1049400089E8F501DE01119601900D928A95E1F753
:10495000B9840E94EE764B2D50E0BE01665F7F4F1A
:1049600008960E9468BCFE01E657FF4F6F017F0169
:10497000FFEFEF1AFF0A1D816981CA51DA4F688380
:10498000C65ED5400E94EE76012F97014B2DCA518D
:10499000DA4F6881C65ED5400E94A675892B59F70B
:1049A0000E94EE760E94C575D6011C930E9411B23A
:1049B0007101820120E830E0A401BC01C6010E941F
:1049C000299C0C94CB19D801CD907D01D12C0E944B
:1049D00057B181019601A701BC01C5010E946B9CE2
:1049E000F10180819181892B11F00C94CB19320156
:1049F000FFEF6F1A7F0A9E0122563D4FC454DA4FD3
:104A000039832883CC5BD54085E8F501D901019035
:104A10000D928A95E1F7D5018D909D90AD90BC9057
:104A2000C12CD12C00E010E0EE24E394F12CC05412
:104A3000DA4F79826882C05CD540CC53DA4F598214
:104A40004882C45CD540C701002E02C0880F991F60
:104A50000A94E2F7092E000CAA0BBB0B88219921BE
:104A6000AA21BB21892B8A2B8B2B09F081C10F5FD7
:104A70001F4F0330110539F7C054DA4F6880798031
:104A8000C05CD540CC53DA4F48805980C45CD540D7
:104A900019820E94D8B10C944E18D801CD907D0196
:104AA000D12C0E942DB181019601A701BC01C50145
:104AB0000E946B9CF10180819181892B11F00C94F3
:104AC000CB196201FFEFCF1ADF0AD50111963C9195
:104AD000119712968D919D910D90BC91A02DF5018D
:104AE0000681E7804085518562857385C054DA4F21
:104AF000488359836A837B83C05CD5401485F584E1
:104B00004685578560897189C454DA4F4883598333
:104B10006A837B83CC5BD54020812111B7C39E0182
:104B20002F5F3F4F5901002369F1D401EE2009F4B2
:104B30006CC599961D921D921D921C929C97C05413
:104B4000DA4F288139814A815B81C05CD5405D960E
:104B50002D933D934D935C93909781E051968C9368
:104B600083E294E19A8389839C828B820E94F84A33
:104B700028EC30E040E050E0B5010E94904BF40199
:104B8000968B858B112371F0D401F1104AC557968D
:104B90000D911C9158970E94F84AB8010E948F4AC3
:104BA000F401128A19820E94AEB1F9C8D801CD90E1
:104BB0007D01D12C0E945DB181019601A701BC014C
:104BC000C5010E946B9CF10180819181892B11F0BC
:104BD0000C94CB193201FFEF6F1A7F0A85E8F501BB
:104BE000DE01AC56BE4F01900D928A95E1F7D501DA
:104BF0008D909D90AD90BC90C12CD12C00E010E028
:104C0000EE24E394F12CC454DA4F79826882CC5BB1
:104C1000D540C054DA4F59824882C05CD540C701A4
:104C2000002E02C0880F991F0A94E2F7092E000C8B
:104C3000AA0BBB0B88219921AA21BB21892B8A2B86
:104C40008B2B09F0E3C10F5F1F4F0330110539F7BC
:104C5000C454DA4F68807980CC5BD540C054DA4FB9
:104C600048805980C05CD54019820E94DEB10C9406
:104C70004E18C553DA4F48805980CB5CD540C3539A
:104C8000DA4F28803980CD5CD540C153DA4FA880F7
:104C9000B980CF5CD54019820E94FCB171018201BC
:104CA00020E830E0CB52DA4F48815981C55DD540CC
:104CB000BC01C5010E94299C0C94CB193201FFEF65
:104CC0006F1A7F0A85E8F501DE01A35DBB4F0190F5
:104CD0000D928A95E1F7D5018D909D90AD90BC9095
:104CE000C12CD12C00E010E0EE24E394F12CC4544C
:104CF000DA4F79826882CC5BD540C054DA4F598252
:104D00004882C05CD540C701002E02C0880F991FA1
:104D10000A94E2F7092E000CAA0BBB0B88219921FB
:104D2000AA21BB21892B8A2B8B2B09F07EC00F5F18
:104D30001F4F0330110539F7C454DA4F688079806A
:104D4000CC5BD540C054DA4F48805980C05CD54018
:104D500019820E94CFB10C944E18892B11F00C943B
:104D6000881ED3011696FC92EE9215970C94881E1D
:104D7000F601EE0FFF1FEE0FFF1FC454DA4F6880DD
:104D80007980CC5BD540E60DF71D45805680678065
:104D900070840E94B770A3019201B8010E94946FC1
:104DA0000E94335E9801220F331F820F931FDC0194
:104DB0008D919C91892B41F1CD51DA4F2883C35EAF
:104DC000D540CA51DA4F3883C65ED5400E94335E63
:104DD000CD51DA4F2881C35ED540CA51DA4F3881B0
:104DE000C65ED540820F931FFC0180819181DC015A
:104DF000ED91FC910484F585E02DB3E0EB34FB07E5
:104E000019F0B301A2010995EFEFCE1ADE0A2FCEF9
:104E10000E94335EB8010E948F5A0E94335E40E0C8
:104E200050E0B8010E942E5A77CCF601EE0FFF1F1A
:104E3000EE0FFF1F7DE2672E74E0772E6C0E7D1E55
:104E4000E60DF71D45805680678070840E94B7701C
:104E5000A3019201B8010E9491700E94335E9801F3
:104E6000220F331F820F931FDC018D919C91892BA0
:104E700041F1CD51DA4F2883C35ED540CA51DA4F94
:104E80003883C65ED5400E94335ECD51DA4F28810B
:104E9000C35ED540CA51DA4F3881C65ED540820F15
:104EA000931FFC0180819181DC01ED91FC91028CCA
:104EB000F38DE02DB3E0E235FB0719F0B301A20159
:104EC0000995EFEFCE1ADE0A32CFF601EE0FFF1F83
:104ED000EE0FFF1FBFE06B2E772473946C0E7D1EC8
:104EE000E60DF71D45805680678070840E94B7707C
:104EF000A3019201B8010E944E700E94335E980196
:104F0000220F331F820F931FDC018D919C91892BFF
:104F100041F1CD51DA4F2883C35ED540CA51DA4FF3
:104F20003883C65ED5400E94335ECD51DA4F28816A
:104F3000C35ED540CA51DA4F3881C65ED540820F74
:104F4000931FFC0180819181DC01ED91FC91068829
:104F5000F789E02DB3E0E035FB0719F0B301A201BA
:104F60000995EFEFCE1ADE0ACCC9F601EE0FFF1F4E
:104F7000EE0FFF1FC054DA4F68807980C05CD540C7
:104F8000E60DF71D45805680678070840E94B770DB
:104F9000A3019201B8010E94DC6F0E94335E980168
:104FA000220F331F820F931FDC018D919C91892B5F
:104FB00041F1CD51DA4F2883C35ED540CA51DA4F53
:104FC0003883C65ED5400E94335ECD51DA4F2881CA
:104FD000C35ED540CA51DA4F3881C65ED540820FD4
:104FE000931FFC0180819181DC01ED91FC9100888F
:104FF000F189E02DB3E0ED34FB0719F0B301A20114
:105000000995EFEFCE1ADE0A0C94851FF601EE0F1C
:10501000FF1FEE0FFF1F74E9672E772473946C0E49
:105020007D1EE60DF71D45805680678070840E94C6
:10503000B770A3019201B8010E9428700E94335EEC
:105040009801220F331F820F931FDC018D919C91D9
:10505000892B41F1CD51DA4F2883C35ED540CA5127
:10506000DA4F3883C65ED5400E94335ECD51DA4FA9
:105070002881C35ED540CA51DA4F3881C65ED5401B
:10508000820F931FFC0180819181DC01ED91FC91E5
:105090000488F589E02DB3E0EF34FB0719F0B30184
:1050A000A2010995EFEFCE1ADE0ACDCDF601EE0F83
:1050B000FF1FEE0FFF1FCC53DA4F68807980C45C6E
:1050C000D540E60DF71D45805680678070840E94AC
:1050D000B770A3019201B8010E94B66F0E94335EBF
:1050E0009801220F331F820F931FDC018D919C9139
:1050F000892B41F1CD51DA4F2883C35ED540CA5187
:10510000DA4F3883C65ED5400E94335ECD51DA4F08
:105110002881C35ED540CA51DA4F3881C65ED5407A
:10512000820F931FFC0180819181DC01ED91FC9144
:105130000684F785E02DB3E0EC34FB0719F0B301EA
:10514000A2010995EFEFCE1ADE0A35CAF601EE0F7D
:10515000FF1FEE0FFF1FB2EBAB2EB4E0BB2EAC0E69
:10516000BD1EEA0DFB1D858096800E94B770A401CC
:10517000B8010E9474700E94335E5801AA0CBB1CD7
:105180008A0D9B1DDC018D919C91892B99F00E94C9
:10519000335E8A0D9B1DFC0180819181DC01ED91C4
:1051A000FC91008CF18DE02DB3E0E135FB0711F0AF
:1051B000B4010995EFEFCE1ADE0A0C944618F601F9
:1051C000EE0FFF1FEE0FFF1FB9E16B2EB2E07B2E3B
:1051D0006C0E7D1EE60DF71D45805680678070843D
:1051E0000E94B770A3019201B8010E9402700E9450
:1051F000335E9801220F331F820F931FDC018D91C4
:105200009C91892B41F1CD51DA4F2883C35ED54063
:10521000CA51DA4F3883C65ED5400E94335ECD5105
:10522000DA4F2881C35ED540CA51DA4F3881C65E55
:10523000D540820F931FFC0180819181DC01ED91AB
:10524000FC910288F389E02DB3E0EE34FB0719F0FE
:10525000B301A2010995EFEFCE1ADE0A0AC982E076
:1052600090E0F401918380830C94851DF301968274
:1052700085820C94881ED30116961C921E92159757
:105280000C94881E87E0E82EF12C3BCAF4013323EE
:1052900009F4ADC115A216A217A210A6818F928F94
:1052A000A38FB48F81E0808B8EEB94E19A83898306
:1052B0009C828B820E94F84A28EC30E040E050E06B
:1052C000BE016F5F7F4F5B010E94904BD4015496EB
:1052D0009C938E93539727CC019711F00C94071E43
:1052E000D2018D919C918230910509F4FDC18330EA
:1052F000910509F4C6C1019711F00C94071EF6013F
:105300002081318142815381CD51DA4F2883C35EA0
:10531000D540CA51DA4F3883C65ED540CC51DA4FFA
:105320004883C45ED540CB51DA4F5883C55ED54023
:105330000E94335ECD51DA4F2881C35ED540CA51F9
:10534000DA4F3881C65ED540CC51DA4F4881C45E11
:10535000D540CB51DA4F5881C55ED540B3010E948C
:10536000015B0C94071E0E94335E9301220F331FD2
:10537000820F931FDC010D911C910115110511F491
:105380000C940F1EF801E080F18020E030E04AE745
:1053900054E4D5016D917D918D919C910E94C2B88C
:1053A0000E947AB7AB01BC01D7019296ED91FC91B6
:1053B0009397C8010995C653DA4FB881CA5CD540A6
:1053C000BB2311F40C940F1EF10180819181D8014F
:1053D000ED91FC9104A0F5A1E02D8130910509F437
:1053E00025C2029709F41CC261E070E0C80109956A
:1053F0000C940F1E89E890E19A8389839C828B82AA
:105400000E94E854FE0131965F01AF0160E070E058
:105410000E943C5482E19FE09A8389839C828B8224
:105420000E94E854A50161E070E00E943C5481EDC7
:105430009EE09A8389839C828B820E94E854A50116
:1054400062E070E00E943C540C943520FD9640834D
:10545000518362837383369681E0808381E19DE08E
:105460009A8389839C828B820E94F84A28EC30E0E0
:1054700040E050E0BE016F5F7F4F5B010E94904BA8
:10548000F401EF5BFF4F918380830C94CC1E85E584
:1054900096E19A8389839C828B820E94335EFE010F
:1054A00031965F01BF010E94955AC4C880E090E028
:1054B0000C94BE17D2018D919C918230910509F414
:1054C0007BC18330910509F443C1019711F00C941D
:1054D000071EF6012081318142815381CD51DA4F7F
:1054E0002883C35ED540CA51DA4F3883C65ED540A3
:1054F000CC51DA4F4883C45ED540CB51DA4F588344
:10550000C55ED5400E94335ECD51DA4F2881C35E1F
:10551000D540CA51DA4F3881C65ED540CC51DA4FFA
:105520004881C45ED540CB51DA4F5881C55ED54025
:10553000B3010E94A45B0C94071ED2018D919C9133
:105540008130910509F497C0029711F00C94071E61
:10555000D6012D913D914D915C91CF52DA4F288328
:1055600039834A835B83C15DD5400E94F452B30105
:105570000E94484C9B01AC01CF52DA4F688179817F
:105580008A819B81C15DD5400E9490B69B01AC0190
:10559000CD51DA4F2883C35ED540CA51DA4F3883E4
:1055A000C65ED540CC51DA4F4883C45ED540CB515E
:1055B000DA4F5883C55ED5400E94335ECD51DA4F35
:1055C0002881C35ED540CA51DA4F3881C65ED540C6
:1055D000CC51DA4F4881C45ED540CB51DA4F588167
:1055E000C55ED540B3010E94905D0C94071EA38850
:1055F000B4880E94F84AB5010E948F4AD40150969F
:105600001C92FE0131965F018ECA55966D907C907A
:1056100056970E94F84AB3010E948F4AF401118AFA
:10562000B1CA9D961D921D921D921C92D097C45492
:10563000DA4F288139814A815B81CC5BD5409196D4
:105640002D933D934D935C93949781E052968C9368
:1056500088E893E19A8389839C828B820E94F84A2E
:1056600028EC30E040E050E0B5010E94904BF4019E
:10567000908F878B97CAF6012081318142815381B7
:1056800087CF0E94335EB3010E948F5AF60160817A
:105690007181828193810E9473B7AB01BC01CC51AF
:1056A000DA4F4883C45ED540CB51DA4F5883C55E8C
:1056B000D540CA51DA4F6883C65ED540CD51DA4F26
:1056C0007883C35ED5400E94335ECC51DA4F488167
:1056D000C45ED540CB51DA4F5881C55ED540B30189
:1056E0000E94055A0C94071ED6012D913D914D91B3
:1056F0005C91CD51DA4F2883C35ED540CA51DA4F51
:105700003883C65ED540CC51DA4F4883C45ED5405D
:10571000CB51DA4F5883C55ED5400E94335ECD51E0
:10572000DA4F2881C35ED540CA51DA4F3881C65E50
:10573000D540CC51DA4F4881C45ED540CB51DA4FC9
:105740005881C55ED540B3010E94795B0C94071E59
:10575000F6012081318142815381CD51DA4F288376
:10576000C35ED540CA51DA4F3883C65ED540CC51AE
:10577000DA4F4883C45ED540CB51DA4F5883C55EBB
:10578000D5400E94335ECD51DA4F2881C35ED540AB
:10579000CA51DA4F3881C65ED540CC51DA4F4881C4
:1057A000C45ED540CB51DA4F5881C55ED540B301B8
:1057B0000E94725C0C94071ED6012D913D914D9173
:1057C0005C91CD51DA4F2883C35ED540CA51DA4F80
:1057D0003883C65ED540CC51DA4F4883C45ED5408D
:1057E000CB51DA4F5883C55ED5400E94335ECD5110
:1057F000DA4F2881C35ED540CA51DA4F3881C65E80
:10580000D540CC51DA4F4881C45ED540CB51DA4FF8
:105810005881C55ED540B3010E94475C0C94071EB9
:1058200060E070E0C80109950C940F1E62E070E022
:10583000C80109950C940F1E2F923F924F925F92D0
:105840006F927F928F929F92AF92BF92CF92DF9290
:10585000EF92FF920F931F93CF93DF93CDB7DEB7F5
:10586000C452D4400FB6F894DEBF0FBECDBF3C018A
:105870008B01DB011A962C911A9727FD8EC12430DB
:1058800009F469C4FB01858987FD1AC0CC5DDB4F33
:105890000FB6F894DEBF0FBECDBFDF91CF911F9141
:1058A0000F91FF90EF90DF90CF90BF90AF909F90BF
:1058B0008F907F906F905F904F903F902F900895C2
:1058C0007E01F6EAEF1AFCEFFF0A86E8D7011D9287
:1058D0008A95E9F7FB0160817181918D292F30E074
:1058E000359527953595279523709295969596959C
:1058F0009370223009F444C4233009F437C4923041
:1059000009F43AC143E050E0933009F436C4E0E0D2
:10591000F0E068507109641B750B6E1B7F0BA801CA
:10592000435E5F4F223009F43AC4233009F03EC48D
:105930002AE030E0923009F435C4933009F02DC4E8
:10594000C9010896840F951F02960E949D9FC25F11
:10595000DB4F2883CE50D440C15FDB4F3883CF501C
:10596000D440C05FDB4F4883C051D440CF5EDB4F93
:105970005883C151D440CE5EDB4F6883C251D440BE
:10598000CD5EDB4F7883C351D440CC5EDB4F888340
:10599000C451D440CB5EDB4F9883C551D440A7019E
:1059A00062E773E0CE01825F9B4F0E94ABA6882323
:1059B00009F4C9C3D70111964D915D916D917C9108
:1059C00014978BE0F8013D96DE01A550BC4F019085
:1059D0000D928A95E1F78BE0FE01E550FC4FDE0168
:1059E000A052BC4F01900D928A95E1F7DD24D3942B
:1059F000C551DC4FD882CB5ED340C451DC4F4883C5
:105A000059836A837B83CC5ED340F80182858823E7
:105A100009F4E6C3823009F039CFF30180818111A6
:105A200053C58E010F5F1F4F8EE2D8011D928A95DC
:105A3000E9F7F701658170E0C70106960E949D9F16
:105A4000CA5FDB4F2883C650D440C95FDB4F388321
:105A5000C750D440C85FDB4F4883C850D440C75FAD
:105A6000DB4F5883C950D440C65FDB4F6883CA50B0
:105A7000D440C55FDB4F7883CB50D440C45FDB4F4D
:105A80008883CC50D440C35FDB4F9883CD50D44043
:105A9000A80162EA73E0CE018A5F9B4F0E94ABA629
:105AA000882309F450C31981112309F467C58E01B5
:105AB0000E5F1F4FE12CF12C0BC0FFEFEF1AFF0A16
:105AC0000B5F1F4F298130E0E216F3060CF0DECEAB
:105AD0000E943C4ABC016354764FC8010E9478BCC6
